{
  "address": "0x0DCd1Bf9A1b36cE34237eEaFef220932846BCD82",
  "abi": [
    {
      "inputs": [],
      "stateMutability": "nonpayable",
      "type": "constructor"
    },
    {
      "anonymous": false,
      "inputs": [
        {
          "indexed": true,
          "internalType": "address",
          "name": "owner",
          "type": "address"
        },
        {
          "indexed": true,
          "internalType": "address",
          "name": "approved",
          "type": "address"
        },
        {
          "indexed": true,
          "internalType": "uint256",
          "name": "tokenId",
          "type": "uint256"
        }
      ],
      "name": "Approval",
      "type": "event"
    },
    {
      "anonymous": false,
      "inputs": [
        {
          "indexed": true,
          "internalType": "address",
          "name": "owner",
          "type": "address"
        },
        {
          "indexed": true,
          "internalType": "address",
          "name": "operator",
          "type": "address"
        },
        {
          "indexed": false,
          "internalType": "bool",
          "name": "approved",
          "type": "bool"
        }
      ],
      "name": "ApprovalForAll",
      "type": "event"
    },
    {
      "anonymous": false,
      "inputs": [
        {
          "indexed": true,
          "internalType": "address",
          "name": "previousOwner",
          "type": "address"
        },
        {
          "indexed": true,
          "internalType": "address",
          "name": "newOwner",
          "type": "address"
        }
      ],
      "name": "OwnershipTransferred",
      "type": "event"
    },
    {
      "anonymous": false,
      "inputs": [
        {
          "indexed": true,
          "internalType": "address",
          "name": "from",
          "type": "address"
        },
        {
          "indexed": true,
          "internalType": "address",
          "name": "to",
          "type": "address"
        },
        {
          "indexed": true,
          "internalType": "uint256",
          "name": "tokenId",
          "type": "uint256"
        }
      ],
      "name": "Transfer",
      "type": "event"
    },
    {
      "inputs": [],
      "name": "MAX_SUPPLY",
      "outputs": [
        {
          "internalType": "uint256",
          "name": "",
          "type": "uint256"
        }
      ],
      "stateMutability": "view",
      "type": "function"
    },
    {
      "inputs": [
        {
          "internalType": "address",
          "name": "to",
          "type": "address"
        },
        {
          "internalType": "uint256",
          "name": "tokenId",
          "type": "uint256"
        }
      ],
      "name": "approve",
      "outputs": [],
      "stateMutability": "nonpayable",
      "type": "function"
    },
    {
      "inputs": [
        {
          "internalType": "address",
          "name": "owner",
          "type": "address"
        }
      ],
      "name": "balanceOf",
      "outputs": [
        {
          "internalType": "uint256",
          "name": "",
          "type": "uint256"
        }
      ],
      "stateMutability": "view",
      "type": "function"
    },
    {
      "inputs": [],
      "name": "baseURI",
      "outputs": [
        {
          "internalType": "string",
          "name": "",
          "type": "string"
        }
      ],
      "stateMutability": "view",
      "type": "function"
    },
    {
      "inputs": [
        {
          "internalType": "uint256",
          "name": "_number",
          "type": "uint256"
        },
        {
          "internalType": "address",
          "name": "_receiver",
          "type": "address"
        }
      ],
      "name": "claimReserved",
      "outputs": [],
      "stateMutability": "nonpayable",
      "type": "function"
    },
    {
      "inputs": [],
      "name": "flipHasSaleStarted",
      "outputs": [],
      "stateMutability": "nonpayable",
      "type": "function"
    },
    {
      "inputs": [
        {
          "internalType": "uint256",
          "name": "tokenId",
          "type": "uint256"
        }
      ],
      "name": "getApproved",
      "outputs": [
        {
          "internalType": "address",
          "name": "",
          "type": "address"
        }
      ],
      "stateMutability": "view",
      "type": "function"
    },
    {
      "inputs": [],
      "name": "getPrice",
      "outputs": [
        {
          "internalType": "uint256",
          "name": "",
          "type": "uint256"
        }
      ],
      "stateMutability": "view",
      "type": "function"
    },
    {
      "inputs": [],
      "name": "getReservedLeft",
      "outputs": [
        {
          "internalType": "uint256",
          "name": "",
          "type": "uint256"
        }
      ],
      "stateMutability": "view",
      "type": "function"
    },
    {
      "inputs": [],
      "name": "hasSaleStarted",
      "outputs": [
        {
          "internalType": "bool",
          "name": "",
          "type": "bool"
        }
      ],
      "stateMutability": "view",
      "type": "function"
    },
    {
      "inputs": [
        {
          "internalType": "address",
          "name": "owner",
          "type": "address"
        },
        {
          "internalType": "address",
          "name": "operator",
          "type": "address"
        }
      ],
      "name": "isApprovedForAll",
      "outputs": [
        {
          "internalType": "bool",
          "name": "",
          "type": "bool"
        }
      ],
      "stateMutability": "view",
      "type": "function"
    },
    {
      "inputs": [],
      "name": "mint",
      "outputs": [],
      "stateMutability": "payable",
      "type": "function"
    },
    {
      "inputs": [],
      "name": "name",
      "outputs": [
        {
          "internalType": "string",
          "name": "",
          "type": "string"
        }
      ],
      "stateMutability": "view",
      "type": "function"
    },
    {
      "inputs": [],
      "name": "owner",
      "outputs": [
        {
          "internalType": "address",
          "name": "",
          "type": "address"
        }
      ],
      "stateMutability": "view",
      "type": "function"
    },
    {
      "inputs": [
        {
          "internalType": "uint256",
          "name": "tokenId",
          "type": "uint256"
        }
      ],
      "name": "ownerOf",
      "outputs": [
        {
          "internalType": "address",
          "name": "",
          "type": "address"
        }
      ],
      "stateMutability": "view",
      "type": "function"
    },
    {
      "inputs": [],
      "name": "renounceOwnership",
      "outputs": [],
      "stateMutability": "nonpayable",
      "type": "function"
    },
    {
      "inputs": [
        {
          "internalType": "address",
          "name": "from",
          "type": "address"
        },
        {
          "internalType": "address",
          "name": "to",
          "type": "address"
        },
        {
          "internalType": "uint256",
          "name": "tokenId",
          "type": "uint256"
        }
      ],
      "name": "safeTransferFrom",
      "outputs": [],
      "stateMutability": "nonpayable",
      "type": "function"
    },
    {
      "inputs": [
        {
          "internalType": "address",
          "name": "from",
          "type": "address"
        },
        {
          "internalType": "address",
          "name": "to",
          "type": "address"
        },
        {
          "internalType": "uint256",
          "name": "tokenId",
          "type": "uint256"
        },
        {
          "internalType": "bytes",
          "name": "_data",
          "type": "bytes"
        }
      ],
      "name": "safeTransferFrom",
      "outputs": [],
      "stateMutability": "nonpayable",
      "type": "function"
    },
    {
      "inputs": [
        {
          "internalType": "address",
          "name": "operator",
          "type": "address"
        },
        {
          "internalType": "bool",
          "name": "approved",
          "type": "bool"
        }
      ],
      "name": "setApprovalForAll",
      "outputs": [],
      "stateMutability": "nonpayable",
      "type": "function"
    },
    {
      "inputs": [
        {
          "internalType": "string",
          "name": "uri",
          "type": "string"
        }
      ],
      "name": "setBaseURI",
      "outputs": [],
      "stateMutability": "nonpayable",
      "type": "function"
    },
    {
      "inputs": [
        {
          "internalType": "uint256",
          "name": "_newPrice",
          "type": "uint256"
        }
      ],
      "name": "setPrice",
      "outputs": [],
      "stateMutability": "nonpayable",
      "type": "function"
    },
    {
      "inputs": [],
      "name": "startingIndex",
      "outputs": [
        {
          "internalType": "uint256",
          "name": "",
          "type": "uint256"
        }
      ],
      "stateMutability": "view",
      "type": "function"
    },
    {
      "inputs": [
        {
          "internalType": "bytes4",
          "name": "interfaceId",
          "type": "bytes4"
        }
      ],
      "name": "supportsInterface",
      "outputs": [
        {
          "internalType": "bool",
          "name": "",
          "type": "bool"
        }
      ],
      "stateMutability": "view",
      "type": "function"
    },
    {
      "inputs": [],
      "name": "symbol",
      "outputs": [
        {
          "internalType": "string",
          "name": "",
          "type": "string"
        }
      ],
      "stateMutability": "view",
      "type": "function"
    },
    {
      "inputs": [
        {
          "internalType": "uint256",
          "name": "index",
          "type": "uint256"
        }
      ],
      "name": "tokenByIndex",
      "outputs": [
        {
          "internalType": "uint256",
          "name": "",
          "type": "uint256"
        }
      ],
      "stateMutability": "view",
      "type": "function"
    },
    {
      "inputs": [
        {
          "internalType": "address",
          "name": "owner",
          "type": "address"
        },
        {
          "internalType": "uint256",
          "name": "index",
          "type": "uint256"
        }
      ],
      "name": "tokenOfOwnerByIndex",
      "outputs": [
        {
          "internalType": "uint256",
          "name": "",
          "type": "uint256"
        }
      ],
      "stateMutability": "view",
      "type": "function"
    },
    {
      "inputs": [
        {
          "internalType": "uint256",
          "name": "tokenId",
          "type": "uint256"
        }
      ],
      "name": "tokenURI",
      "outputs": [
        {
          "internalType": "string",
          "name": "",
          "type": "string"
        }
      ],
      "stateMutability": "view",
      "type": "function"
    },
    {
      "inputs": [
        {
          "internalType": "address",
          "name": "_owner",
          "type": "address"
        }
      ],
      "name": "tokensOfOwner",
      "outputs": [
        {
          "internalType": "uint256[]",
          "name": "",
          "type": "uint256[]"
        }
      ],
      "stateMutability": "view",
      "type": "function"
    },
    {
      "inputs": [],
      "name": "totalSupply",
      "outputs": [
        {
          "internalType": "uint256",
          "name": "",
          "type": "uint256"
        }
      ],
      "stateMutability": "view",
      "type": "function"
    },
    {
      "inputs": [
        {
          "internalType": "address",
          "name": "from",
          "type": "address"
        },
        {
          "internalType": "address",
          "name": "to",
          "type": "address"
        },
        {
          "internalType": "uint256",
          "name": "tokenId",
          "type": "uint256"
        }
      ],
      "name": "transferFrom",
      "outputs": [],
      "stateMutability": "nonpayable",
      "type": "function"
    },
    {
      "inputs": [
        {
          "internalType": "address",
          "name": "newOwner",
          "type": "address"
        }
      ],
      "name": "transferOwnership",
      "outputs": [],
      "stateMutability": "nonpayable",
      "type": "function"
    }
  ],
  "transactionHash": "0xc9ed8bff0c94abb086f9f8e2e4b1ff4ad542238a03b2dacd3e1c357b2e2bd4db",
  "args": [],
  "solcInputHash": "7d96c760a79be08f01cb7d979fb31c63",
  "bytecode": "0x608060405267011c37937e080000600b556015600c553480156200002257600080fd5b506040518060400160405280600581526020017f4c656e69610000000000000000000000000000000000000000000000000000008152506040518060400160405280600581526020017f4c454e49410000000000000000000000000000000000000000000000000000008152508160009080519060200190620000a7929190620001d2565b508060019080519060200190620000c0929190620001d2565b505050620000e3620000d76200010460201b60201c565b6200010c60201b60201c565b6000600e60006101000a81548160ff021916908315150217905550620002e7565b600033905090565b6000600a60009054906101000a900473ffffffffffffffffffffffffffffffffffffffff16905081600a60006101000a81548173ffffffffffffffffffffffffffffffffffffffff021916908373ffffffffffffffffffffffffffffffffffffffff1602179055508173ffffffffffffffffffffffffffffffffffffffff168173ffffffffffffffffffffffffffffffffffffffff167f8be0079c531659141344cd1fd0a4f28419497f9722a3daafe3b4186f6b6457e060405160405180910390a35050565b828054620001e09062000282565b90600052602060002090601f01602090048101928262000204576000855562000250565b82601f106200021f57805160ff191683800117855562000250565b8280016001018555821562000250579182015b828111156200024f57825182559160200191906001019062000232565b5b5090506200025f919062000263565b5090565b5b808211156200027e57600081600090555060010162000264565b5090565b600060028204905060018216806200029b57607f821691505b60208210811415620002b257620002b1620002b8565b5b50919050565b7f4e487b7100000000000000000000000000000000000000000000000000000000600052602260045260246000fd5b6140e880620002f76000396000f3fe6080604052600436106101d85760003560e01c806370a0823111610102578063b0e1d7f311610095578063daa023aa11610064578063daa023aa146106b1578063e0c9fbc7146106dc578063e985e9c5146106f3578063f2fde38b14610730576101d8565b8063b0e1d7f3146105f7578063b88d4fde14610620578063c87b56dd14610649578063cb774d4714610686576101d8565b806391b7f5ed116100d157806391b7f5ed1461054f57806395d89b411461057857806398d5fdca146105a3578063a22cb465146105ce576101d8565b806370a0823114610493578063715018a6146104d05780638462151c146104e75780638da5cb5b14610524576101d8565b806323b872dd1161017a5780634f6ccce7116101495780634f6ccce7146103c557806355f804b3146104025780636352211e1461042b5780636c0360eb14610468576101d8565b806323b872dd1461030b5780632f745c591461033457806332cb6b0c1461037157806342842e0e1461039c576101d8565b8063095ea7b3116101b6578063095ea7b3146102825780631249c58b146102ab57806318160ddd146102b55780631c8b232d146102e0576101d8565b806301ffc9a7146101dd57806306fdde031461021a578063081812fc14610245575b600080fd5b3480156101e957600080fd5b5061020460048036038101906101ff9190612d64565b610759565b6040516102119190613360565b60405180910390f35b34801561022657600080fd5b5061022f61076b565b60405161023c919061337b565b60405180910390f35b34801561025157600080fd5b5061026c60048036038101906102679190612df7565b6107fd565b60405161027991906132d7565b60405180910390f35b34801561028e57600080fd5b506102a960048036038101906102a49190612d28565b610882565b005b6102b361099a565b005b3480156102c157600080fd5b506102ca610a98565b6040516102d7919061365d565b60405180910390f35b3480156102ec57600080fd5b506102f5610aa5565b6040516103029190613360565b60405180910390f35b34801561031757600080fd5b50610332600480360381019061032d9190612c22565b610abc565b005b34801561034057600080fd5b5061035b60048036038101906103569190612d28565b610b1c565b604051610368919061365d565b60405180910390f35b34801561037d57600080fd5b50610386610bc1565b604051610393919061365d565b60405180910390f35b3480156103a857600080fd5b506103c360048036038101906103be9190612c22565b610bc6565b005b3480156103d157600080fd5b506103ec60048036038101906103e79190612df7565b610be6565b6040516103f9919061365d565b60405180910390f35b34801561040e57600080fd5b5061042960048036038101906104249190612db6565b610c7d565b005b34801561043757600080fd5b50610452600480360381019061044d9190612df7565b610d13565b60405161045f91906132d7565b60405180910390f35b34801561047457600080fd5b5061047d610dc5565b60405161048a919061337b565b60405180910390f35b34801561049f57600080fd5b506104ba60048036038101906104b59190612bbd565b610e53565b6040516104c7919061365d565b60405180910390f35b3480156104dc57600080fd5b506104e5610f0b565b005b3480156104f357600080fd5b5061050e60048036038101906105099190612bbd565b610f93565b60405161051b919061333e565b60405180910390f35b34801561053057600080fd5b5061053961108d565b60405161054691906132d7565b60405180910390f35b34801561055b57600080fd5b5061057660048036038101906105719190612df7565b6110b7565b005b34801561058457600080fd5b5061058d61113d565b60405161059a919061337b565b60405180910390f35b3480156105af57600080fd5b506105b86111cf565b6040516105c5919061365d565b60405180910390f35b3480156105da57600080fd5b506105f560048036038101906105f09190612cec565b6111d9565b005b34801561060357600080fd5b5061061e60048036038101906106199190612e20565b61135a565b005b34801561062c57600080fd5b5061064760048036038101906106429190612c71565b611474565b005b34801561065557600080fd5b50610670600480360381019061066b9190612df7565b6114d6565b60405161067d919061337b565b60405180910390f35b34801561069257600080fd5b5061069b61157d565b6040516106a8919061365d565b60405180910390f35b3480156106bd57600080fd5b506106c6611583565b6040516106d3919061365d565b60405180910390f35b3480156106e857600080fd5b506106f161158d565b005b3480156106ff57600080fd5b5061071a60048036038101906107159190612be6565b611635565b6040516107279190613360565b60405180910390f35b34801561073c57600080fd5b5061075760048036038101906107529190612bbd565b6116c9565b005b6000610764826117c1565b9050919050565b60606000805461077a906138ec565b80601f01602080910402602001604051908101604052809291908181526020018280546107a6906138ec565b80156107f35780601f106107c8576101008083540402835291602001916107f3565b820191906000526020600020905b8154815290600101906020018083116107d657829003601f168201915b5050505050905090565b60006108088261183b565b610847576040517f08c379a000000000000000000000000000000000000000000000000000000000815260040161083e9061351d565b60405180910390fd5b6004600083815260200190815260200160002060009054906101000a900473ffffffffffffffffffffffffffffffffffffffff169050919050565b600061088d82610d13565b90508073ffffffffffffffffffffffffffffffffffffffff168373ffffffffffffffffffffffffffffffffffffffff1614156108fe576040517f08c379a00000000000000000000000000000000000000000000000000000000081526004016108f5906135bd565b60405180910390fd5b8073ffffffffffffffffffffffffffffffffffffffff1661091d6118a7565b73ffffffffffffffffffffffffffffffffffffffff16148061094c575061094b816109466118a7565b611635565b5b61098b576040517f08c379a00000000000000000000000000000000000000000000000000000000081526004016109829061349d565b60405180910390fd5b61099583836118af565b505050565b600e60009054906101000a900460ff166109e9576040517f08c379a00000000000000000000000000000000000000000000000000000000081526004016109e09061363d565b60405180910390fd5b60006109f3610a98565b9050600c5460d2610a049190613802565b811115610a46576040517f08c379a0000000000000000000000000000000000000000000000000000000008152600401610a3d9061359d565b60405180910390fd5b34600b541115610a8b576040517f08c379a0000000000000000000000000000000000000000000000000000000008152600401610a829061345d565b60405180910390fd5b610a953382611968565b50565b6000600880549050905090565b6000600e60009054906101000a900460ff16905090565b610acd610ac76118a7565b82611986565b610b0c576040517f08c379a0000000000000000000000000000000000000000000000000000000008152600401610b03906135fd565b60405180910390fd5b610b17838383611a64565b505050565b6000610b2783610e53565b8210610b68576040517f08c379a0000000000000000000000000000000000000000000000000000000008152600401610b5f9061339d565b60405180910390fd5b600660008473ffffffffffffffffffffffffffffffffffffffff1673ffffffffffffffffffffffffffffffffffffffff168152602001908152602001600020600083815260200190815260200160002054905092915050565b60d281565b610be183838360405180602001604052806000815250611474565b505050565b6000610bf0610a98565b8210610c31576040517f08c379a0000000000000000000000000000000000000000000000000000000008152600401610c289061361d565b60405180910390fd5b60088281548110610c6b577f4e487b7100000000000000000000000000000000000000000000000000000000600052603260045260246000fd5b90600052602060002001549050919050565b610c856118a7565b73ffffffffffffffffffffffffffffffffffffffff16610ca361108d565b73ffffffffffffffffffffffffffffffffffffffff1614610cf9576040517f08c379a0000000000000000000000000000000000000000000000000000000008152600401610cf09061353d565b60405180910390fd5b80600f9080519060200190610d0f9291906129e1565b5050565b6000806002600084815260200190815260200160002060009054906101000a900473ffffffffffffffffffffffffffffffffffffffff169050600073ffffffffffffffffffffffffffffffffffffffff168173ffffffffffffffffffffffffffffffffffffffff161415610dbc576040517f08c379a0000000000000000000000000000000000000000000000000000000008152600401610db3906134dd565b60405180910390fd5b80915050919050565b600f8054610dd2906138ec565b80601f0160208091040260200160405190810160405280929190818152602001828054610dfe906138ec565b8015610e4b5780601f10610e2057610100808354040283529160200191610e4b565b820191906000526020600020905b815481529060010190602001808311610e2e57829003601f168201915b505050505081565b60008073ffffffffffffffffffffffffffffffffffffffff168273ffffffffffffffffffffffffffffffffffffffff161415610ec4576040517f08c379a0000000000000000000000000000000000000000000000000000000008152600401610ebb906134bd565b60405180910390fd5b600360008373ffffffffffffffffffffffffffffffffffffffff1673ffffffffffffffffffffffffffffffffffffffff168152602001908152602001600020549050919050565b610f136118a7565b73ffffffffffffffffffffffffffffffffffffffff16610f3161108d565b73ffffffffffffffffffffffffffffffffffffffff1614610f87576040517f08c379a0000000000000000000000000000000000000000000000000000000008152600401610f7e9061353d565b60405180910390fd5b610f916000611cc0565b565b60606000610fa083610e53565b905060008167ffffffffffffffff811115610fe4577f4e487b7100000000000000000000000000000000000000000000000000000000600052604160045260246000fd5b6040519080825280602002602001820160405280156110125781602001602082028036833780820191505090505b50905060005b828110156110825761102a8582610b1c565b828281518110611063577f4e487b7100000000000000000000000000000000000000000000000000000000600052603260045260246000fd5b602002602001018181525050808061107a9061394f565b915050611018565b508092505050919050565b6000600a60009054906101000a900473ffffffffffffffffffffffffffffffffffffffff16905090565b6110bf6118a7565b73ffffffffffffffffffffffffffffffffffffffff166110dd61108d565b73ffffffffffffffffffffffffffffffffffffffff1614611133576040517f08c379a000000000000000000000000000000000000000000000000000000000815260040161112a9061353d565b60405180910390fd5b80600b8190555050565b60606001805461114c906138ec565b80601f0160208091040260200160405190810160405280929190818152602001828054611178906138ec565b80156111c55780601f1061119a576101008083540402835291602001916111c5565b820191906000526020600020905b8154815290600101906020018083116111a857829003601f168201915b5050505050905090565b6000600b54905090565b6111e16118a7565b73ffffffffffffffffffffffffffffffffffffffff168273ffffffffffffffffffffffffffffffffffffffff16141561124f576040517f08c379a00000000000000000000000000000000000000000000000000000000081526004016112469061343d565b60405180910390fd5b806005600061125c6118a7565b73ffffffffffffffffffffffffffffffffffffffff1673ffffffffffffffffffffffffffffffffffffffff16815260200190815260200160002060008473ffffffffffffffffffffffffffffffffffffffff1673ffffffffffffffffffffffffffffffffffffffff16815260200190815260200160002060006101000a81548160ff0219169083151502179055508173ffffffffffffffffffffffffffffffffffffffff166113096118a7565b73ffffffffffffffffffffffffffffffffffffffff167f17307eab39ab6107e8899845ad3d59bd9653f200f220920489ca2b5937696c318360405161134e9190613360565b60405180910390a35050565b6113626118a7565b73ffffffffffffffffffffffffffffffffffffffff1661138061108d565b73ffffffffffffffffffffffffffffffffffffffff16146113d6576040517f08c379a00000000000000000000000000000000000000000000000000000000081526004016113cd9061353d565b60405180910390fd5b600c5482111561141b576040517f08c379a0000000000000000000000000000000000000000000000000000000008152600401611412906135dd565b60405180910390fd5b6000611425610a98565b905060005b8381101561145a57611447838284611442919061377b565b611968565b80806114529061394f565b91505061142a565b5082600c546114699190613802565b600c81905550505050565b61148561147f6118a7565b83611986565b6114c4576040517f08c379a00000000000000000000000000000000000000000000000000000000081526004016114bb906135fd565b60405180910390fd5b6114d084848484611d86565b50505050565b60606114e18261183b565b611520576040517f08c379a00000000000000000000000000000000000000000000000000000000081526004016115179061357d565b60405180910390fd5b600061152a611de2565b9050600081511161154a5760405180602001604052806000815250611575565b8061155484611e74565b6040516020016115659291906132b3565b6040516020818303038152906040525b915050919050565b600d5481565b6000600c54905090565b6115956118a7565b73ffffffffffffffffffffffffffffffffffffffff166115b361108d565b73ffffffffffffffffffffffffffffffffffffffff1614611609576040517f08c379a00000000000000000000000000000000000000000000000000000000081526004016116009061353d565b60405180910390fd5b600e60009054906101000a900460ff1615600e60006101000a81548160ff021916908315150217905550565b6000600560008473ffffffffffffffffffffffffffffffffffffffff1673ffffffffffffffffffffffffffffffffffffffff16815260200190815260200160002060008373ffffffffffffffffffffffffffffffffffffffff1673ffffffffffffffffffffffffffffffffffffffff16815260200190815260200160002060009054906101000a900460ff16905092915050565b6116d16118a7565b73ffffffffffffffffffffffffffffffffffffffff166116ef61108d565b73ffffffffffffffffffffffffffffffffffffffff1614611745576040517f08c379a000000000000000000000000000000000000000000000000000000000815260040161173c9061353d565b60405180910390fd5b600073ffffffffffffffffffffffffffffffffffffffff168173ffffffffffffffffffffffffffffffffffffffff1614156117b5576040517f08c379a00000000000000000000000000000000000000000000000000000000081526004016117ac906133dd565b60405180910390fd5b6117be81611cc0565b50565b60007f780e9d63000000000000000000000000000000000000000000000000000000007bffffffffffffffffffffffffffffffffffffffffffffffffffffffff1916827bffffffffffffffffffffffffffffffffffffffffffffffffffffffff19161480611834575061183382612021565b5b9050919050565b60008073ffffffffffffffffffffffffffffffffffffffff166002600084815260200190815260200160002060009054906101000a900473ffffffffffffffffffffffffffffffffffffffff1673ffffffffffffffffffffffffffffffffffffffff1614159050919050565b600033905090565b816004600083815260200190815260200160002060006101000a81548173ffffffffffffffffffffffffffffffffffffffff021916908373ffffffffffffffffffffffffffffffffffffffff160217905550808273ffffffffffffffffffffffffffffffffffffffff1661192283610d13565b73ffffffffffffffffffffffffffffffffffffffff167f8c5be1e5ebec7d5bd14f71427d1e84f3dd0314c0f7b2291e5b200ac8c7c3b92560405160405180910390a45050565b611982828260405180602001604052806000815250612103565b5050565b60006119918261183b565b6119d0576040517f08c379a00000000000000000000000000000000000000000000000000000000081526004016119c79061347d565b60405180910390fd5b60006119db83610d13565b90508073ffffffffffffffffffffffffffffffffffffffff168473ffffffffffffffffffffffffffffffffffffffff161480611a4a57508373ffffffffffffffffffffffffffffffffffffffff16611a32846107fd565b73ffffffffffffffffffffffffffffffffffffffff16145b80611a5b5750611a5a8185611635565b5b91505092915050565b8273ffffffffffffffffffffffffffffffffffffffff16611a8482610d13565b73ffffffffffffffffffffffffffffffffffffffff1614611ada576040517f08c379a0000000000000000000000000000000000000000000000000000000008152600401611ad19061355d565b60405180910390fd5b600073ffffffffffffffffffffffffffffffffffffffff168273ffffffffffffffffffffffffffffffffffffffff161415611b4a576040517f08c379a0000000000000000000000000000000000000000000000000000000008152600401611b419061341d565b60405180910390fd5b611b5583838361215e565b611b606000826118af565b6001600360008573ffffffffffffffffffffffffffffffffffffffff1673ffffffffffffffffffffffffffffffffffffffff1681526020019081526020016000206000828254611bb09190613802565b925050819055506001600360008473ffffffffffffffffffffffffffffffffffffffff1673ffffffffffffffffffffffffffffffffffffffff1681526020019081526020016000206000828254611c07919061377b565b92505081905550816002600083815260200190815260200160002060006101000a81548173ffffffffffffffffffffffffffffffffffffffff021916908373ffffffffffffffffffffffffffffffffffffffff160217905550808273ffffffffffffffffffffffffffffffffffffffff168473ffffffffffffffffffffffffffffffffffffffff167fddf252ad1be2c89b69c2b068fc378daa952ba7f163c4a11628f55a4df523b3ef60405160405180910390a4505050565b6000600a60009054906101000a900473ffffffffffffffffffffffffffffffffffffffff16905081600a60006101000a81548173ffffffffffffffffffffffffffffffffffffffff021916908373ffffffffffffffffffffffffffffffffffffffff1602179055508173ffffffffffffffffffffffffffffffffffffffff168173ffffffffffffffffffffffffffffffffffffffff167f8be0079c531659141344cd1fd0a4f28419497f9722a3daafe3b4186f6b6457e060405160405180910390a35050565b611d91848484611a64565b611d9d8484848461216e565b611ddc576040517f08c379a0000000000000000000000000000000000000000000000000000000008152600401611dd3906133bd565b60405180910390fd5b50505050565b6060600f8054611df1906138ec565b80601f0160208091040260200160405190810160405280929190818152602001828054611e1d906138ec565b8015611e6a5780601f10611e3f57610100808354040283529160200191611e6a565b820191906000526020600020905b815481529060010190602001808311611e4d57829003601f168201915b5050505050905090565b60606000821415611ebc576040518060400160405280600181526020017f3000000000000000000000000000000000000000000000000000000000000000815250905061201c565b600082905060005b60008214611eee578080611ed79061394f565b915050600a82611ee791906137d1565b9150611ec4565b60008167ffffffffffffffff811115611f30577f4e487b7100000000000000000000000000000000000000000000000000000000600052604160045260246000fd5b6040519080825280601f01601f191660200182016040528015611f625781602001600182028036833780820191505090505b5090505b6000851461201557600182611f7b9190613802565b9150600a85611f8a9190613998565b6030611f96919061377b565b60f81b818381518110611fd2577f4e487b7100000000000000000000000000000000000000000000000000000000600052603260045260246000fd5b60200101907effffffffffffffffffffffffffffffffffffffffffffffffffffffffffffff1916908160001a905350600a8561200e91906137d1565b9450611f66565b8093505050505b919050565b60007f80ac58cd000000000000000000000000000000000000000000000000000000007bffffffffffffffffffffffffffffffffffffffffffffffffffffffff1916827bffffffffffffffffffffffffffffffffffffffffffffffffffffffff191614806120ec57507f5b5e139f000000000000000000000000000000000000000000000000000000007bffffffffffffffffffffffffffffffffffffffffffffffffffffffff1916827bffffffffffffffffffffffffffffffffffffffffffffffffffffffff1916145b806120fc57506120fb82612305565b5b9050919050565b61210d838361236f565b61211a600084848461216e565b612159576040517f08c379a0000000000000000000000000000000000000000000000000000000008152600401612150906133bd565b60405180910390fd5b505050565b61216983838361253d565b505050565b600061218f8473ffffffffffffffffffffffffffffffffffffffff16612651565b156122f8578373ffffffffffffffffffffffffffffffffffffffff1663150b7a026121b86118a7565b8786866040518563ffffffff1660e01b81526004016121da94939291906132f2565b602060405180830381600087803b1580156121f457600080fd5b505af192505050801561222557506040513d601f19601f820116820180604052508101906122229190612d8d565b60015b6122a8573d8060008114612255576040519150601f19603f3d011682016040523d82523d6000602084013e61225a565b606091505b506000815114156122a0576040517f08c379a0000000000000000000000000000000000000000000000000000000008152600401612297906133bd565b60405180910390fd5b805181602001fd5b63150b7a0260e01b7bffffffffffffffffffffffffffffffffffffffffffffffffffffffff1916817bffffffffffffffffffffffffffffffffffffffffffffffffffffffff1916149150506122fd565b600190505b949350505050565b60007f01ffc9a7000000000000000000000000000000000000000000000000000000007bffffffffffffffffffffffffffffffffffffffffffffffffffffffff1916827bffffffffffffffffffffffffffffffffffffffffffffffffffffffff1916149050919050565b600073ffffffffffffffffffffffffffffffffffffffff168273ffffffffffffffffffffffffffffffffffffffff1614156123df576040517f08c379a00000000000000000000000000000000000000000000000000000000081526004016123d6906134fd565b60405180910390fd5b6123e88161183b565b15612428576040517f08c379a000000000000000000000000000000000000000000000000000000000815260040161241f906133fd565b60405180910390fd5b6124346000838361215e565b6001600360008473ffffffffffffffffffffffffffffffffffffffff1673ffffffffffffffffffffffffffffffffffffffff1681526020019081526020016000206000828254612484919061377b565b92505081905550816002600083815260200190815260200160002060006101000a81548173ffffffffffffffffffffffffffffffffffffffff021916908373ffffffffffffffffffffffffffffffffffffffff160217905550808273ffffffffffffffffffffffffffffffffffffffff16600073ffffffffffffffffffffffffffffffffffffffff167fddf252ad1be2c89b69c2b068fc378daa952ba7f163c4a11628f55a4df523b3ef60405160405180910390a45050565b612548838383612664565b600073ffffffffffffffffffffffffffffffffffffffff168373ffffffffffffffffffffffffffffffffffffffff16141561258b5761258681612669565b6125ca565b8173ffffffffffffffffffffffffffffffffffffffff168373ffffffffffffffffffffffffffffffffffffffff16146125c9576125c883826126b2565b5b5b600073ffffffffffffffffffffffffffffffffffffffff168273ffffffffffffffffffffffffffffffffffffffff16141561260d576126088161281f565b61264c565b8273ffffffffffffffffffffffffffffffffffffffff168273ffffffffffffffffffffffffffffffffffffffff161461264b5761264a8282612962565b5b5b505050565b600080823b905060008111915050919050565b505050565b6008805490506009600083815260200190815260200160002081905550600881908060018154018082558091505060019003906000526020600020016000909190919091505550565b600060016126bf84610e53565b6126c99190613802565b90506000600760008481526020019081526020016000205490508181146127ae576000600660008673ffffffffffffffffffffffffffffffffffffffff1673ffffffffffffffffffffffffffffffffffffffff168152602001908152602001600020600084815260200190815260200160002054905080600660008773ffffffffffffffffffffffffffffffffffffffff1673ffffffffffffffffffffffffffffffffffffffff168152602001908152602001600020600084815260200190815260200160002081905550816007600083815260200190815260200160002081905550505b6007600084815260200190815260200160002060009055600660008573ffffffffffffffffffffffffffffffffffffffff1673ffffffffffffffffffffffffffffffffffffffff16815260200190815260200160002060008381526020019081526020016000206000905550505050565b600060016008805490506128339190613802565b9050600060096000848152602001908152602001600020549050600060088381548110612889577f4e487b7100000000000000000000000000000000000000000000000000000000600052603260045260246000fd5b9060005260206000200154905080600883815481106128d1577f4e487b7100000000000000000000000000000000000000000000000000000000600052603260045260246000fd5b906000526020600020018190555081600960008381526020019081526020016000208190555060096000858152602001908152602001600020600090556008805480612946577f4e487b7100000000000000000000000000000000000000000000000000000000600052603160045260246000fd5b6001900381819060005260206000200160009055905550505050565b600061296d83610e53565b905081600660008573ffffffffffffffffffffffffffffffffffffffff1673ffffffffffffffffffffffffffffffffffffffff168152602001908152602001600020600083815260200190815260200160002081905550806007600084815260200190815260200160002081905550505050565b8280546129ed906138ec565b90600052602060002090601f016020900481019282612a0f5760008555612a56565b82601f10612a2857805160ff1916838001178555612a56565b82800160010185558215612a56579182015b82811115612a55578251825591602001919060010190612a3a565b5b509050612a639190612a67565b5090565b5b80821115612a80576000816000905550600101612a68565b5090565b6000612a97612a928461369d565b613678565b905082815260208101848484011115612aaf57600080fd5b612aba8482856138aa565b509392505050565b6000612ad5612ad0846136ce565b613678565b905082815260208101848484011115612aed57600080fd5b612af88482856138aa565b509392505050565b600081359050612b0f81614056565b92915050565b600081359050612b248161406d565b92915050565b600081359050612b3981614084565b92915050565b600081519050612b4e81614084565b92915050565b600082601f830112612b6557600080fd5b8135612b75848260208601612a84565b91505092915050565b600082601f830112612b8f57600080fd5b8135612b9f848260208601612ac2565b91505092915050565b600081359050612bb78161409b565b92915050565b600060208284031215612bcf57600080fd5b6000612bdd84828501612b00565b91505092915050565b60008060408385031215612bf957600080fd5b6000612c0785828601612b00565b9250506020612c1885828601612b00565b9150509250929050565b600080600060608486031215612c3757600080fd5b6000612c4586828701612b00565b9350506020612c5686828701612b00565b9250506040612c6786828701612ba8565b9150509250925092565b60008060008060808587031215612c8757600080fd5b6000612c9587828801612b00565b9450506020612ca687828801612b00565b9350506040612cb787828801612ba8565b925050606085013567ffffffffffffffff811115612cd457600080fd5b612ce087828801612b54565b91505092959194509250565b60008060408385031215612cff57600080fd5b6000612d0d85828601612b00565b9250506020612d1e85828601612b15565b9150509250929050565b60008060408385031215612d3b57600080fd5b6000612d4985828601612b00565b9250506020612d5a85828601612ba8565b9150509250929050565b600060208284031215612d7657600080fd5b6000612d8484828501612b2a565b91505092915050565b600060208284031215612d9f57600080fd5b6000612dad84828501612b3f565b91505092915050565b600060208284031215612dc857600080fd5b600082013567ffffffffffffffff811115612de257600080fd5b612dee84828501612b7e565b91505092915050565b600060208284031215612e0957600080fd5b6000612e1784828501612ba8565b91505092915050565b60008060408385031215612e3357600080fd5b6000612e4185828601612ba8565b9250506020612e5285828601612b00565b9150509250929050565b6000612e688383613295565b60208301905092915050565b612e7d81613836565b82525050565b6000612e8e8261370f565b612e98818561373d565b9350612ea3836136ff565b8060005b83811015612ed4578151612ebb8882612e5c565b9750612ec683613730565b925050600181019050612ea7565b5085935050505092915050565b612eea81613848565b82525050565b6000612efb8261371a565b612f05818561374e565b9350612f158185602086016138b9565b612f1e81613a85565b840191505092915050565b6000612f3482613725565b612f3e818561375f565b9350612f4e8185602086016138b9565b612f5781613a85565b840191505092915050565b6000612f6d82613725565b612f778185613770565b9350612f878185602086016138b9565b80840191505092915050565b6000612fa0602b8361375f565b9150612fab82613a96565b604082019050919050565b6000612fc360328361375f565b9150612fce82613ae5565b604082019050919050565b6000612fe660268361375f565b9150612ff182613b34565b604082019050919050565b6000613009601c8361375f565b915061301482613b83565b602082019050919050565b600061302c60248361375f565b915061303782613bac565b604082019050919050565b600061304f60198361375f565b915061305a82613bfb565b602082019050919050565b600061307260198361375f565b915061307d82613c24565b602082019050919050565b6000613095602c8361375f565b91506130a082613c4d565b604082019050919050565b60006130b860388361375f565b91506130c382613c9c565b604082019050919050565b60006130db602a8361375f565b91506130e682613ceb565b604082019050919050565b60006130fe60298361375f565b915061310982613d3a565b604082019050919050565b600061312160208361375f565b915061312c82613d89565b602082019050919050565b6000613144602c8361375f565b915061314f82613db2565b604082019050919050565b600061316760208361375f565b915061317282613e01565b602082019050919050565b600061318a60298361375f565b915061319582613e2a565b604082019050919050565b60006131ad602f8361375f565b91506131b882613e79565b604082019050919050565b60006131d060148361375f565b91506131db82613ec8565b602082019050919050565b60006131f360218361375f565b91506131fe82613ef1565b604082019050919050565b600061321660238361375f565b915061322182613f40565b604082019050919050565b600061323960318361375f565b915061324482613f8f565b604082019050919050565b600061325c602c8361375f565b915061326782613fde565b604082019050919050565b600061327f601f8361375f565b915061328a8261402d565b602082019050919050565b61329e816138a0565b82525050565b6132ad816138a0565b82525050565b60006132bf8285612f62565b91506132cb8284612f62565b91508190509392505050565b60006020820190506132ec6000830184612e74565b92915050565b60006080820190506133076000830187612e74565b6133146020830186612e74565b61332160408301856132a4565b81810360608301526133338184612ef0565b905095945050505050565b600060208201905081810360008301526133588184612e83565b905092915050565b60006020820190506133756000830184612ee1565b92915050565b600060208201905081810360008301526133958184612f29565b905092915050565b600060208201905081810360008301526133b681612f93565b9050919050565b600060208201905081810360008301526133d681612fb6565b9050919050565b600060208201905081810360008301526133f681612fd9565b9050919050565b6000602082019050818103600083015261341681612ffc565b9050919050565b600060208201905081810360008301526134368161301f565b9050919050565b6000602082019050818103600083015261345681613042565b9050919050565b6000602082019050818103600083015261347681613065565b9050919050565b6000602082019050818103600083015261349681613088565b9050919050565b600060208201905081810360008301526134b6816130ab565b9050919050565b600060208201905081810360008301526134d6816130ce565b9050919050565b600060208201905081810360008301526134f6816130f1565b9050919050565b6000602082019050818103600083015261351681613114565b9050919050565b6000602082019050818103600083015261353681613137565b9050919050565b600060208201905081810360008301526135568161315a565b9050919050565b600060208201905081810360008301526135768161317d565b9050919050565b60006020820190508181036000830152613596816131a0565b9050919050565b600060208201905081810360008301526135b6816131c3565b9050919050565b600060208201905081810360008301526135d6816131e6565b9050919050565b600060208201905081810360008301526135f681613209565b9050919050565b600060208201905081810360008301526136168161322c565b9050919050565b600060208201905081810360008301526136368161324f565b9050919050565b6000602082019050818103600083015261365681613272565b9050919050565b600060208201905061367260008301846132a4565b92915050565b6000613682613693565b905061368e828261391e565b919050565b6000604051905090565b600067ffffffffffffffff8211156136b8576136b7613a56565b5b6136c182613a85565b9050602081019050919050565b600067ffffffffffffffff8211156136e9576136e8613a56565b5b6136f282613a85565b9050602081019050919050565b6000819050602082019050919050565b600081519050919050565b600081519050919050565b600081519050919050565b6000602082019050919050565b600082825260208201905092915050565b600082825260208201905092915050565b600082825260208201905092915050565b600081905092915050565b6000613786826138a0565b9150613791836138a0565b9250827fffffffffffffffffffffffffffffffffffffffffffffffffffffffffffffffff038211156137c6576137c56139c9565b5b828201905092915050565b60006137dc826138a0565b91506137e7836138a0565b9250826137f7576137f66139f8565b5b828204905092915050565b600061380d826138a0565b9150613818836138a0565b92508282101561382b5761382a6139c9565b5b828203905092915050565b600061384182613880565b9050919050565b60008115159050919050565b60007fffffffff0000000000000000000000000000000000000000000000000000000082169050919050565b600073ffffffffffffffffffffffffffffffffffffffff82169050919050565b6000819050919050565b82818337600083830152505050565b60005b838110156138d75780820151818401526020810190506138bc565b838111156138e6576000848401525b50505050565b6000600282049050600182168061390457607f821691505b6020821081141561391857613917613a27565b5b50919050565b61392782613a85565b810181811067ffffffffffffffff8211171561394657613945613a56565b5b80604052505050565b600061395a826138a0565b91507fffffffffffffffffffffffffffffffffffffffffffffffffffffffffffffffff82141561398d5761398c6139c9565b5b600182019050919050565b60006139a3826138a0565b91506139ae836138a0565b9250826139be576139bd6139f8565b5b828206905092915050565b7f4e487b7100000000000000000000000000000000000000000000000000000000600052601160045260246000fd5b7f4e487b7100000000000000000000000000000000000000000000000000000000600052601260045260246000fd5b7f4e487b7100000000000000000000000000000000000000000000000000000000600052602260045260246000fd5b7f4e487b7100000000000000000000000000000000000000000000000000000000600052604160045260246000fd5b6000601f19601f8301169050919050565b7f455243373231456e756d657261626c653a206f776e657220696e646578206f7560008201527f74206f6620626f756e6473000000000000000000000000000000000000000000602082015250565b7f4552433732313a207472616e7366657220746f206e6f6e20455243373231526560008201527f63656976657220696d706c656d656e7465720000000000000000000000000000602082015250565b7f4f776e61626c653a206e6577206f776e657220697320746865207a65726f206160008201527f6464726573730000000000000000000000000000000000000000000000000000602082015250565b7f4552433732313a20746f6b656e20616c7265616479206d696e74656400000000600082015250565b7f4552433732313a207472616e7366657220746f20746865207a65726f2061646460008201527f7265737300000000000000000000000000000000000000000000000000000000602082015250565b7f4552433732313a20617070726f766520746f2063616c6c657200000000000000600082015250565b7f496e636f6e73697374656e7420616d6f756e742073656e742100000000000000600082015250565b7f4552433732313a206f70657261746f7220717565727920666f72206e6f6e657860008201527f697374656e7420746f6b656e0000000000000000000000000000000000000000602082015250565b7f4552433732313a20617070726f76652063616c6c6572206973206e6f74206f7760008201527f6e6572206e6f7220617070726f76656420666f7220616c6c0000000000000000602082015250565b7f4552433732313a2062616c616e636520717565727920666f7220746865207a6560008201527f726f206164647265737300000000000000000000000000000000000000000000602082015250565b7f4552433732313a206f776e657220717565727920666f72206e6f6e657869737460008201527f656e7420746f6b656e0000000000000000000000000000000000000000000000602082015250565b7f4552433732313a206d696e7420746f20746865207a65726f2061646472657373600082015250565b7f4552433732313a20617070726f76656420717565727920666f72206e6f6e657860008201527f697374656e7420746f6b656e0000000000000000000000000000000000000000602082015250565b7f4f776e61626c653a2063616c6c6572206973206e6f7420746865206f776e6572600082015250565b7f4552433732313a207472616e73666572206f6620746f6b656e2074686174206960008201527f73206e6f74206f776e0000000000000000000000000000000000000000000000602082015250565b7f4552433732314d657461646174613a2055524920717565727920666f72206e6f60008201527f6e6578697374656e7420746f6b656e0000000000000000000000000000000000602082015250565b7f546f6b656e732061726520736f6c64206f757421000000000000000000000000600082015250565b7f4552433732313a20617070726f76616c20746f2063757272656e74206f776e6560008201527f7200000000000000000000000000000000000000000000000000000000000000602082015250565b7f5468617420776f756c642065786365656420746865206d61782072657365727660008201527f65642e0000000000000000000000000000000000000000000000000000000000602082015250565b7f4552433732313a207472616e736665722063616c6c6572206973206e6f74206f60008201527f776e6572206e6f7220617070726f766564000000000000000000000000000000602082015250565b7f455243373231456e756d657261626c653a20676c6f62616c20696e646578206f60008201527f7574206f6620626f756e64730000000000000000000000000000000000000000602082015250565b7f5072696d6172792073616c65206861736e277420737461727465642079657400600082015250565b61405f81613836565b811461406a57600080fd5b50565b61407681613848565b811461408157600080fd5b50565b61408d81613854565b811461409857600080fd5b50565b6140a4816138a0565b81146140af57600080fd5b5056fea2646970667358221220555f12a41a7d0f9df106791f0f7df7ac5c2de90ef2a85fd3154bc211ed26b9e864736f6c63430008040033",
  "devdoc": {
    "kind": "dev",
    "methods": {
      "approve(address,uint256)": {
        "details": "See {IERC721-approve}."
      },
      "balanceOf(address)": {
        "details": "See {IERC721-balanceOf}."
      },
      "getApproved(uint256)": {
        "details": "See {IERC721-getApproved}."
      },
      "isApprovedForAll(address,address)": {
        "details": "See {IERC721-isApprovedForAll}."
      },
      "name()": {
        "details": "See {IERC721Metadata-name}."
      },
      "owner()": {
        "details": "Returns the address of the current owner."
      },
      "ownerOf(uint256)": {
        "details": "See {IERC721-ownerOf}."
      },
      "renounceOwnership()": {
        "details": "Leaves the contract without owner. It will not be possible to call `onlyOwner` functions anymore. Can only be called by the current owner. NOTE: Renouncing ownership will leave the contract without an owner, thereby removing any functionality that is only available to the owner."
      },
      "safeTransferFrom(address,address,uint256)": {
        "details": "See {IERC721-safeTransferFrom}."
      },
      "safeTransferFrom(address,address,uint256,bytes)": {
        "details": "See {IERC721-safeTransferFrom}."
      },
      "setApprovalForAll(address,bool)": {
        "details": "See {IERC721-setApprovalForAll}."
      },
      "symbol()": {
        "details": "See {IERC721Metadata-symbol}."
      },
      "tokenByIndex(uint256)": {
        "details": "See {IERC721Enumerable-tokenByIndex}."
      },
      "tokenOfOwnerByIndex(address,uint256)": {
        "details": "See {IERC721Enumerable-tokenOfOwnerByIndex}."
      },
      "tokenURI(uint256)": {
        "details": "See {IERC721Metadata-tokenURI}."
      },
      "totalSupply()": {
        "details": "See {IERC721Enumerable-totalSupply}."
      },
      "transferFrom(address,address,uint256)": {
        "details": "See {IERC721-transferFrom}."
      },
      "transferOwnership(address)": {
        "details": "Transfers ownership of the contract to a new account (`newOwner`). Can only be called by the current owner."
      }
    },
    "version": 1
  },
  "userdoc": {
    "kind": "user",
    "methods": {},
    "version": 1
  },
  "storageLayout": {
    "storage": [
      {
        "astId": 129,
        "contract": "contracts/Lenia.sol:Lenia",
        "label": "_name",
        "offset": 0,
        "slot": "0",
        "type": "t_string_storage"
      },
      {
        "astId": 131,
        "contract": "contracts/Lenia.sol:Lenia",
        "label": "_symbol",
        "offset": 0,
        "slot": "1",
        "type": "t_string_storage"
      },
      {
        "astId": 135,
        "contract": "contracts/Lenia.sol:Lenia",
        "label": "_owners",
        "offset": 0,
        "slot": "2",
        "type": "t_mapping(t_uint256,t_address)"
      },
      {
        "astId": 139,
        "contract": "contracts/Lenia.sol:Lenia",
        "label": "_balances",
        "offset": 0,
        "slot": "3",
        "type": "t_mapping(t_address,t_uint256)"
      },
      {
        "astId": 143,
        "contract": "contracts/Lenia.sol:Lenia",
        "label": "_tokenApprovals",
        "offset": 0,
        "slot": "4",
        "type": "t_mapping(t_uint256,t_address)"
      },
      {
        "astId": 149,
        "contract": "contracts/Lenia.sol:Lenia",
        "label": "_operatorApprovals",
        "offset": 0,
        "slot": "5",
        "type": "t_mapping(t_address,t_mapping(t_address,t_bool))"
      },
      {
        "astId": 1068,
        "contract": "contracts/Lenia.sol:Lenia",
        "label": "_ownedTokens",
        "offset": 0,
        "slot": "6",
        "type": "t_mapping(t_address,t_mapping(t_uint256,t_uint256))"
      },
      {
        "astId": 1072,
        "contract": "contracts/Lenia.sol:Lenia",
        "label": "_ownedTokensIndex",
        "offset": 0,
        "slot": "7",
        "type": "t_mapping(t_uint256,t_uint256)"
      },
      {
        "astId": 1075,
        "contract": "contracts/Lenia.sol:Lenia",
        "label": "_allTokens",
        "offset": 0,
        "slot": "8",
        "type": "t_array(t_uint256)dyn_storage"
      },
      {
        "astId": 1079,
        "contract": "contracts/Lenia.sol:Lenia",
        "label": "_allTokensIndex",
        "offset": 0,
        "slot": "9",
        "type": "t_mapping(t_uint256,t_uint256)"
      },
      {
        "astId": 7,
        "contract": "contracts/Lenia.sol:Lenia",
        "label": "_owner",
        "offset": 0,
        "slot": "10",
        "type": "t_address"
      },
      {
        "astId": 2337,
        "contract": "contracts/Lenia.sol:Lenia",
        "label": "_price",
        "offset": 0,
        "slot": "11",
        "type": "t_uint256"
      },
      {
        "astId": 2340,
        "contract": "contracts/Lenia.sol:Lenia",
        "label": "_reserved",
        "offset": 0,
        "slot": "12",
        "type": "t_uint256"
      },
      {
        "astId": 2342,
        "contract": "contracts/Lenia.sol:Lenia",
        "label": "startingIndex",
        "offset": 0,
        "slot": "13",
        "type": "t_uint256"
      },
      {
        "astId": 2344,
        "contract": "contracts/Lenia.sol:Lenia",
        "label": "_hasSaleStarted",
        "offset": 0,
        "slot": "14",
        "type": "t_bool"
      },
      {
        "astId": 2346,
        "contract": "contracts/Lenia.sol:Lenia",
        "label": "baseURI",
        "offset": 0,
        "slot": "15",
        "type": "t_string_storage"
      }
    ],
    "types": {
      "t_address": {
        "encoding": "inplace",
        "label": "address",
        "numberOfBytes": "20"
      },
      "t_array(t_uint256)dyn_storage": {
        "base": "t_uint256",
        "encoding": "dynamic_array",
        "label": "uint256[]",
        "numberOfBytes": "32"
      },
      "t_bool": {
        "encoding": "inplace",
        "label": "bool",
        "numberOfBytes": "1"
      },
      "t_mapping(t_address,t_bool)": {
        "encoding": "mapping",
        "key": "t_address",
        "label": "mapping(address => bool)",
        "numberOfBytes": "32",
        "value": "t_bool"
      },
      "t_mapping(t_address,t_mapping(t_address,t_bool))": {
        "encoding": "mapping",
        "key": "t_address",
        "label": "mapping(address => mapping(address => bool))",
        "numberOfBytes": "32",
        "value": "t_mapping(t_address,t_bool)"
      },
      "t_mapping(t_address,t_mapping(t_uint256,t_uint256))": {
        "encoding": "mapping",
        "key": "t_address",
        "label": "mapping(address => mapping(uint256 => uint256))",
        "numberOfBytes": "32",
        "value": "t_mapping(t_uint256,t_uint256)"
      },
      "t_mapping(t_address,t_uint256)": {
        "encoding": "mapping",
        "key": "t_address",
        "label": "mapping(address => uint256)",
        "numberOfBytes": "32",
        "value": "t_uint256"
      },
      "t_mapping(t_uint256,t_address)": {
        "encoding": "mapping",
        "key": "t_uint256",
        "label": "mapping(uint256 => address)",
        "numberOfBytes": "32",
        "value": "t_address"
      },
      "t_mapping(t_uint256,t_uint256)": {
        "encoding": "mapping",
        "key": "t_uint256",
        "label": "mapping(uint256 => uint256)",
        "numberOfBytes": "32",
        "value": "t_uint256"
      },
      "t_string_storage": {
        "encoding": "bytes",
        "label": "string",
        "numberOfBytes": "32"
      },
      "t_uint256": {
        "encoding": "inplace",
        "label": "uint256",
        "numberOfBytes": "32"
      }
    }
  }
}