{
  "_format": "hh-sol-artifact-1",
  "contractName": "Lenia",
  "sourceName": "contracts/Lenia.sol",
  "abi": [
    {
      "inputs": [],
      "stateMutability": "nonpayable",
      "type": "constructor"
    },
    {
      "anonymous": false,
      "inputs": [
        {
          "indexed": true,
          "internalType": "address",
          "name": "owner",
          "type": "address"
        },
        {
          "indexed": true,
          "internalType": "address",
          "name": "approved",
          "type": "address"
        },
        {
          "indexed": true,
          "internalType": "uint256",
          "name": "tokenId",
          "type": "uint256"
        }
      ],
      "name": "Approval",
      "type": "event"
    },
    {
      "anonymous": false,
      "inputs": [
        {
          "indexed": true,
          "internalType": "address",
          "name": "owner",
          "type": "address"
        },
        {
          "indexed": true,
          "internalType": "address",
          "name": "operator",
          "type": "address"
        },
        {
          "indexed": false,
          "internalType": "bool",
          "name": "approved",
          "type": "bool"
        }
      ],
      "name": "ApprovalForAll",
      "type": "event"
    },
    {
      "anonymous": false,
      "inputs": [
        {
          "indexed": true,
          "internalType": "address",
          "name": "previousOwner",
          "type": "address"
        },
        {
          "indexed": true,
          "internalType": "address",
          "name": "newOwner",
          "type": "address"
        }
      ],
      "name": "OwnershipTransferred",
      "type": "event"
    },
    {
      "anonymous": false,
      "inputs": [
        {
          "indexed": true,
          "internalType": "address",
          "name": "from",
          "type": "address"
        },
        {
          "indexed": true,
          "internalType": "address",
          "name": "to",
          "type": "address"
        },
        {
          "indexed": true,
          "internalType": "uint256",
          "name": "tokenId",
          "type": "uint256"
        }
      ],
      "name": "Transfer",
      "type": "event"
    },
    {
      "inputs": [],
      "name": "MAX_SUPPLY",
      "outputs": [
        {
          "internalType": "uint256",
          "name": "",
          "type": "uint256"
        }
      ],
      "stateMutability": "view",
      "type": "function"
    },
    {
      "inputs": [
        {
          "internalType": "address",
          "name": "to",
          "type": "address"
        },
        {
          "internalType": "uint256",
          "name": "tokenId",
          "type": "uint256"
        }
      ],
      "name": "approve",
      "outputs": [],
      "stateMutability": "nonpayable",
      "type": "function"
    },
    {
      "inputs": [
        {
          "internalType": "address",
          "name": "owner",
          "type": "address"
        }
      ],
      "name": "balanceOf",
      "outputs": [
        {
          "internalType": "uint256",
          "name": "",
          "type": "uint256"
        }
      ],
      "stateMutability": "view",
      "type": "function"
    },
    {
      "inputs": [],
      "name": "baseURI",
      "outputs": [
        {
          "internalType": "string",
          "name": "",
          "type": "string"
        }
      ],
      "stateMutability": "view",
      "type": "function"
    },
    {
      "inputs": [
        {
          "internalType": "uint256",
          "name": "_number",
          "type": "uint256"
        },
        {
          "internalType": "address",
          "name": "_receiver",
          "type": "address"
        }
      ],
      "name": "claimReserved",
      "outputs": [],
      "stateMutability": "nonpayable",
      "type": "function"
    },
    {
      "inputs": [],
      "name": "flipHasSaleStarted",
      "outputs": [],
      "stateMutability": "nonpayable",
      "type": "function"
    },
    {
      "inputs": [
        {
          "internalType": "uint256",
          "name": "tokenId",
          "type": "uint256"
        }
      ],
      "name": "getApproved",
      "outputs": [
        {
          "internalType": "address",
          "name": "",
          "type": "address"
        }
      ],
      "stateMutability": "view",
      "type": "function"
    },
    {
      "inputs": [],
      "name": "getPrice",
      "outputs": [
        {
          "internalType": "uint256",
          "name": "",
          "type": "uint256"
        }
      ],
      "stateMutability": "view",
      "type": "function"
    },
    {
      "inputs": [],
      "name": "getReservedLeft",
      "outputs": [
        {
          "internalType": "uint256",
          "name": "",
          "type": "uint256"
        }
      ],
      "stateMutability": "view",
      "type": "function"
    },
    {
      "inputs": [],
      "name": "hasSaleStarted",
      "outputs": [
        {
          "internalType": "bool",
          "name": "",
          "type": "bool"
        }
      ],
      "stateMutability": "view",
      "type": "function"
    },
    {
      "inputs": [
        {
          "internalType": "address",
          "name": "owner",
          "type": "address"
        },
        {
          "internalType": "address",
          "name": "operator",
          "type": "address"
        }
      ],
      "name": "isApprovedForAll",
      "outputs": [
        {
          "internalType": "bool",
          "name": "",
          "type": "bool"
        }
      ],
      "stateMutability": "view",
      "type": "function"
    },
    {
      "inputs": [],
      "name": "mint",
      "outputs": [],
      "stateMutability": "payable",
      "type": "function"
    },
    {
      "inputs": [],
      "name": "name",
      "outputs": [
        {
          "internalType": "string",
          "name": "",
          "type": "string"
        }
      ],
      "stateMutability": "view",
      "type": "function"
    },
    {
      "inputs": [],
      "name": "owner",
      "outputs": [
        {
          "internalType": "address",
          "name": "",
          "type": "address"
        }
      ],
      "stateMutability": "view",
      "type": "function"
    },
    {
      "inputs": [
        {
          "internalType": "uint256",
          "name": "tokenId",
          "type": "uint256"
        }
      ],
      "name": "ownerOf",
      "outputs": [
        {
          "internalType": "address",
          "name": "",
          "type": "address"
        }
      ],
      "stateMutability": "view",
      "type": "function"
    },
    {
      "inputs": [],
      "name": "renounceOwnership",
      "outputs": [],
      "stateMutability": "nonpayable",
      "type": "function"
    },
    {
      "inputs": [
        {
          "internalType": "address",
          "name": "from",
          "type": "address"
        },
        {
          "internalType": "address",
          "name": "to",
          "type": "address"
        },
        {
          "internalType": "uint256",
          "name": "tokenId",
          "type": "uint256"
        }
      ],
      "name": "safeTransferFrom",
      "outputs": [],
      "stateMutability": "nonpayable",
      "type": "function"
    },
    {
      "inputs": [
        {
          "internalType": "address",
          "name": "from",
          "type": "address"
        },
        {
          "internalType": "address",
          "name": "to",
          "type": "address"
        },
        {
          "internalType": "uint256",
          "name": "tokenId",
          "type": "uint256"
        },
        {
          "internalType": "bytes",
          "name": "_data",
          "type": "bytes"
        }
      ],
      "name": "safeTransferFrom",
      "outputs": [],
      "stateMutability": "nonpayable",
      "type": "function"
    },
    {
      "inputs": [
        {
          "internalType": "address",
          "name": "operator",
          "type": "address"
        },
        {
          "internalType": "bool",
          "name": "approved",
          "type": "bool"
        }
      ],
      "name": "setApprovalForAll",
      "outputs": [],
      "stateMutability": "nonpayable",
      "type": "function"
    },
    {
      "inputs": [
        {
          "internalType": "string",
          "name": "uri",
          "type": "string"
        }
      ],
      "name": "setBaseURI",
      "outputs": [],
      "stateMutability": "nonpayable",
      "type": "function"
    },
    {
      "inputs": [
        {
          "internalType": "uint256",
          "name": "_newPrice",
          "type": "uint256"
        }
      ],
      "name": "setPrice",
      "outputs": [],
      "stateMutability": "nonpayable",
      "type": "function"
    },
    {
      "inputs": [],
      "name": "startingIndex",
      "outputs": [
        {
          "internalType": "uint256",
          "name": "",
          "type": "uint256"
        }
      ],
      "stateMutability": "view",
      "type": "function"
    },
    {
      "inputs": [
        {
          "internalType": "bytes4",
          "name": "interfaceId",
          "type": "bytes4"
        }
      ],
      "name": "supportsInterface",
      "outputs": [
        {
          "internalType": "bool",
          "name": "",
          "type": "bool"
        }
      ],
      "stateMutability": "view",
      "type": "function"
    },
    {
      "inputs": [],
      "name": "symbol",
      "outputs": [
        {
          "internalType": "string",
          "name": "",
          "type": "string"
        }
      ],
      "stateMutability": "view",
      "type": "function"
    },
    {
      "inputs": [
        {
          "internalType": "uint256",
          "name": "index",
          "type": "uint256"
        }
      ],
      "name": "tokenByIndex",
      "outputs": [
        {
          "internalType": "uint256",
          "name": "",
          "type": "uint256"
        }
      ],
      "stateMutability": "view",
      "type": "function"
    },
    {
      "inputs": [
        {
          "internalType": "address",
          "name": "owner",
          "type": "address"
        },
        {
          "internalType": "uint256",
          "name": "index",
          "type": "uint256"
        }
      ],
      "name": "tokenOfOwnerByIndex",
      "outputs": [
        {
          "internalType": "uint256",
          "name": "",
          "type": "uint256"
        }
      ],
      "stateMutability": "view",
      "type": "function"
    },
    {
      "inputs": [
        {
          "internalType": "uint256",
          "name": "tokenId",
          "type": "uint256"
        }
      ],
      "name": "tokenURI",
      "outputs": [
        {
          "internalType": "string",
          "name": "",
          "type": "string"
        }
      ],
      "stateMutability": "view",
      "type": "function"
    },
    {
      "inputs": [
        {
          "internalType": "address",
          "name": "_owner",
          "type": "address"
        }
      ],
      "name": "tokensOfOwner",
      "outputs": [
        {
          "internalType": "uint256[]",
          "name": "",
          "type": "uint256[]"
        }
      ],
      "stateMutability": "view",
      "type": "function"
    },
    {
      "inputs": [],
      "name": "totalSupply",
      "outputs": [
        {
          "internalType": "uint256",
          "name": "",
          "type": "uint256"
        }
      ],
      "stateMutability": "view",
      "type": "function"
    },
    {
      "inputs": [
        {
          "internalType": "address",
          "name": "from",
          "type": "address"
        },
        {
          "internalType": "address",
          "name": "to",
          "type": "address"
        },
        {
          "internalType": "uint256",
          "name": "tokenId",
          "type": "uint256"
        }
      ],
      "name": "transferFrom",
      "outputs": [],
      "stateMutability": "nonpayable",
      "type": "function"
    },
    {
      "inputs": [
        {
          "internalType": "address",
          "name": "newOwner",
          "type": "address"
        }
      ],
      "name": "transferOwnership",
      "outputs": [],
      "stateMutability": "nonpayable",
      "type": "function"
    }
  ],
  "bytecode": "0x608060405267011c37937e080000600b55601a600c553480156200002257600080fd5b506040518060400160405280600581526020017f4c656e69610000000000000000000000000000000000000000000000000000008152506040518060400160405280600581526020017f4c454e49410000000000000000000000000000000000000000000000000000008152508160009080519060200190620000a7929190620001d2565b508060019080519060200190620000c0929190620001d2565b505050620000e3620000d76200010460201b60201c565b6200010c60201b60201c565b6000600e60006101000a81548160ff021916908315150217905550620002e7565b600033905090565b6000600a60009054906101000a900473ffffffffffffffffffffffffffffffffffffffff16905081600a60006101000a81548173ffffffffffffffffffffffffffffffffffffffff021916908373ffffffffffffffffffffffffffffffffffffffff1602179055508173ffffffffffffffffffffffffffffffffffffffff168173ffffffffffffffffffffffffffffffffffffffff167f8be0079c531659141344cd1fd0a4f28419497f9722a3daafe3b4186f6b6457e060405160405180910390a35050565b828054620001e09062000282565b90600052602060002090601f01602090048101928262000204576000855562000250565b82601f106200021f57805160ff191683800117855562000250565b8280016001018555821562000250579182015b828111156200024f57825182559160200191906001019062000232565b5b5090506200025f919062000263565b5090565b5b808211156200027e57600081600090555060010162000264565b5090565b600060028204905060018216806200029b57607f821691505b60208210811415620002b257620002b1620002b8565b5b50919050565b7f4e487b7100000000000000000000000000000000000000000000000000000000600052602260045260246000fd5b6140ea80620002f76000396000f3fe6080604052600436106101d85760003560e01c806370a0823111610102578063b0e1d7f311610095578063daa023aa11610064578063daa023aa146106b1578063e0c9fbc7146106dc578063e985e9c5146106f3578063f2fde38b14610730576101d8565b8063b0e1d7f3146105f7578063b88d4fde14610620578063c87b56dd14610649578063cb774d4714610686576101d8565b806391b7f5ed116100d157806391b7f5ed1461054f57806395d89b411461057857806398d5fdca146105a3578063a22cb465146105ce576101d8565b806370a0823114610493578063715018a6146104d05780638462151c146104e75780638da5cb5b14610524576101d8565b806323b872dd1161017a5780634f6ccce7116101495780634f6ccce7146103c557806355f804b3146104025780636352211e1461042b5780636c0360eb14610468576101d8565b806323b872dd1461030b5780632f745c591461033457806332cb6b0c1461037157806342842e0e1461039c576101d8565b8063095ea7b3116101b6578063095ea7b3146102825780631249c58b146102ab57806318160ddd146102b55780631c8b232d146102e0576101d8565b806301ffc9a7146101dd57806306fdde031461021a578063081812fc14610245575b600080fd5b3480156101e957600080fd5b5061020460048036038101906101ff9190612d66565b610759565b6040516102119190613362565b60405180910390f35b34801561022657600080fd5b5061022f61076b565b60405161023c919061337d565b60405180910390f35b34801561025157600080fd5b5061026c60048036038101906102679190612df9565b6107fd565b60405161027991906132d9565b60405180910390f35b34801561028e57600080fd5b506102a960048036038101906102a49190612d2a565b610882565b005b6102b361099a565b005b3480156102c157600080fd5b506102ca610a99565b6040516102d7919061365f565b60405180910390f35b3480156102ec57600080fd5b506102f5610aa6565b6040516103029190613362565b60405180910390f35b34801561031757600080fd5b50610332600480360381019061032d9190612c24565b610abd565b005b34801561034057600080fd5b5061035b60048036038101906103569190612d2a565b610b1d565b604051610368919061365f565b60405180910390f35b34801561037d57600080fd5b50610386610bc2565b604051610393919061365f565b60405180910390f35b3480156103a857600080fd5b506103c360048036038101906103be9190612c24565b610bc8565b005b3480156103d157600080fd5b506103ec60048036038101906103e79190612df9565b610be8565b6040516103f9919061365f565b60405180910390f35b34801561040e57600080fd5b5061042960048036038101906104249190612db8565b610c7f565b005b34801561043757600080fd5b50610452600480360381019061044d9190612df9565b610d15565b60405161045f91906132d9565b60405180910390f35b34801561047457600080fd5b5061047d610dc7565b60405161048a919061337d565b60405180910390f35b34801561049f57600080fd5b506104ba60048036038101906104b59190612bbf565b610e55565b6040516104c7919061365f565b60405180910390f35b3480156104dc57600080fd5b506104e5610f0d565b005b3480156104f357600080fd5b5061050e60048036038101906105099190612bbf565b610f95565b60405161051b9190613340565b60405180910390f35b34801561053057600080fd5b5061053961108f565b60405161054691906132d9565b60405180910390f35b34801561055b57600080fd5b5061057660048036038101906105719190612df9565b6110b9565b005b34801561058457600080fd5b5061058d61113f565b60405161059a919061337d565b60405180910390f35b3480156105af57600080fd5b506105b86111d1565b6040516105c5919061365f565b60405180910390f35b3480156105da57600080fd5b506105f560048036038101906105f09190612cee565b6111db565b005b34801561060357600080fd5b5061061e60048036038101906106199190612e22565b61135c565b005b34801561062c57600080fd5b5061064760048036038101906106429190612c73565b611476565b005b34801561065557600080fd5b50610670600480360381019061066b9190612df9565b6114d8565b60405161067d919061337d565b60405180910390f35b34801561069257600080fd5b5061069b61157f565b6040516106a8919061365f565b60405180910390f35b3480156106bd57600080fd5b506106c6611585565b6040516106d3919061365f565b60405180910390f35b3480156106e857600080fd5b506106f161158f565b005b3480156106ff57600080fd5b5061071a60048036038101906107159190612be8565b611637565b6040516107279190613362565b60405180910390f35b34801561073c57600080fd5b5061075760048036038101906107529190612bbf565b6116cb565b005b6000610764826117c3565b9050919050565b60606000805461077a906138ee565b80601f01602080910402602001604051908101604052809291908181526020018280546107a6906138ee565b80156107f35780601f106107c8576101008083540402835291602001916107f3565b820191906000526020600020905b8154815290600101906020018083116107d657829003601f168201915b5050505050905090565b60006108088261183d565b610847576040517f08c379a000000000000000000000000000000000000000000000000000000000815260040161083e9061351f565b60405180910390fd5b6004600083815260200190815260200160002060009054906101000a900473ffffffffffffffffffffffffffffffffffffffff169050919050565b600061088d82610d15565b90508073ffffffffffffffffffffffffffffffffffffffff168373ffffffffffffffffffffffffffffffffffffffff1614156108fe576040517f08c379a00000000000000000000000000000000000000000000000000000000081526004016108f5906135bf565b60405180910390fd5b8073ffffffffffffffffffffffffffffffffffffffff1661091d6118a9565b73ffffffffffffffffffffffffffffffffffffffff16148061094c575061094b816109466118a9565b611637565b5b61098b576040517f08c379a00000000000000000000000000000000000000000000000000000000081526004016109829061349f565b60405180910390fd5b61099583836118b1565b505050565b600e60009054906101000a900460ff166109e9576040517f08c379a00000000000000000000000000000000000000000000000000000000081526004016109e09061363f565b60405180910390fd5b60006109f3610a99565b9050600c54610539610a059190613804565b811115610a47576040517f08c379a0000000000000000000000000000000000000000000000000000000008152600401610a3e9061359f565b60405180910390fd5b34600b541115610a8c576040517f08c379a0000000000000000000000000000000000000000000000000000000008152600401610a839061345f565b60405180910390fd5b610a96338261196a565b50565b6000600880549050905090565b6000600e60009054906101000a900460ff16905090565b610ace610ac86118a9565b82611988565b610b0d576040517f08c379a0000000000000000000000000000000000000000000000000000000008152600401610b04906135ff565b60405180910390fd5b610b18838383611a66565b505050565b6000610b2883610e55565b8210610b69576040517f08c379a0000000000000000000000000000000000000000000000000000000008152600401610b609061339f565b60405180910390fd5b600660008473ffffffffffffffffffffffffffffffffffffffff1673ffffffffffffffffffffffffffffffffffffffff168152602001908152602001600020600083815260200190815260200160002054905092915050565b61053981565b610be383838360405180602001604052806000815250611476565b505050565b6000610bf2610a99565b8210610c33576040517f08c379a0000000000000000000000000000000000000000000000000000000008152600401610c2a9061361f565b60405180910390fd5b60088281548110610c6d577f4e487b7100000000000000000000000000000000000000000000000000000000600052603260045260246000fd5b90600052602060002001549050919050565b610c876118a9565b73ffffffffffffffffffffffffffffffffffffffff16610ca561108f565b73ffffffffffffffffffffffffffffffffffffffff1614610cfb576040517f08c379a0000000000000000000000000000000000000000000000000000000008152600401610cf29061353f565b60405180910390fd5b80600f9080519060200190610d119291906129e3565b5050565b6000806002600084815260200190815260200160002060009054906101000a900473ffffffffffffffffffffffffffffffffffffffff169050600073ffffffffffffffffffffffffffffffffffffffff168173ffffffffffffffffffffffffffffffffffffffff161415610dbe576040517f08c379a0000000000000000000000000000000000000000000000000000000008152600401610db5906134df565b60405180910390fd5b80915050919050565b600f8054610dd4906138ee565b80601f0160208091040260200160405190810160405280929190818152602001828054610e00906138ee565b8015610e4d5780601f10610e2257610100808354040283529160200191610e4d565b820191906000526020600020905b815481529060010190602001808311610e3057829003601f168201915b505050505081565b60008073ffffffffffffffffffffffffffffffffffffffff168273ffffffffffffffffffffffffffffffffffffffff161415610ec6576040517f08c379a0000000000000000000000000000000000000000000000000000000008152600401610ebd906134bf565b60405180910390fd5b600360008373ffffffffffffffffffffffffffffffffffffffff1673ffffffffffffffffffffffffffffffffffffffff168152602001908152602001600020549050919050565b610f156118a9565b73ffffffffffffffffffffffffffffffffffffffff16610f3361108f565b73ffffffffffffffffffffffffffffffffffffffff1614610f89576040517f08c379a0000000000000000000000000000000000000000000000000000000008152600401610f809061353f565b60405180910390fd5b610f936000611cc2565b565b60606000610fa283610e55565b905060008167ffffffffffffffff811115610fe6577f4e487b7100000000000000000000000000000000000000000000000000000000600052604160045260246000fd5b6040519080825280602002602001820160405280156110145781602001602082028036833780820191505090505b50905060005b828110156110845761102c8582610b1d565b828281518110611065577f4e487b7100000000000000000000000000000000000000000000000000000000600052603260045260246000fd5b602002602001018181525050808061107c90613951565b91505061101a565b508092505050919050565b6000600a60009054906101000a900473ffffffffffffffffffffffffffffffffffffffff16905090565b6110c16118a9565b73ffffffffffffffffffffffffffffffffffffffff166110df61108f565b73ffffffffffffffffffffffffffffffffffffffff1614611135576040517f08c379a000000000000000000000000000000000000000000000000000000000815260040161112c9061353f565b60405180910390fd5b80600b8190555050565b60606001805461114e906138ee565b80601f016020809104026020016040519081016040528092919081815260200182805461117a906138ee565b80156111c75780601f1061119c576101008083540402835291602001916111c7565b820191906000526020600020905b8154815290600101906020018083116111aa57829003601f168201915b5050505050905090565b6000600b54905090565b6111e36118a9565b73ffffffffffffffffffffffffffffffffffffffff168273ffffffffffffffffffffffffffffffffffffffff161415611251576040517f08c379a00000000000000000000000000000000000000000000000000000000081526004016112489061343f565b60405180910390fd5b806005600061125e6118a9565b73ffffffffffffffffffffffffffffffffffffffff1673ffffffffffffffffffffffffffffffffffffffff16815260200190815260200160002060008473ffffffffffffffffffffffffffffffffffffffff1673ffffffffffffffffffffffffffffffffffffffff16815260200190815260200160002060006101000a81548160ff0219169083151502179055508173ffffffffffffffffffffffffffffffffffffffff1661130b6118a9565b73ffffffffffffffffffffffffffffffffffffffff167f17307eab39ab6107e8899845ad3d59bd9653f200f220920489ca2b5937696c31836040516113509190613362565b60405180910390a35050565b6113646118a9565b73ffffffffffffffffffffffffffffffffffffffff1661138261108f565b73ffffffffffffffffffffffffffffffffffffffff16146113d8576040517f08c379a00000000000000000000000000000000000000000000000000000000081526004016113cf9061353f565b60405180910390fd5b600c5482111561141d576040517f08c379a0000000000000000000000000000000000000000000000000000000008152600401611414906135df565b60405180910390fd5b6000611427610a99565b905060005b8381101561145c57611449838284611444919061377d565b61196a565b808061145490613951565b91505061142c565b5082600c5461146b9190613804565b600c81905550505050565b6114876114816118a9565b83611988565b6114c6576040517f08c379a00000000000000000000000000000000000000000000000000000000081526004016114bd906135ff565b60405180910390fd5b6114d284848484611d88565b50505050565b60606114e38261183d565b611522576040517f08c379a00000000000000000000000000000000000000000000000000000000081526004016115199061357f565b60405180910390fd5b600061152c611de4565b9050600081511161154c5760405180602001604052806000815250611577565b8061155684611e76565b6040516020016115679291906132b5565b6040516020818303038152906040525b915050919050565b600d5481565b6000600c54905090565b6115976118a9565b73ffffffffffffffffffffffffffffffffffffffff166115b561108f565b73ffffffffffffffffffffffffffffffffffffffff161461160b576040517f08c379a00000000000000000000000000000000000000000000000000000000081526004016116029061353f565b60405180910390fd5b600e60009054906101000a900460ff1615600e60006101000a81548160ff021916908315150217905550565b6000600560008473ffffffffffffffffffffffffffffffffffffffff1673ffffffffffffffffffffffffffffffffffffffff16815260200190815260200160002060008373ffffffffffffffffffffffffffffffffffffffff1673ffffffffffffffffffffffffffffffffffffffff16815260200190815260200160002060009054906101000a900460ff16905092915050565b6116d36118a9565b73ffffffffffffffffffffffffffffffffffffffff166116f161108f565b73ffffffffffffffffffffffffffffffffffffffff1614611747576040517f08c379a000000000000000000000000000000000000000000000000000000000815260040161173e9061353f565b60405180910390fd5b600073ffffffffffffffffffffffffffffffffffffffff168173ffffffffffffffffffffffffffffffffffffffff1614156117b7576040517f08c379a00000000000000000000000000000000000000000000000000000000081526004016117ae906133df565b60405180910390fd5b6117c081611cc2565b50565b60007f780e9d63000000000000000000000000000000000000000000000000000000007bffffffffffffffffffffffffffffffffffffffffffffffffffffffff1916827bffffffffffffffffffffffffffffffffffffffffffffffffffffffff19161480611836575061183582612023565b5b9050919050565b60008073ffffffffffffffffffffffffffffffffffffffff166002600084815260200190815260200160002060009054906101000a900473ffffffffffffffffffffffffffffffffffffffff1673ffffffffffffffffffffffffffffffffffffffff1614159050919050565b600033905090565b816004600083815260200190815260200160002060006101000a81548173ffffffffffffffffffffffffffffffffffffffff021916908373ffffffffffffffffffffffffffffffffffffffff160217905550808273ffffffffffffffffffffffffffffffffffffffff1661192483610d15565b73ffffffffffffffffffffffffffffffffffffffff167f8c5be1e5ebec7d5bd14f71427d1e84f3dd0314c0f7b2291e5b200ac8c7c3b92560405160405180910390a45050565b611984828260405180602001604052806000815250612105565b5050565b60006119938261183d565b6119d2576040517f08c379a00000000000000000000000000000000000000000000000000000000081526004016119c99061347f565b60405180910390fd5b60006119dd83610d15565b90508073ffffffffffffffffffffffffffffffffffffffff168473ffffffffffffffffffffffffffffffffffffffff161480611a4c57508373ffffffffffffffffffffffffffffffffffffffff16611a34846107fd565b73ffffffffffffffffffffffffffffffffffffffff16145b80611a5d5750611a5c8185611637565b5b91505092915050565b8273ffffffffffffffffffffffffffffffffffffffff16611a8682610d15565b73ffffffffffffffffffffffffffffffffffffffff1614611adc576040517f08c379a0000000000000000000000000000000000000000000000000000000008152600401611ad39061355f565b60405180910390fd5b600073ffffffffffffffffffffffffffffffffffffffff168273ffffffffffffffffffffffffffffffffffffffff161415611b4c576040517f08c379a0000000000000000000000000000000000000000000000000000000008152600401611b439061341f565b60405180910390fd5b611b57838383612160565b611b626000826118b1565b6001600360008573ffffffffffffffffffffffffffffffffffffffff1673ffffffffffffffffffffffffffffffffffffffff1681526020019081526020016000206000828254611bb29190613804565b925050819055506001600360008473ffffffffffffffffffffffffffffffffffffffff1673ffffffffffffffffffffffffffffffffffffffff1681526020019081526020016000206000828254611c09919061377d565b92505081905550816002600083815260200190815260200160002060006101000a81548173ffffffffffffffffffffffffffffffffffffffff021916908373ffffffffffffffffffffffffffffffffffffffff160217905550808273ffffffffffffffffffffffffffffffffffffffff168473ffffffffffffffffffffffffffffffffffffffff167fddf252ad1be2c89b69c2b068fc378daa952ba7f163c4a11628f55a4df523b3ef60405160405180910390a4505050565b6000600a60009054906101000a900473ffffffffffffffffffffffffffffffffffffffff16905081600a60006101000a81548173ffffffffffffffffffffffffffffffffffffffff021916908373ffffffffffffffffffffffffffffffffffffffff1602179055508173ffffffffffffffffffffffffffffffffffffffff168173ffffffffffffffffffffffffffffffffffffffff167f8be0079c531659141344cd1fd0a4f28419497f9722a3daafe3b4186f6b6457e060405160405180910390a35050565b611d93848484611a66565b611d9f84848484612170565b611dde576040517f08c379a0000000000000000000000000000000000000000000000000000000008152600401611dd5906133bf565b60405180910390fd5b50505050565b6060600f8054611df3906138ee565b80601f0160208091040260200160405190810160405280929190818152602001828054611e1f906138ee565b8015611e6c5780601f10611e4157610100808354040283529160200191611e6c565b820191906000526020600020905b815481529060010190602001808311611e4f57829003601f168201915b5050505050905090565b60606000821415611ebe576040518060400160405280600181526020017f3000000000000000000000000000000000000000000000000000000000000000815250905061201e565b600082905060005b60008214611ef0578080611ed990613951565b915050600a82611ee991906137d3565b9150611ec6565b60008167ffffffffffffffff811115611f32577f4e487b7100000000000000000000000000000000000000000000000000000000600052604160045260246000fd5b6040519080825280601f01601f191660200182016040528015611f645781602001600182028036833780820191505090505b5090505b6000851461201757600182611f7d9190613804565b9150600a85611f8c919061399a565b6030611f98919061377d565b60f81b818381518110611fd4577f4e487b7100000000000000000000000000000000000000000000000000000000600052603260045260246000fd5b60200101907effffffffffffffffffffffffffffffffffffffffffffffffffffffffffffff1916908160001a905350600a8561201091906137d3565b9450611f68565b8093505050505b919050565b60007f80ac58cd000000000000000000000000000000000000000000000000000000007bffffffffffffffffffffffffffffffffffffffffffffffffffffffff1916827bffffffffffffffffffffffffffffffffffffffffffffffffffffffff191614806120ee57507f5b5e139f000000000000000000000000000000000000000000000000000000007bffffffffffffffffffffffffffffffffffffffffffffffffffffffff1916827bffffffffffffffffffffffffffffffffffffffffffffffffffffffff1916145b806120fe57506120fd82612307565b5b9050919050565b61210f8383612371565b61211c6000848484612170565b61215b576040517f08c379a0000000000000000000000000000000000000000000000000000000008152600401612152906133bf565b60405180910390fd5b505050565b61216b83838361253f565b505050565b60006121918473ffffffffffffffffffffffffffffffffffffffff16612653565b156122fa578373ffffffffffffffffffffffffffffffffffffffff1663150b7a026121ba6118a9565b8786866040518563ffffffff1660e01b81526004016121dc94939291906132f4565b602060405180830381600087803b1580156121f657600080fd5b505af192505050801561222757506040513d601f19601f820116820180604052508101906122249190612d8f565b60015b6122aa573d8060008114612257576040519150601f19603f3d011682016040523d82523d6000602084013e61225c565b606091505b506000815114156122a2576040517f08c379a0000000000000000000000000000000000000000000000000000000008152600401612299906133bf565b60405180910390fd5b805181602001fd5b63150b7a0260e01b7bffffffffffffffffffffffffffffffffffffffffffffffffffffffff1916817bffffffffffffffffffffffffffffffffffffffffffffffffffffffff1916149150506122ff565b600190505b949350505050565b60007f01ffc9a7000000000000000000000000000000000000000000000000000000007bffffffffffffffffffffffffffffffffffffffffffffffffffffffff1916827bffffffffffffffffffffffffffffffffffffffffffffffffffffffff1916149050919050565b600073ffffffffffffffffffffffffffffffffffffffff168273ffffffffffffffffffffffffffffffffffffffff1614156123e1576040517f08c379a00000000000000000000000000000000000000000000000000000000081526004016123d8906134ff565b60405180910390fd5b6123ea8161183d565b1561242a576040517f08c379a0000000000000000000000000000000000000000000000000000000008152600401612421906133ff565b60405180910390fd5b61243660008383612160565b6001600360008473ffffffffffffffffffffffffffffffffffffffff1673ffffffffffffffffffffffffffffffffffffffff1681526020019081526020016000206000828254612486919061377d565b92505081905550816002600083815260200190815260200160002060006101000a81548173ffffffffffffffffffffffffffffffffffffffff021916908373ffffffffffffffffffffffffffffffffffffffff160217905550808273ffffffffffffffffffffffffffffffffffffffff16600073ffffffffffffffffffffffffffffffffffffffff167fddf252ad1be2c89b69c2b068fc378daa952ba7f163c4a11628f55a4df523b3ef60405160405180910390a45050565b61254a838383612666565b600073ffffffffffffffffffffffffffffffffffffffff168373ffffffffffffffffffffffffffffffffffffffff16141561258d576125888161266b565b6125cc565b8173ffffffffffffffffffffffffffffffffffffffff168373ffffffffffffffffffffffffffffffffffffffff16146125cb576125ca83826126b4565b5b5b600073ffffffffffffffffffffffffffffffffffffffff168273ffffffffffffffffffffffffffffffffffffffff16141561260f5761260a81612821565b61264e565b8273ffffffffffffffffffffffffffffffffffffffff168273ffffffffffffffffffffffffffffffffffffffff161461264d5761264c8282612964565b5b5b505050565b600080823b905060008111915050919050565b505050565b6008805490506009600083815260200190815260200160002081905550600881908060018154018082558091505060019003906000526020600020016000909190919091505550565b600060016126c184610e55565b6126cb9190613804565b90506000600760008481526020019081526020016000205490508181146127b0576000600660008673ffffffffffffffffffffffffffffffffffffffff1673ffffffffffffffffffffffffffffffffffffffff168152602001908152602001600020600084815260200190815260200160002054905080600660008773ffffffffffffffffffffffffffffffffffffffff1673ffffffffffffffffffffffffffffffffffffffff168152602001908152602001600020600084815260200190815260200160002081905550816007600083815260200190815260200160002081905550505b6007600084815260200190815260200160002060009055600660008573ffffffffffffffffffffffffffffffffffffffff1673ffffffffffffffffffffffffffffffffffffffff16815260200190815260200160002060008381526020019081526020016000206000905550505050565b600060016008805490506128359190613804565b905060006009600084815260200190815260200160002054905060006008838154811061288b577f4e487b7100000000000000000000000000000000000000000000000000000000600052603260045260246000fd5b9060005260206000200154905080600883815481106128d3577f4e487b7100000000000000000000000000000000000000000000000000000000600052603260045260246000fd5b906000526020600020018190555081600960008381526020019081526020016000208190555060096000858152602001908152602001600020600090556008805480612948577f4e487b7100000000000000000000000000000000000000000000000000000000600052603160045260246000fd5b6001900381819060005260206000200160009055905550505050565b600061296f83610e55565b905081600660008573ffffffffffffffffffffffffffffffffffffffff1673ffffffffffffffffffffffffffffffffffffffff168152602001908152602001600020600083815260200190815260200160002081905550806007600084815260200190815260200160002081905550505050565b8280546129ef906138ee565b90600052602060002090601f016020900481019282612a115760008555612a58565b82601f10612a2a57805160ff1916838001178555612a58565b82800160010185558215612a58579182015b82811115612a57578251825591602001919060010190612a3c565b5b509050612a659190612a69565b5090565b5b80821115612a82576000816000905550600101612a6a565b5090565b6000612a99612a948461369f565b61367a565b905082815260208101848484011115612ab157600080fd5b612abc8482856138ac565b509392505050565b6000612ad7612ad2846136d0565b61367a565b905082815260208101848484011115612aef57600080fd5b612afa8482856138ac565b509392505050565b600081359050612b1181614058565b92915050565b600081359050612b268161406f565b92915050565b600081359050612b3b81614086565b92915050565b600081519050612b5081614086565b92915050565b600082601f830112612b6757600080fd5b8135612b77848260208601612a86565b91505092915050565b600082601f830112612b9157600080fd5b8135612ba1848260208601612ac4565b91505092915050565b600081359050612bb98161409d565b92915050565b600060208284031215612bd157600080fd5b6000612bdf84828501612b02565b91505092915050565b60008060408385031215612bfb57600080fd5b6000612c0985828601612b02565b9250506020612c1a85828601612b02565b9150509250929050565b600080600060608486031215612c3957600080fd5b6000612c4786828701612b02565b9350506020612c5886828701612b02565b9250506040612c6986828701612baa565b9150509250925092565b60008060008060808587031215612c8957600080fd5b6000612c9787828801612b02565b9450506020612ca887828801612b02565b9350506040612cb987828801612baa565b925050606085013567ffffffffffffffff811115612cd657600080fd5b612ce287828801612b56565b91505092959194509250565b60008060408385031215612d0157600080fd5b6000612d0f85828601612b02565b9250506020612d2085828601612b17565b9150509250929050565b60008060408385031215612d3d57600080fd5b6000612d4b85828601612b02565b9250506020612d5c85828601612baa565b9150509250929050565b600060208284031215612d7857600080fd5b6000612d8684828501612b2c565b91505092915050565b600060208284031215612da157600080fd5b6000612daf84828501612b41565b91505092915050565b600060208284031215612dca57600080fd5b600082013567ffffffffffffffff811115612de457600080fd5b612df084828501612b80565b91505092915050565b600060208284031215612e0b57600080fd5b6000612e1984828501612baa565b91505092915050565b60008060408385031215612e3557600080fd5b6000612e4385828601612baa565b9250506020612e5485828601612b02565b9150509250929050565b6000612e6a8383613297565b60208301905092915050565b612e7f81613838565b82525050565b6000612e9082613711565b612e9a818561373f565b9350612ea583613701565b8060005b83811015612ed6578151612ebd8882612e5e565b9750612ec883613732565b925050600181019050612ea9565b5085935050505092915050565b612eec8161384a565b82525050565b6000612efd8261371c565b612f078185613750565b9350612f178185602086016138bb565b612f2081613a87565b840191505092915050565b6000612f3682613727565b612f408185613761565b9350612f508185602086016138bb565b612f5981613a87565b840191505092915050565b6000612f6f82613727565b612f798185613772565b9350612f898185602086016138bb565b80840191505092915050565b6000612fa2602b83613761565b9150612fad82613a98565b604082019050919050565b6000612fc5603283613761565b9150612fd082613ae7565b604082019050919050565b6000612fe8602683613761565b9150612ff382613b36565b604082019050919050565b600061300b601c83613761565b915061301682613b85565b602082019050919050565b600061302e602483613761565b915061303982613bae565b604082019050919050565b6000613051601983613761565b915061305c82613bfd565b602082019050919050565b6000613074601983613761565b915061307f82613c26565b602082019050919050565b6000613097602c83613761565b91506130a282613c4f565b604082019050919050565b60006130ba603883613761565b91506130c582613c9e565b604082019050919050565b60006130dd602a83613761565b91506130e882613ced565b604082019050919050565b6000613100602983613761565b915061310b82613d3c565b604082019050919050565b6000613123602083613761565b915061312e82613d8b565b602082019050919050565b6000613146602c83613761565b915061315182613db4565b604082019050919050565b6000613169602083613761565b915061317482613e03565b602082019050919050565b600061318c602983613761565b915061319782613e2c565b604082019050919050565b60006131af602f83613761565b91506131ba82613e7b565b604082019050919050565b60006131d2601483613761565b91506131dd82613eca565b602082019050919050565b60006131f5602183613761565b915061320082613ef3565b604082019050919050565b6000613218602383613761565b915061322382613f42565b604082019050919050565b600061323b603183613761565b915061324682613f91565b604082019050919050565b600061325e602c83613761565b915061326982613fe0565b604082019050919050565b6000613281601f83613761565b915061328c8261402f565b602082019050919050565b6132a0816138a2565b82525050565b6132af816138a2565b82525050565b60006132c18285612f64565b91506132cd8284612f64565b91508190509392505050565b60006020820190506132ee6000830184612e76565b92915050565b60006080820190506133096000830187612e76565b6133166020830186612e76565b61332360408301856132a6565b81810360608301526133358184612ef2565b905095945050505050565b6000602082019050818103600083015261335a8184612e85565b905092915050565b60006020820190506133776000830184612ee3565b92915050565b600060208201905081810360008301526133978184612f2b565b905092915050565b600060208201905081810360008301526133b881612f95565b9050919050565b600060208201905081810360008301526133d881612fb8565b9050919050565b600060208201905081810360008301526133f881612fdb565b9050919050565b6000602082019050818103600083015261341881612ffe565b9050919050565b6000602082019050818103600083015261343881613021565b9050919050565b6000602082019050818103600083015261345881613044565b9050919050565b6000602082019050818103600083015261347881613067565b9050919050565b600060208201905081810360008301526134988161308a565b9050919050565b600060208201905081810360008301526134b8816130ad565b9050919050565b600060208201905081810360008301526134d8816130d0565b9050919050565b600060208201905081810360008301526134f8816130f3565b9050919050565b6000602082019050818103600083015261351881613116565b9050919050565b6000602082019050818103600083015261353881613139565b9050919050565b600060208201905081810360008301526135588161315c565b9050919050565b600060208201905081810360008301526135788161317f565b9050919050565b60006020820190508181036000830152613598816131a2565b9050919050565b600060208201905081810360008301526135b8816131c5565b9050919050565b600060208201905081810360008301526135d8816131e8565b9050919050565b600060208201905081810360008301526135f88161320b565b9050919050565b600060208201905081810360008301526136188161322e565b9050919050565b6000602082019050818103600083015261363881613251565b9050919050565b6000602082019050818103600083015261365881613274565b9050919050565b600060208201905061367460008301846132a6565b92915050565b6000613684613695565b90506136908282613920565b919050565b6000604051905090565b600067ffffffffffffffff8211156136ba576136b9613a58565b5b6136c382613a87565b9050602081019050919050565b600067ffffffffffffffff8211156136eb576136ea613a58565b5b6136f482613a87565b9050602081019050919050565b6000819050602082019050919050565b600081519050919050565b600081519050919050565b600081519050919050565b6000602082019050919050565b600082825260208201905092915050565b600082825260208201905092915050565b600082825260208201905092915050565b600081905092915050565b6000613788826138a2565b9150613793836138a2565b9250827fffffffffffffffffffffffffffffffffffffffffffffffffffffffffffffffff038211156137c8576137c76139cb565b5b828201905092915050565b60006137de826138a2565b91506137e9836138a2565b9250826137f9576137f86139fa565b5b828204905092915050565b600061380f826138a2565b915061381a836138a2565b92508282101561382d5761382c6139cb565b5b828203905092915050565b600061384382613882565b9050919050565b60008115159050919050565b60007fffffffff0000000000000000000000000000000000000000000000000000000082169050919050565b600073ffffffffffffffffffffffffffffffffffffffff82169050919050565b6000819050919050565b82818337600083830152505050565b60005b838110156138d95780820151818401526020810190506138be565b838111156138e8576000848401525b50505050565b6000600282049050600182168061390657607f821691505b6020821081141561391a57613919613a29565b5b50919050565b61392982613a87565b810181811067ffffffffffffffff8211171561394857613947613a58565b5b80604052505050565b600061395c826138a2565b91507fffffffffffffffffffffffffffffffffffffffffffffffffffffffffffffffff82141561398f5761398e6139cb565b5b600182019050919050565b60006139a5826138a2565b91506139b0836138a2565b9250826139c0576139bf6139fa565b5b828206905092915050565b7f4e487b7100000000000000000000000000000000000000000000000000000000600052601160045260246000fd5b7f4e487b7100000000000000000000000000000000000000000000000000000000600052601260045260246000fd5b7f4e487b7100000000000000000000000000000000000000000000000000000000600052602260045260246000fd5b7f4e487b7100000000000000000000000000000000000000000000000000000000600052604160045260246000fd5b6000601f19601f8301169050919050565b7f455243373231456e756d657261626c653a206f776e657220696e646578206f7560008201527f74206f6620626f756e6473000000000000000000000000000000000000000000602082015250565b7f4552433732313a207472616e7366657220746f206e6f6e20455243373231526560008201527f63656976657220696d706c656d656e7465720000000000000000000000000000602082015250565b7f4f776e61626c653a206e6577206f776e657220697320746865207a65726f206160008201527f6464726573730000000000000000000000000000000000000000000000000000602082015250565b7f4552433732313a20746f6b656e20616c7265616479206d696e74656400000000600082015250565b7f4552433732313a207472616e7366657220746f20746865207a65726f2061646460008201527f7265737300000000000000000000000000000000000000000000000000000000602082015250565b7f4552433732313a20617070726f766520746f2063616c6c657200000000000000600082015250565b7f496e636f6e73697374656e7420616d6f756e742073656e742100000000000000600082015250565b7f4552433732313a206f70657261746f7220717565727920666f72206e6f6e657860008201527f697374656e7420746f6b656e0000000000000000000000000000000000000000602082015250565b7f4552433732313a20617070726f76652063616c6c6572206973206e6f74206f7760008201527f6e6572206e6f7220617070726f76656420666f7220616c6c0000000000000000602082015250565b7f4552433732313a2062616c616e636520717565727920666f7220746865207a6560008201527f726f206164647265737300000000000000000000000000000000000000000000602082015250565b7f4552433732313a206f776e657220717565727920666f72206e6f6e657869737460008201527f656e7420746f6b656e0000000000000000000000000000000000000000000000602082015250565b7f4552433732313a206d696e7420746f20746865207a65726f2061646472657373600082015250565b7f4552433732313a20617070726f76656420717565727920666f72206e6f6e657860008201527f697374656e7420746f6b656e0000000000000000000000000000000000000000602082015250565b7f4f776e61626c653a2063616c6c6572206973206e6f7420746865206f776e6572600082015250565b7f4552433732313a207472616e73666572206f6620746f6b656e2074686174206960008201527f73206e6f74206f776e0000000000000000000000000000000000000000000000602082015250565b7f4552433732314d657461646174613a2055524920717565727920666f72206e6f60008201527f6e6578697374656e7420746f6b656e0000000000000000000000000000000000602082015250565b7f546f6b656e732061726520736f6c64206f757421000000000000000000000000600082015250565b7f4552433732313a20617070726f76616c20746f2063757272656e74206f776e6560008201527f7200000000000000000000000000000000000000000000000000000000000000602082015250565b7f5468617420776f756c642065786365656420746865206d61782072657365727660008201527f65642e0000000000000000000000000000000000000000000000000000000000602082015250565b7f4552433732313a207472616e736665722063616c6c6572206973206e6f74206f60008201527f776e6572206e6f7220617070726f766564000000000000000000000000000000602082015250565b7f455243373231456e756d657261626c653a20676c6f62616c20696e646578206f60008201527f7574206f6620626f756e64730000000000000000000000000000000000000000602082015250565b7f5072696d6172792073616c65206861736e277420737461727465642079657400600082015250565b61406181613838565b811461406c57600080fd5b50565b6140788161384a565b811461408357600080fd5b50565b61408f81613856565b811461409a57600080fd5b50565b6140a6816138a2565b81146140b157600080fd5b5056fea264697066735822122065cc456404ecbb0bbec0e78a2ebe383362454069a7462b4ad709179b05edb9fb64736f6c63430008040033",
  "linkReferences": {},
  "deployedLinkReferences": {}
}