{
  "address": "0xCF65CbCC557aa6DB4856674a663eef39DC2ECf9C",
  "abi": [
    {
      "inputs": [],
      "stateMutability": "nonpayable",
      "type": "constructor"
    },
    {
      "anonymous": false,
      "inputs": [
        {
          "indexed": true,
          "internalType": "address",
          "name": "owner",
          "type": "address"
        },
        {
          "indexed": true,
          "internalType": "address",
          "name": "approved",
          "type": "address"
        },
        {
          "indexed": true,
          "internalType": "uint256",
          "name": "tokenId",
          "type": "uint256"
        }
      ],
      "name": "Approval",
      "type": "event"
    },
    {
      "anonymous": false,
      "inputs": [
        {
          "indexed": true,
          "internalType": "address",
          "name": "owner",
          "type": "address"
        },
        {
          "indexed": true,
          "internalType": "address",
          "name": "operator",
          "type": "address"
        },
        {
          "indexed": false,
          "internalType": "bool",
          "name": "approved",
          "type": "bool"
        }
      ],
      "name": "ApprovalForAll",
      "type": "event"
    },
    {
      "anonymous": false,
      "inputs": [
        {
          "indexed": true,
          "internalType": "address",
          "name": "previousOwner",
          "type": "address"
        },
        {
          "indexed": true,
          "internalType": "address",
          "name": "newOwner",
          "type": "address"
        }
      ],
      "name": "OwnershipTransferred",
      "type": "event"
    },
    {
      "anonymous": false,
      "inputs": [
        {
          "indexed": true,
          "internalType": "address",
          "name": "from",
          "type": "address"
        },
        {
          "indexed": true,
          "internalType": "address",
          "name": "to",
          "type": "address"
        },
        {
          "indexed": true,
          "internalType": "uint256",
          "name": "tokenId",
          "type": "uint256"
        }
      ],
      "name": "Transfer",
      "type": "event"
    },
    {
      "inputs": [],
      "name": "MAX_SUPPLY",
      "outputs": [
        {
          "internalType": "uint256",
          "name": "",
          "type": "uint256"
        }
      ],
      "stateMutability": "view",
      "type": "function"
    },
    {
      "inputs": [
        {
          "internalType": "address",
          "name": "to",
          "type": "address"
        },
        {
          "internalType": "uint256",
          "name": "tokenId",
          "type": "uint256"
        }
      ],
      "name": "approve",
      "outputs": [],
      "stateMutability": "nonpayable",
      "type": "function"
    },
    {
      "inputs": [
        {
          "internalType": "address",
          "name": "owner",
          "type": "address"
        }
      ],
      "name": "balanceOf",
      "outputs": [
        {
          "internalType": "uint256",
          "name": "",
          "type": "uint256"
        }
      ],
      "stateMutability": "view",
      "type": "function"
    },
    {
      "inputs": [],
      "name": "baseURI",
      "outputs": [
        {
          "internalType": "string",
          "name": "",
          "type": "string"
        }
      ],
      "stateMutability": "view",
      "type": "function"
    },
    {
      "inputs": [
        {
          "internalType": "uint256",
          "name": "_number",
          "type": "uint256"
        },
        {
          "internalType": "address",
          "name": "_receiver",
          "type": "address"
        }
      ],
      "name": "claimReserved",
      "outputs": [],
      "stateMutability": "nonpayable",
      "type": "function"
    },
    {
      "inputs": [],
      "name": "flipHasSaleStarted",
      "outputs": [],
      "stateMutability": "nonpayable",
      "type": "function"
    },
    {
      "inputs": [
        {
          "internalType": "uint256",
          "name": "tokenId",
          "type": "uint256"
        }
      ],
      "name": "getApproved",
      "outputs": [
        {
          "internalType": "address",
          "name": "",
          "type": "address"
        }
      ],
      "stateMutability": "view",
      "type": "function"
    },
    {
      "inputs": [
        {
          "internalType": "uint256",
          "name": "id",
          "type": "uint256"
        }
      ],
      "name": "getCells",
      "outputs": [
        {
          "internalType": "bytes",
          "name": "",
          "type": "bytes"
        }
      ],
      "stateMutability": "view",
      "type": "function"
    },
    {
      "inputs": [],
      "name": "getEngine",
      "outputs": [
        {
          "internalType": "string",
          "name": "",
          "type": "string"
        }
      ],
      "stateMutability": "view",
      "type": "function"
    },
    {
      "inputs": [
        {
          "internalType": "uint256",
          "name": "id",
          "type": "uint256"
        }
      ],
      "name": "getLeniaParams",
      "outputs": [
        {
          "components": [
            {
              "internalType": "string",
              "name": "m",
              "type": "string"
            },
            {
              "internalType": "string",
              "name": "s",
              "type": "string"
            }
          ],
          "internalType": "struct LeniaDescriptor.LeniaParams",
          "name": "",
          "type": "tuple"
        }
      ],
      "stateMutability": "view",
      "type": "function"
    },
    {
      "inputs": [
        {
          "internalType": "uint256",
          "name": "id",
          "type": "uint256"
        }
      ],
      "name": "getMetadata",
      "outputs": [
        {
          "components": [
            {
              "internalType": "string",
              "name": "paddedID",
              "type": "string"
            },
            {
              "internalType": "string",
              "name": "imageURL",
              "type": "string"
            },
            {
              "components": [
                {
                  "internalType": "uint16",
                  "name": "traitType",
                  "type": "uint16"
                },
                {
                  "internalType": "uint16",
                  "name": "value",
                  "type": "uint16"
                },
                {
                  "internalType": "string",
                  "name": "numericalValue",
                  "type": "string"
                }
              ],
              "internalType": "struct LeniaDescriptor.LeniaAttribute[]",
              "name": "leniaAttributes",
              "type": "tuple[]"
            }
          ],
          "internalType": "struct LeniaDescriptor.LeniaMetadata",
          "name": "",
          "type": "tuple"
        }
      ],
      "stateMutability": "view",
      "type": "function"
    },
    {
      "inputs": [],
      "name": "getPrice",
      "outputs": [
        {
          "internalType": "uint256",
          "name": "",
          "type": "uint256"
        }
      ],
      "stateMutability": "view",
      "type": "function"
    },
    {
      "inputs": [],
      "name": "getReservedLeft",
      "outputs": [
        {
          "internalType": "uint256",
          "name": "",
          "type": "uint256"
        }
      ],
      "stateMutability": "view",
      "type": "function"
    },
    {
      "inputs": [],
      "name": "hasSaleStarted",
      "outputs": [
        {
          "internalType": "bool",
          "name": "",
          "type": "bool"
        }
      ],
      "stateMutability": "view",
      "type": "function"
    },
    {
      "inputs": [
        {
          "internalType": "address",
          "name": "owner",
          "type": "address"
        },
        {
          "internalType": "address",
          "name": "operator",
          "type": "address"
        }
      ],
      "name": "isApprovedForAll",
      "outputs": [
        {
          "internalType": "bool",
          "name": "",
          "type": "bool"
        }
      ],
      "stateMutability": "view",
      "type": "function"
    },
    {
      "inputs": [],
      "name": "mint",
      "outputs": [],
      "stateMutability": "payable",
      "type": "function"
    },
    {
      "inputs": [],
      "name": "name",
      "outputs": [
        {
          "internalType": "string",
          "name": "",
          "type": "string"
        }
      ],
      "stateMutability": "view",
      "type": "function"
    },
    {
      "inputs": [],
      "name": "owner",
      "outputs": [
        {
          "internalType": "address",
          "name": "",
          "type": "address"
        }
      ],
      "stateMutability": "view",
      "type": "function"
    },
    {
      "inputs": [
        {
          "internalType": "uint256",
          "name": "tokenId",
          "type": "uint256"
        }
      ],
      "name": "ownerOf",
      "outputs": [
        {
          "internalType": "address",
          "name": "",
          "type": "address"
        }
      ],
      "stateMutability": "view",
      "type": "function"
    },
    {
      "inputs": [],
      "name": "renounceOwnership",
      "outputs": [],
      "stateMutability": "nonpayable",
      "type": "function"
    },
    {
      "inputs": [
        {
          "internalType": "address",
          "name": "from",
          "type": "address"
        },
        {
          "internalType": "address",
          "name": "to",
          "type": "address"
        },
        {
          "internalType": "uint256",
          "name": "tokenId",
          "type": "uint256"
        }
      ],
      "name": "safeTransferFrom",
      "outputs": [],
      "stateMutability": "nonpayable",
      "type": "function"
    },
    {
      "inputs": [
        {
          "internalType": "address",
          "name": "from",
          "type": "address"
        },
        {
          "internalType": "address",
          "name": "to",
          "type": "address"
        },
        {
          "internalType": "uint256",
          "name": "tokenId",
          "type": "uint256"
        },
        {
          "internalType": "bytes",
          "name": "_data",
          "type": "bytes"
        }
      ],
      "name": "safeTransferFrom",
      "outputs": [],
      "stateMutability": "nonpayable",
      "type": "function"
    },
    {
      "inputs": [
        {
          "internalType": "address",
          "name": "operator",
          "type": "address"
        },
        {
          "internalType": "bool",
          "name": "approved",
          "type": "bool"
        }
      ],
      "name": "setApprovalForAll",
      "outputs": [],
      "stateMutability": "nonpayable",
      "type": "function"
    },
    {
      "inputs": [
        {
          "internalType": "string",
          "name": "uri",
          "type": "string"
        }
      ],
      "name": "setBaseURI",
      "outputs": [],
      "stateMutability": "nonpayable",
      "type": "function"
    },
    {
      "inputs": [
        {
          "internalType": "uint256",
          "name": "id",
          "type": "uint256"
        },
        {
          "internalType": "bytes",
          "name": "cellsInput",
          "type": "bytes"
        }
      ],
      "name": "setCells",
      "outputs": [],
      "stateMutability": "nonpayable",
      "type": "function"
    },
    {
      "inputs": [
        {
          "internalType": "string",
          "name": "engineInput",
          "type": "string"
        }
      ],
      "name": "setEngine",
      "outputs": [],
      "stateMutability": "nonpayable",
      "type": "function"
    },
    {
      "inputs": [
        {
          "internalType": "uint256",
          "name": "id",
          "type": "uint256"
        },
        {
          "internalType": "string",
          "name": "m",
          "type": "string"
        },
        {
          "internalType": "string",
          "name": "s",
          "type": "string"
        }
      ],
      "name": "setLeniaParams",
      "outputs": [],
      "stateMutability": "nonpayable",
      "type": "function"
    },
    {
      "inputs": [
        {
          "internalType": "uint256",
          "name": "id",
          "type": "uint256"
        },
        {
          "internalType": "string",
          "name": "paddedID",
          "type": "string"
        },
        {
          "internalType": "string",
          "name": "imageURL",
          "type": "string"
        },
        {
          "components": [
            {
              "internalType": "uint16",
              "name": "traitType",
              "type": "uint16"
            },
            {
              "internalType": "uint16",
              "name": "value",
              "type": "uint16"
            },
            {
              "internalType": "string",
              "name": "numericalValue",
              "type": "string"
            }
          ],
          "internalType": "struct LeniaDescriptor.LeniaAttribute[]",
          "name": "attributes",
          "type": "tuple[]"
        }
      ],
      "name": "setMetadata",
      "outputs": [],
      "stateMutability": "nonpayable",
      "type": "function"
    },
    {
      "inputs": [
        {
          "internalType": "uint256",
          "name": "_newPrice",
          "type": "uint256"
        }
      ],
      "name": "setPrice",
      "outputs": [],
      "stateMutability": "nonpayable",
      "type": "function"
    },
    {
      "inputs": [
        {
          "internalType": "bytes4",
          "name": "interfaceId",
          "type": "bytes4"
        }
      ],
      "name": "supportsInterface",
      "outputs": [
        {
          "internalType": "bool",
          "name": "",
          "type": "bool"
        }
      ],
      "stateMutability": "view",
      "type": "function"
    },
    {
      "inputs": [],
      "name": "symbol",
      "outputs": [
        {
          "internalType": "string",
          "name": "",
          "type": "string"
        }
      ],
      "stateMutability": "view",
      "type": "function"
    },
    {
      "inputs": [
        {
          "internalType": "uint256",
          "name": "index",
          "type": "uint256"
        }
      ],
      "name": "tokenByIndex",
      "outputs": [
        {
          "internalType": "uint256",
          "name": "",
          "type": "uint256"
        }
      ],
      "stateMutability": "view",
      "type": "function"
    },
    {
      "inputs": [
        {
          "internalType": "address",
          "name": "owner",
          "type": "address"
        },
        {
          "internalType": "uint256",
          "name": "index",
          "type": "uint256"
        }
      ],
      "name": "tokenOfOwnerByIndex",
      "outputs": [
        {
          "internalType": "uint256",
          "name": "",
          "type": "uint256"
        }
      ],
      "stateMutability": "view",
      "type": "function"
    },
    {
      "inputs": [
        {
          "internalType": "uint256",
          "name": "tokenId",
          "type": "uint256"
        }
      ],
      "name": "tokenURI",
      "outputs": [
        {
          "internalType": "string",
          "name": "",
          "type": "string"
        }
      ],
      "stateMutability": "view",
      "type": "function"
    },
    {
      "inputs": [
        {
          "internalType": "address",
          "name": "_owner",
          "type": "address"
        }
      ],
      "name": "tokensOfOwner",
      "outputs": [
        {
          "internalType": "uint256[]",
          "name": "",
          "type": "uint256[]"
        }
      ],
      "stateMutability": "view",
      "type": "function"
    },
    {
      "inputs": [],
      "name": "totalSupply",
      "outputs": [
        {
          "internalType": "uint256",
          "name": "",
          "type": "uint256"
        }
      ],
      "stateMutability": "view",
      "type": "function"
    },
    {
      "inputs": [
        {
          "internalType": "address",
          "name": "from",
          "type": "address"
        },
        {
          "internalType": "address",
          "name": "to",
          "type": "address"
        },
        {
          "internalType": "uint256",
          "name": "tokenId",
          "type": "uint256"
        }
      ],
      "name": "transferFrom",
      "outputs": [],
      "stateMutability": "nonpayable",
      "type": "function"
    },
    {
      "inputs": [
        {
          "internalType": "address",
          "name": "newOwner",
          "type": "address"
        }
      ],
      "name": "transferOwnership",
      "outputs": [],
      "stateMutability": "nonpayable",
      "type": "function"
    }
  ],
  "transactionHash": "0xef96bfff505c1312b0c8d44180020e956c709b4df2390febbe5470e8ce6b87c2",
  "args": [],
  "solcInputHash": "1177458ffb71dbfdcf7df51647a08a1d",
  "bytecode": "0x608060405267016345785d8a0000600b908155600c55600d805461ff00191690553480156200002d57600080fd5b50604051806040016040528060058152602001644c656e696160d81b815250604051806040016040528060058152602001644c454e494160d81b8152508160009080519060200190620000829291906200011b565b508051620000989060019060208401906200011b565b505050620000b5620000af620000c560201b60201c565b620000c9565b600d805460ff19169055620001fe565b3390565b600a80546001600160a01b038381166001600160a01b0319831681179093556040519116919082907f8be0079c531659141344cd1fd0a4f28419497f9722a3daafe3b4186f6b6457e090600090a35050565b8280546200012990620001c1565b90600052602060002090601f0160209004810192826200014d576000855562000198565b82601f106200016857805160ff191683800117855562000198565b8280016001018555821562000198579182015b82811115620001985782518255916020019190600101906200017b565b50620001a6929150620001aa565b5090565b5b80821115620001a65760008155600101620001ab565b600181811c90821680620001d657607f821691505b60208210811415620001f857634e487b7160e01b600052602260045260246000fd5b50919050565b613a51806200020e6000396000f3fe6080604052600436106102855760003560e01c80636c0360eb11610153578063a574cea4116100cb578063c87b56dd1161007f578063e0c9fbc711610064578063e0c9fbc7146106d2578063e985e9c5146106e7578063f2fde38b1461073057600080fd5b8063c87b56dd1461069d578063daa023aa146106bd57600080fd5b8063b0e1d7f3116100b0578063b0e1d7f31461063d578063b419a1161461065d578063b88d4fde1461067d57600080fd5b8063a574cea4146105f0578063afa8ee1d1461061d57600080fd5b80638da5cb5b1161012257806395d89b411161010757806395d89b41146105a657806398d5fdca146105bb578063a22cb465146105d057600080fd5b80638da5cb5b1461056857806391b7f5ed1461058657600080fd5b80636c0360eb146104f157806370a0823114610506578063715018a6146105265780638462151c1461053b57600080fd5b8063261aff4111610201578063489b13ba116101b5578063512379d81161019a578063512379d81461048457806355f804b3146104b15780636352211e146104d157600080fd5b8063489b13ba146104445780634f6ccce71461046457600080fd5b80632f745c59116101e65780632f745c59146103ef57806332cb6b0c1461040f57806342842e0e1461042457600080fd5b8063261aff41146103af5780632b88c5af146103cf57600080fd5b8063095ea7b31161025857806318160ddd1161023d57806318160ddd146103585780631c8b232d1461037757806323b872dd1461038f57600080fd5b8063095ea7b31461032e5780631249c58b1461035057600080fd5b806301ffc9a71461028a57806305957706146102bf57806306fdde03146102e1578063081812fc146102f6575b600080fd5b34801561029657600080fd5b506102aa6102a5366004612f8d565b610750565b60405190151581526020015b60405180910390f35b3480156102cb57600080fd5b506102d4610761565b6040516102b69190613570565b3480156102ed57600080fd5b506102d46107f3565b34801561030257600080fd5b506103166103113660046130e5565b610802565b6040516001600160a01b0390911681526020016102b6565b34801561033a57600080fd5b5061034e610349366004612f63565b6108ad565b005b61034e6109df565b34801561036457600080fd5b506008545b6040519081526020016102b6565b34801561038357600080fd5b50600d5460ff166102aa565b34801561039b57600080fd5b5061034e6103aa366004612e83565b610afb565b3480156103bb57600080fd5b506102d46103ca3660046130e5565b610b82565b3480156103db57600080fd5b5061034e6103ea366004612fc7565b610c28565b3480156103fb57600080fd5b5061036961040a366004612f63565b610c8e565b34801561041b57600080fd5b5061036960ca81565b34801561043057600080fd5b5061034e61043f366004612e83565b610d36565b34801561045057600080fd5b5061034e61045f3660046131d5565b610d51565b34801561047057600080fd5b5061036961047f3660046130e5565b610f01565b34801561049057600080fd5b506104a461049f3660046130e5565b610fa5565b6040516102b69190613737565b3480156104bd57600080fd5b5061034e6104cc366004613039565b6111b1565b3480156104dd57600080fd5b506103166104ec3660046130e5565b611222565b3480156104fd57600080fd5b506102d46112ad565b34801561051257600080fd5b50610369610521366004612e35565b61133b565b34801561053257600080fd5b5061034e6113d5565b34801561054757600080fd5b5061055b610556366004612e35565b61143b565b6040516102b6919061352c565b34801561057457600080fd5b50600a546001600160a01b0316610316565b34801561059257600080fd5b5061034e6105a13660046130e5565b6114dd565b3480156105b257600080fd5b506102d461153c565b3480156105c757600080fd5b50600b54610369565b3480156105dc57600080fd5b5061034e6105eb366004612f27565b61154b565b3480156105fc57600080fd5b5061061061060b3660046130e5565b61162e565b6040516102b69190613583565b34801561062957600080fd5b5061034e610638366004613168565b61195a565b34801561064957600080fd5b5061034e6106583660046130fe565b611a04565b34801561066957600080fd5b5061034e610678366004613121565b611b2a565b34801561068957600080fd5b5061034e610698366004612ebf565b611bac565b3480156106a957600080fd5b506102d46106b83660046130e5565b611c3a565b3480156106c957600080fd5b50600c54610369565b3480156106de57600080fd5b5061034e611d5a565b3480156106f357600080fd5b506102aa610702366004612e50565b6001600160a01b03918216600090815260056020908152604080832093909416825291909152205460ff1690565b34801561073c57600080fd5b5061034e61074b366004612e35565b611de6565b600061075b82611ec5565b92915050565b6060600f805461077090613861565b80601f016020809104026020016040519081016040528092919081815260200182805461079c90613861565b80156107e95780601f106107be576101008083540402835291602001916107e9565b820191906000526020600020905b8154815290600101906020018083116107cc57829003601f168201915b5050505050905090565b60606000805461077090613861565b6000818152600260205260408120546001600160a01b03166108915760405162461bcd60e51b815260206004820152602c60248201527f4552433732313a20617070726f76656420717565727920666f72206e6f6e657860448201527f697374656e7420746f6b656e000000000000000000000000000000000000000060648201526084015b60405180910390fd5b506000908152600460205260409020546001600160a01b031690565b60006108b882611222565b9050806001600160a01b0316836001600160a01b031614156109425760405162461bcd60e51b815260206004820152602160248201527f4552433732313a20617070726f76616c20746f2063757272656e74206f776e6560448201527f72000000000000000000000000000000000000000000000000000000000000006064820152608401610888565b336001600160a01b038216148061095e575061095e8133610702565b6109d05760405162461bcd60e51b815260206004820152603860248201527f4552433732313a20617070726f76652063616c6c6572206973206e6f74206f7760448201527f6e6572206e6f7220617070726f76656420666f7220616c6c00000000000000006064820152608401610888565b6109da8383611f1b565b505050565b600d5460ff16610a315760405162461bcd60e51b815260206004820152601f60248201527f5072696d6172792073616c65206861736e2774207374617274656420796574006044820152606401610888565b6000610a3c60085490565b9050600c5460ca610a4d919061381e565b811115610a9c5760405162461bcd60e51b815260206004820152601460248201527f546f6b656e732061726520736f6c64206f7574210000000000000000000000006044820152606401610888565b34600b541115610aee5760405162461bcd60e51b815260206004820152601960248201527f496e636f6e73697374656e7420616d6f756e742073656e7421000000000000006044820152606401610888565b610af83382611fa1565b50565b610b053382611fbb565b610b775760405162461bcd60e51b815260206004820152603160248201527f4552433732313a207472616e736665722063616c6c6572206973206e6f74206f60448201527f776e6572206e6f7220617070726f7665640000000000000000000000000000006064820152608401610888565b6109da8383836120c3565b606060108260ca8110610b9757610b9761398f565b018054610ba390613861565b80601f0160208091040260200160405190810160405280929190818152602001828054610bcf90613861565b8015610c1c5780601f10610bf157610100808354040283529160200191610c1c565b820191906000526020600020905b815481529060010190602001808311610bff57829003601f168201915b50505050509050919050565b600a546001600160a01b03163314610c825760405162461bcd60e51b815260206004820181905260248201527f4f776e61626c653a2063616c6c6572206973206e6f7420746865206f776e65726044820152606401610888565b6109da600f8383612c8b565b6000610c998361133b565b8210610d0d5760405162461bcd60e51b815260206004820152602b60248201527f455243373231456e756d657261626c653a206f776e657220696e646578206f7560448201527f74206f6620626f756e64730000000000000000000000000000000000000000006064820152608401610888565b506001600160a01b03919091166000908152600660209081526040808320938352929052205490565b6109da83838360405180602001604052806000815250611bac565b600a546001600160a01b03163314610dab5760405162461bcd60e51b815260206004820181905260248201527f4f776e61626c653a2063616c6c6572206973206e6f7420746865206f776e65726044820152606401610888565b600061026e8560ca8110610dc157610dc161398f565b60030201905083816000019080519060200190610ddf929190612d2d565b508251610df59060018301906020860190612d2d565b50600281015460005b8351811015610ef857818110610e1d5760028301805460010181556000525b6000836002018281548110610e3457610e3461398f565b906000526020600020906002020190506000858381518110610e5857610e5861398f565b60209081029190910181015180820151845461ffff90911662010000027fffffffffffffffffffffffffffffffffffffffffffffffffffffffff0000ffff90911617845560408101518051919350610eb7926001860192910190612d2d565b505181547fffffffffffffffffffffffffffffffffffffffffffffffffffffffffffff00001661ffff90911617905580610ef0816138b5565b915050610dfe565b50505050505050565b6000610f0c60085490565b8210610f805760405162461bcd60e51b815260206004820152602c60248201527f455243373231456e756d657261626c653a20676c6f62616c20696e646578206f60448201527f7574206f6620626f756e647300000000000000000000000000000000000000006064820152608401610888565b60088281548110610f9357610f9361398f565b90600052602060002001549050919050565b6040805180820190915260608082526020820152600a546001600160a01b031633146110135760405162461bcd60e51b815260206004820181905260248201527f4f776e61626c653a2063616c6c6572206973206e6f7420746865206f776e65726044820152606401610888565b60ca82106110635760405162461bcd60e51b815260206004820152601060248201527f6964206f7574206f6620626f756e6473000000000000000000000000000000006044820152606401610888565b60da8260ca81106110765761107661398f565b6002020160405180604001604052908160008201805461109590613861565b80601f01602080910402602001604051908101604052809291908181526020018280546110c190613861565b801561110e5780601f106110e35761010080835404028352916020019161110e565b820191906000526020600020905b8154815290600101906020018083116110f157829003601f168201915b5050505050815260200160018201805461112790613861565b80601f016020809104026020016040519081016040528092919081815260200182805461115390613861565b80156111a05780601f10611175576101008083540402835291602001916111a0565b820191906000526020600020905b81548152906001019060200180831161118357829003601f168201915b50505050508152505090505b919050565b600a546001600160a01b0316331461120b5760405162461bcd60e51b815260206004820181905260248201527f4f776e61626c653a2063616c6c6572206973206e6f7420746865206f776e65726044820152606401610888565b805161121e90600e906020840190612d2d565b5050565b6000818152600260205260408120546001600160a01b03168061075b5760405162461bcd60e51b815260206004820152602960248201527f4552433732313a206f776e657220717565727920666f72206e6f6e657869737460448201527f656e7420746f6b656e00000000000000000000000000000000000000000000006064820152608401610888565b600e80546112ba90613861565b80601f01602080910402602001604051908101604052809291908181526020018280546112e690613861565b80156113335780601f1061130857610100808354040283529160200191611333565b820191906000526020600020905b81548152906001019060200180831161131657829003601f168201915b505050505081565b60006001600160a01b0382166113b95760405162461bcd60e51b815260206004820152602a60248201527f4552433732313a2062616c616e636520717565727920666f7220746865207a6560448201527f726f2061646472657373000000000000000000000000000000000000000000006064820152608401610888565b506001600160a01b031660009081526003602052604090205490565b600a546001600160a01b0316331461142f5760405162461bcd60e51b815260206004820181905260248201527f4f776e61626c653a2063616c6c6572206973206e6f7420746865206f776e65726044820152606401610888565b61143960006122b3565b565b606060006114488361133b565b905060008167ffffffffffffffff811115611465576114656139be565b60405190808252806020026020018201604052801561148e578160200160208202803683370190505b50905060005b828110156114d5576114a68582610c8e565b8282815181106114b8576114b861398f565b6020908102919091010152806114cd816138b5565b915050611494565b509392505050565b600a546001600160a01b031633146115375760405162461bcd60e51b815260206004820181905260248201527f4f776e61626c653a2063616c6c6572206973206e6f7420746865206f776e65726044820152606401610888565b600b55565b60606001805461077090613861565b6001600160a01b0382163314156115a45760405162461bcd60e51b815260206004820152601960248201527f4552433732313a20617070726f766520746f2063616c6c6572000000000000006044820152606401610888565b3360008181526005602090815260408083206001600160a01b0387168085529083529281902080547fffffffffffffffffffffffffffffffffffffffffffffffffffffffffffffff001686151590811790915590519081529192917f17307eab39ab6107e8899845ad3d59bd9653f200f220920489ca2b5937696c31910160405180910390a35050565b61165260405180606001604052806060815260200160608152602001606081525090565b600a546001600160a01b031633146116ac5760405162461bcd60e51b815260206004820181905260248201527f4f776e61626c653a2063616c6c6572206973206e6f7420746865206f776e65726044820152606401610888565b60ca82106116fc5760405162461bcd60e51b815260206004820152601060248201527f6964206f7574206f6620626f756e6473000000000000000000000000000000006044820152606401610888565b61026e8260ca81106117105761171061398f565b6003020160405180606001604052908160008201805461172f90613861565b80601f016020809104026020016040519081016040528092919081815260200182805461175b90613861565b80156117a85780601f1061177d576101008083540402835291602001916117a8565b820191906000526020600020905b81548152906001019060200180831161178b57829003601f168201915b505050505081526020016001820180546117c190613861565b80601f01602080910402602001604051908101604052809291908181526020018280546117ed90613861565b801561183a5780601f1061180f5761010080835404028352916020019161183a565b820191906000526020600020905b81548152906001019060200180831161181d57829003601f168201915b5050505050815260200160028201805480602002602001604051908101604052809291908181526020016000905b8282101561194c5760008481526020908190206040805160608101825260028602909201805461ffff8082168552620100009091041693830193909352600183018054929392918401916118bb90613861565b80601f01602080910402602001604051908101604052809291908181526020018280546118e790613861565b80156119345780601f1061190957610100808354040283529160200191611934565b820191906000526020600020905b81548152906001019060200180831161191757829003601f168201915b50505050508152505081526020019060010190611868565b505050915250909392505050565b600a546001600160a01b031633146119b45760405162461bcd60e51b815260206004820181905260248201527f4f776e61626c653a2063616c6c6572206973206e6f7420746865206f776e65726044820152606401610888565b600060da8460ca81106119c9576119c961398f565b600202019050828160000190805190602001906119e7929190612d2d565b5081516119fd9060018301906020850190612d2d565b5050505050565b600a546001600160a01b03163314611a5e5760405162461bcd60e51b815260206004820181905260248201527f4f776e61626c653a2063616c6c6572206973206e6f7420746865206f776e65726044820152606401610888565b600c54821115611ad65760405162461bcd60e51b815260206004820152602360248201527f5468617420776f756c642065786365656420746865206d61782072657365727660448201527f65642e00000000000000000000000000000000000000000000000000000000006064820152608401610888565b6000611ae160085490565b905060005b83811015611b1357611b0183611afc83856137f2565b611fa1565b80611b0b816138b5565b915050611ae6565b5082600c54611b22919061381e565b600c55505050565b600a546001600160a01b03163314611b845760405162461bcd60e51b815260206004820181905260248201527f4f776e61626c653a2063616c6c6572206973206e6f7420746865206f776e65726044820152606401610888565b8060108360ca8110611b9857611b9861398f565b0190805190602001906109da929190612d2d565b611bb63383611fbb565b611c285760405162461bcd60e51b815260206004820152603160248201527f4552433732313a207472616e736665722063616c6c6572206973206e6f74206f60448201527f776e6572206e6f7220617070726f7665640000000000000000000000000000006064820152608401610888565b611c348484848461231d565b50505050565b600d54606090610100900460ff1615611d0757734Bbbd491a058F4b0AFe3FcB597d9F68a035D433b63791b058761026e8460ca8110611c7b57611c7b61398f565b6003020160da8560ca8110611c9257611c9261398f565b600202016040518363ffffffff1660e01b8152600401611cb3929190613643565b60006040518083038186803b158015611ccb57600080fd5b505af4158015611cdf573d6000803e3d6000fd5b505050506040513d6000823e601f3d908101601f1916820160405261075b919081019061306e565b6000611d12836123a6565b90506000815111611d325760405180602001604052806000815250611d53565b80604051602001611d4391906134af565b6040516020818303038152906040525b9392505050565b600a546001600160a01b03163314611db45760405162461bcd60e51b815260206004820181905260248201527f4f776e61626c653a2063616c6c6572206973206e6f7420746865206f776e65726044820152606401610888565b600d80547fffffffffffffffffffffffffffffffffffffffffffffffffffffffffffffff00811660ff90911615179055565b600a546001600160a01b03163314611e405760405162461bcd60e51b815260206004820181905260248201527f4f776e61626c653a2063616c6c6572206973206e6f7420746865206f776e65726044820152606401610888565b6001600160a01b038116611ebc5760405162461bcd60e51b815260206004820152602660248201527f4f776e61626c653a206e6577206f776e657220697320746865207a65726f206160448201527f64647265737300000000000000000000000000000000000000000000000000006064820152608401610888565b610af8816122b3565b60007fffffffff0000000000000000000000000000000000000000000000000000000082167f780e9d6300000000000000000000000000000000000000000000000000000000148061075b575061075b82612478565b600081815260046020526040902080547fffffffffffffffffffffffff0000000000000000000000000000000000000000166001600160a01b0384169081179091558190611f6882611222565b6001600160a01b03167f8c5be1e5ebec7d5bd14f71427d1e84f3dd0314c0f7b2291e5b200ac8c7c3b92560405160405180910390a45050565b61121e82826040518060200160405280600081525061255b565b6000818152600260205260408120546001600160a01b03166120455760405162461bcd60e51b815260206004820152602c60248201527f4552433732313a206f70657261746f7220717565727920666f72206e6f6e657860448201527f697374656e7420746f6b656e00000000000000000000000000000000000000006064820152608401610888565b600061205083611222565b9050806001600160a01b0316846001600160a01b0316148061208b5750836001600160a01b031661208084610802565b6001600160a01b0316145b806120bb57506001600160a01b0380821660009081526005602090815260408083209388168352929052205460ff165b949350505050565b826001600160a01b03166120d682611222565b6001600160a01b0316146121525760405162461bcd60e51b815260206004820152602960248201527f4552433732313a207472616e73666572206f6620746f6b656e2074686174206960448201527f73206e6f74206f776e00000000000000000000000000000000000000000000006064820152608401610888565b6001600160a01b0382166121cd5760405162461bcd60e51b8152602060048201526024808201527f4552433732313a207472616e7366657220746f20746865207a65726f2061646460448201527f72657373000000000000000000000000000000000000000000000000000000006064820152608401610888565b6121d88383836125e4565b6121e3600082611f1b565b6001600160a01b038316600090815260036020526040812080546001929061220c90849061381e565b90915550506001600160a01b038216600090815260036020526040812080546001929061223a9084906137f2565b909155505060008181526002602052604080822080547fffffffffffffffffffffffff0000000000000000000000000000000000000000166001600160a01b0386811691821790925591518493918716917fddf252ad1be2c89b69c2b068fc378daa952ba7f163c4a11628f55a4df523b3ef91a4505050565b600a80546001600160a01b038381167fffffffffffffffffffffffff0000000000000000000000000000000000000000831681179093556040519116919082907f8be0079c531659141344cd1fd0a4f28419497f9722a3daafe3b4186f6b6457e090600090a35050565b6123288484846120c3565b612334848484846125ef565b611c345760405162461bcd60e51b815260206004820152603260248201527f4552433732313a207472616e7366657220746f206e6f6e20455243373231526560448201527f63656976657220696d706c656d656e74657200000000000000000000000000006064820152608401610888565b6000818152600260205260409020546060906001600160a01b03166124335760405162461bcd60e51b815260206004820152602f60248201527f4552433732314d657461646174613a2055524920717565727920666f72206e6f60448201527f6e6578697374656e7420746f6b656e00000000000000000000000000000000006064820152608401610888565b600061243d61279c565b9050600081511161245d5760405180602001604052806000815250611d53565b80612467846127ab565b604051602001611d43929190613480565b60007fffffffff0000000000000000000000000000000000000000000000000000000082167f80ac58cd00000000000000000000000000000000000000000000000000000000148061250b57507fffffffff0000000000000000000000000000000000000000000000000000000082167f5b5e139f00000000000000000000000000000000000000000000000000000000145b8061075b57507f01ffc9a7000000000000000000000000000000000000000000000000000000007fffffffff0000000000000000000000000000000000000000000000000000000083161461075b565b61256583836128dd565b61257260008484846125ef565b6109da5760405162461bcd60e51b815260206004820152603260248201527f4552433732313a207472616e7366657220746f206e6f6e20455243373231526560448201527f63656976657220696d706c656d656e74657200000000000000000000000000006064820152608401610888565b6109da838383612a43565b60006001600160a01b0384163b15612791576040517f150b7a020000000000000000000000000000000000000000000000000000000081526001600160a01b0385169063150b7a029061264c9033908990889088906004016134f0565b602060405180830381600087803b15801561266657600080fd5b505af1925050508015612696575060408051601f3d908101601f1916820190925261269391810190612faa565b60015b612746573d8080156126c4576040519150601f19603f3d011682016040523d82523d6000602084013e6126c9565b606091505b50805161273e5760405162461bcd60e51b815260206004820152603260248201527f4552433732313a207472616e7366657220746f206e6f6e20455243373231526560448201527f63656976657220696d706c656d656e74657200000000000000000000000000006064820152608401610888565b805181602001fd5b7fffffffff00000000000000000000000000000000000000000000000000000000167f150b7a02000000000000000000000000000000000000000000000000000000001490506120bb565b506001949350505050565b6060600e805461077090613861565b6060816127eb57505060408051808201909152600181527f3000000000000000000000000000000000000000000000000000000000000000602082015290565b8160005b811561281557806127ff816138b5565b915061280e9050600a8361380a565b91506127ef565b60008167ffffffffffffffff811115612830576128306139be565b6040519080825280601f01601f19166020018201604052801561285a576020820181803683370190505b5090505b84156120bb5761286f60018361381e565b915061287c600a866138ee565b6128879060306137f2565b60f81b81838151811061289c5761289c61398f565b60200101907effffffffffffffffffffffffffffffffffffffffffffffffffffffffffffff1916908160001a9053506128d6600a8661380a565b945061285e565b6001600160a01b0382166129335760405162461bcd60e51b815260206004820181905260248201527f4552433732313a206d696e7420746f20746865207a65726f20616464726573736044820152606401610888565b6000818152600260205260409020546001600160a01b0316156129985760405162461bcd60e51b815260206004820152601c60248201527f4552433732313a20746f6b656e20616c7265616479206d696e746564000000006044820152606401610888565b6129a4600083836125e4565b6001600160a01b03821660009081526003602052604081208054600192906129cd9084906137f2565b909155505060008181526002602052604080822080547fffffffffffffffffffffffff0000000000000000000000000000000000000000166001600160a01b03861690811790915590518392907fddf252ad1be2c89b69c2b068fc378daa952ba7f163c4a11628f55a4df523b3ef908290a45050565b6001600160a01b038316612a9e57612a9981600880546000838152600960205260408120829055600182018355919091527ff3f7a9fe364faab93b216da50a3214154f22a0a2b415b23a84c8169e8b636ee30155565b612ac1565b816001600160a01b0316836001600160a01b031614612ac157612ac18382612afb565b6001600160a01b038216612ad8576109da81612b98565b826001600160a01b0316826001600160a01b0316146109da576109da8282612c47565b60006001612b088461133b565b612b12919061381e565b600083815260076020526040902054909150808214612b65576001600160a01b03841660009081526006602090815260408083208584528252808320548484528184208190558352600790915290208190555b5060009182526007602090815260408084208490556001600160a01b039094168352600681528383209183525290812055565b600854600090612baa9060019061381e565b60008381526009602052604081205460088054939450909284908110612bd257612bd261398f565b906000526020600020015490508060088381548110612bf357612bf361398f565b6000918252602080832090910192909255828152600990915260408082208490558582528120556008805480612c2b57612c2b613960565b6001900381819060005260206000200160009055905550505050565b6000612c528361133b565b6001600160a01b039093166000908152600660209081526040808320868452825280832085905593825260079052919091209190915550565b828054612c9790613861565b90600052602060002090601f016020900481019282612cb95760008555612d1d565b82601f10612cf0578280017fffffffffffffffffffffffffffffffffffffffffffffffffffffffffffffff00823516178555612d1d565b82800160010185558215612d1d579182015b82811115612d1d578235825591602001919060010190612d02565b50612d29929150612da1565b5090565b828054612d3990613861565b90600052602060002090601f016020900481019282612d5b5760008555612d1d565b82601f10612d7457805160ff1916838001178555612d1d565b82800160010185558215612d1d579182015b82811115612d1d578251825591602001919060010190612d86565b5b80821115612d295760008155600101612da2565b80356001600160a01b03811681146111ac57600080fd5b600082601f830112612dde57600080fd5b8135612df1612dec826137ca565b613799565b818152846020838601011115612e0657600080fd5b816020850160208301376000918101602001919091529392505050565b803561ffff811681146111ac57600080fd5b600060208284031215612e4757600080fd5b611d5382612db6565b60008060408385031215612e6357600080fd5b612e6c83612db6565b9150612e7a60208401612db6565b90509250929050565b600080600060608486031215612e9857600080fd5b612ea184612db6565b9250612eaf60208501612db6565b9150604084013590509250925092565b60008060008060808587031215612ed557600080fd5b612ede85612db6565b9350612eec60208601612db6565b925060408501359150606085013567ffffffffffffffff811115612f0f57600080fd5b612f1b87828801612dcd565b91505092959194509250565b60008060408385031215612f3a57600080fd5b612f4383612db6565b915060208301358015158114612f5857600080fd5b809150509250929050565b60008060408385031215612f7657600080fd5b612f7f83612db6565b946020939093013593505050565b600060208284031215612f9f57600080fd5b8135611d53816139ed565b600060208284031215612fbc57600080fd5b8151611d53816139ed565b60008060208385031215612fda57600080fd5b823567ffffffffffffffff80821115612ff257600080fd5b818501915085601f83011261300657600080fd5b81358181111561301557600080fd5b86602082850101111561302757600080fd5b60209290920196919550909350505050565b60006020828403121561304b57600080fd5b813567ffffffffffffffff81111561306257600080fd5b6120bb84828501612dcd565b60006020828403121561308057600080fd5b815167ffffffffffffffff81111561309757600080fd5b8201601f810184136130a857600080fd5b80516130b6612dec826137ca565b8181528560208385010111156130cb57600080fd5b6130dc826020830160208601613835565b95945050505050565b6000602082840312156130f757600080fd5b5035919050565b6000806040838503121561311157600080fd5b82359150612e7a60208401612db6565b6000806040838503121561313457600080fd5b82359150602083013567ffffffffffffffff81111561315257600080fd5b61315e85828601612dcd565b9150509250929050565b60008060006060848603121561317d57600080fd5b83359250602084013567ffffffffffffffff8082111561319c57600080fd5b6131a887838801612dcd565b935060408601359150808211156131be57600080fd5b506131cb86828701612dcd565b9150509250925092565b600080600080608085870312156131eb57600080fd5b8435935067ffffffffffffffff806020870135111561320957600080fd5b6132198760208801358801612dcd565b9350806040870135111561322c57600080fd5b61323c8760408801358801612dcd565b9250806060870135111561324f57600080fd5b6060860135860187601f82011261326557600080fd5b8181351115613276576132766139be565b6132866020823560051b01613799565b8082358252602082019150602083018a6020853560051b86010111156132ab57600080fd5b60005b84358110156133435785823511156132c557600080fd5b813585016060601f19828f030112156132dd57600080fd5b6132e5613770565b6132f160208301612e23565b81526132ff60408301612e23565b6020820152876060830135111561331557600080fd5b6133288e60206060850135850101612dcd565b604082015285525060209384019391909101906001016132ae565b50508094505050505092959194509250565b6000815180845261336d816020860160208601613835565b601f01601f19169290920160200192915050565b8054600090600181811c908083168061339b57607f831692505b60208084108214156133d6577f4e487b7100000000000000000000000000000000000000000000000000000000600052602260045260246000fd5b838852602088018280156133f157600181146134205761344b565b7fffffffffffffffffffffffffffffffffffffffffffffffffffffffffffffff0087168252828201975061344b565b60008981526020902060005b878110156134455781548482015290860190840161342c565b83019850505b5050505050505092915050565b60408252600061346b6040840183613381565b83810360208501526120bb8160018501613381565b60008351613492818460208801613835565b8351908301906134a6818360208801613835565b01949350505050565b600082516134c1818460208701613835565b7f2e6a736f6e000000000000000000000000000000000000000000000000000000920191825250600501919050565b60006001600160a01b038087168352808616602084015250836040830152608060608301526135226080830184613355565b9695505050505050565b6020808252825182820181905260009190848201906040850190845b8181101561356457835183529284019291840191600101613548565b50909695505050505050565b602081526000611d536020830184613355565b600060208083528351606080838601526135a06080860183613355565b915082860151601f1960408188860301818901526135be8584613355565b898201518982038401868b015280518083529196508701935086860190600581901b8701880160005b8281101561363357888203860184528651805161ffff90811684528b820151168b84015285015185830189905261362089840182613355565b978b0197948b01949250506001016135e7565b509b9a5050505050505050505050565b600060408083526060808285015261365e60a0850187613381565b60017fffffffffffffffffffffffffffffffffffffffffffffffffffffffffffffffc080878403018488015261369683838b01613381565b878103909101608088015260028981018054808452600091825260208083209496508087019492600583901b88018201905b8381101561371357601f19898303018752845461ffff8082168452808260101c16858501525050898b8301526137028a8301898701613381565b9683019694860194915087016136c8565b508b8103828d0152613725818e613458565b9e9d5050505050505050505050505050565b6020815260008251604060208401526137536060840182613355565b90506020840151601f198483030160408501526130dc8282613355565b6040516060810167ffffffffffffffff81118282101715613793576137936139be565b60405290565b604051601f8201601f1916810167ffffffffffffffff811182821017156137c2576137c26139be565b604052919050565b600067ffffffffffffffff8211156137e4576137e46139be565b50601f01601f191660200190565b6000821982111561380557613805613902565b500190565b60008261381957613819613931565b500490565b60008282101561383057613830613902565b500390565b60005b83811015613850578181015183820152602001613838565b83811115611c345750506000910152565b600181811c9082168061387557607f821691505b602082108114156138af577f4e487b7100000000000000000000000000000000000000000000000000000000600052602260045260246000fd5b50919050565b60007fffffffffffffffffffffffffffffffffffffffffffffffffffffffffffffffff8214156138e7576138e7613902565b5060010190565b6000826138fd576138fd613931565b500690565b7f4e487b7100000000000000000000000000000000000000000000000000000000600052601160045260246000fd5b7f4e487b7100000000000000000000000000000000000000000000000000000000600052601260045260246000fd5b7f4e487b7100000000000000000000000000000000000000000000000000000000600052603160045260246000fd5b7f4e487b7100000000000000000000000000000000000000000000000000000000600052603260045260246000fd5b7f4e487b7100000000000000000000000000000000000000000000000000000000600052604160045260246000fd5b7fffffffff0000000000000000000000000000000000000000000000000000000081168114610af857600080fdfea2646970667358221220c766546cbc112335d3ba8dbb12f59c766df285835c7a1af3bc705607e8bdadff64736f6c63430008060033",
  "deployedBytecode": "0x6080604052600436106102855760003560e01c80636c0360eb11610153578063a574cea4116100cb578063c87b56dd1161007f578063e0c9fbc711610064578063e0c9fbc7146106d2578063e985e9c5146106e7578063f2fde38b1461073057600080fd5b8063c87b56dd1461069d578063daa023aa146106bd57600080fd5b8063b0e1d7f3116100b0578063b0e1d7f31461063d578063b419a1161461065d578063b88d4fde1461067d57600080fd5b8063a574cea4146105f0578063afa8ee1d1461061d57600080fd5b80638da5cb5b1161012257806395d89b411161010757806395d89b41146105a657806398d5fdca146105bb578063a22cb465146105d057600080fd5b80638da5cb5b1461056857806391b7f5ed1461058657600080fd5b80636c0360eb146104f157806370a0823114610506578063715018a6146105265780638462151c1461053b57600080fd5b8063261aff4111610201578063489b13ba116101b5578063512379d81161019a578063512379d81461048457806355f804b3146104b15780636352211e146104d157600080fd5b8063489b13ba146104445780634f6ccce71461046457600080fd5b80632f745c59116101e65780632f745c59146103ef57806332cb6b0c1461040f57806342842e0e1461042457600080fd5b8063261aff41146103af5780632b88c5af146103cf57600080fd5b8063095ea7b31161025857806318160ddd1161023d57806318160ddd146103585780631c8b232d1461037757806323b872dd1461038f57600080fd5b8063095ea7b31461032e5780631249c58b1461035057600080fd5b806301ffc9a71461028a57806305957706146102bf57806306fdde03146102e1578063081812fc146102f6575b600080fd5b34801561029657600080fd5b506102aa6102a5366004612f8d565b610750565b60405190151581526020015b60405180910390f35b3480156102cb57600080fd5b506102d4610761565b6040516102b69190613570565b3480156102ed57600080fd5b506102d46107f3565b34801561030257600080fd5b506103166103113660046130e5565b610802565b6040516001600160a01b0390911681526020016102b6565b34801561033a57600080fd5b5061034e610349366004612f63565b6108ad565b005b61034e6109df565b34801561036457600080fd5b506008545b6040519081526020016102b6565b34801561038357600080fd5b50600d5460ff166102aa565b34801561039b57600080fd5b5061034e6103aa366004612e83565b610afb565b3480156103bb57600080fd5b506102d46103ca3660046130e5565b610b82565b3480156103db57600080fd5b5061034e6103ea366004612fc7565b610c28565b3480156103fb57600080fd5b5061036961040a366004612f63565b610c8e565b34801561041b57600080fd5b5061036960ca81565b34801561043057600080fd5b5061034e61043f366004612e83565b610d36565b34801561045057600080fd5b5061034e61045f3660046131d5565b610d51565b34801561047057600080fd5b5061036961047f3660046130e5565b610f01565b34801561049057600080fd5b506104a461049f3660046130e5565b610fa5565b6040516102b69190613737565b3480156104bd57600080fd5b5061034e6104cc366004613039565b6111b1565b3480156104dd57600080fd5b506103166104ec3660046130e5565b611222565b3480156104fd57600080fd5b506102d46112ad565b34801561051257600080fd5b50610369610521366004612e35565b61133b565b34801561053257600080fd5b5061034e6113d5565b34801561054757600080fd5b5061055b610556366004612e35565b61143b565b6040516102b6919061352c565b34801561057457600080fd5b50600a546001600160a01b0316610316565b34801561059257600080fd5b5061034e6105a13660046130e5565b6114dd565b3480156105b257600080fd5b506102d461153c565b3480156105c757600080fd5b50600b54610369565b3480156105dc57600080fd5b5061034e6105eb366004612f27565b61154b565b3480156105fc57600080fd5b5061061061060b3660046130e5565b61162e565b6040516102b69190613583565b34801561062957600080fd5b5061034e610638366004613168565b61195a565b34801561064957600080fd5b5061034e6106583660046130fe565b611a04565b34801561066957600080fd5b5061034e610678366004613121565b611b2a565b34801561068957600080fd5b5061034e610698366004612ebf565b611bac565b3480156106a957600080fd5b506102d46106b83660046130e5565b611c3a565b3480156106c957600080fd5b50600c54610369565b3480156106de57600080fd5b5061034e611d5a565b3480156106f357600080fd5b506102aa610702366004612e50565b6001600160a01b03918216600090815260056020908152604080832093909416825291909152205460ff1690565b34801561073c57600080fd5b5061034e61074b366004612e35565b611de6565b600061075b82611ec5565b92915050565b6060600f805461077090613861565b80601f016020809104026020016040519081016040528092919081815260200182805461079c90613861565b80156107e95780601f106107be576101008083540402835291602001916107e9565b820191906000526020600020905b8154815290600101906020018083116107cc57829003601f168201915b5050505050905090565b60606000805461077090613861565b6000818152600260205260408120546001600160a01b03166108915760405162461bcd60e51b815260206004820152602c60248201527f4552433732313a20617070726f76656420717565727920666f72206e6f6e657860448201527f697374656e7420746f6b656e000000000000000000000000000000000000000060648201526084015b60405180910390fd5b506000908152600460205260409020546001600160a01b031690565b60006108b882611222565b9050806001600160a01b0316836001600160a01b031614156109425760405162461bcd60e51b815260206004820152602160248201527f4552433732313a20617070726f76616c20746f2063757272656e74206f776e6560448201527f72000000000000000000000000000000000000000000000000000000000000006064820152608401610888565b336001600160a01b038216148061095e575061095e8133610702565b6109d05760405162461bcd60e51b815260206004820152603860248201527f4552433732313a20617070726f76652063616c6c6572206973206e6f74206f7760448201527f6e6572206e6f7220617070726f76656420666f7220616c6c00000000000000006064820152608401610888565b6109da8383611f1b565b505050565b600d5460ff16610a315760405162461bcd60e51b815260206004820152601f60248201527f5072696d6172792073616c65206861736e2774207374617274656420796574006044820152606401610888565b6000610a3c60085490565b9050600c5460ca610a4d919061381e565b811115610a9c5760405162461bcd60e51b815260206004820152601460248201527f546f6b656e732061726520736f6c64206f7574210000000000000000000000006044820152606401610888565b34600b541115610aee5760405162461bcd60e51b815260206004820152601960248201527f496e636f6e73697374656e7420616d6f756e742073656e7421000000000000006044820152606401610888565b610af83382611fa1565b50565b610b053382611fbb565b610b775760405162461bcd60e51b815260206004820152603160248201527f4552433732313a207472616e736665722063616c6c6572206973206e6f74206f60448201527f776e6572206e6f7220617070726f7665640000000000000000000000000000006064820152608401610888565b6109da8383836120c3565b606060108260ca8110610b9757610b9761398f565b018054610ba390613861565b80601f0160208091040260200160405190810160405280929190818152602001828054610bcf90613861565b8015610c1c5780601f10610bf157610100808354040283529160200191610c1c565b820191906000526020600020905b815481529060010190602001808311610bff57829003601f168201915b50505050509050919050565b600a546001600160a01b03163314610c825760405162461bcd60e51b815260206004820181905260248201527f4f776e61626c653a2063616c6c6572206973206e6f7420746865206f776e65726044820152606401610888565b6109da600f8383612c8b565b6000610c998361133b565b8210610d0d5760405162461bcd60e51b815260206004820152602b60248201527f455243373231456e756d657261626c653a206f776e657220696e646578206f7560448201527f74206f6620626f756e64730000000000000000000000000000000000000000006064820152608401610888565b506001600160a01b03919091166000908152600660209081526040808320938352929052205490565b6109da83838360405180602001604052806000815250611bac565b600a546001600160a01b03163314610dab5760405162461bcd60e51b815260206004820181905260248201527f4f776e61626c653a2063616c6c6572206973206e6f7420746865206f776e65726044820152606401610888565b600061026e8560ca8110610dc157610dc161398f565b60030201905083816000019080519060200190610ddf929190612d2d565b508251610df59060018301906020860190612d2d565b50600281015460005b8351811015610ef857818110610e1d5760028301805460010181556000525b6000836002018281548110610e3457610e3461398f565b906000526020600020906002020190506000858381518110610e5857610e5861398f565b60209081029190910181015180820151845461ffff90911662010000027fffffffffffffffffffffffffffffffffffffffffffffffffffffffff0000ffff90911617845560408101518051919350610eb7926001860192910190612d2d565b505181547fffffffffffffffffffffffffffffffffffffffffffffffffffffffffffff00001661ffff90911617905580610ef0816138b5565b915050610dfe565b50505050505050565b6000610f0c60085490565b8210610f805760405162461bcd60e51b815260206004820152602c60248201527f455243373231456e756d657261626c653a20676c6f62616c20696e646578206f60448201527f7574206f6620626f756e647300000000000000000000000000000000000000006064820152608401610888565b60088281548110610f9357610f9361398f565b90600052602060002001549050919050565b6040805180820190915260608082526020820152600a546001600160a01b031633146110135760405162461bcd60e51b815260206004820181905260248201527f4f776e61626c653a2063616c6c6572206973206e6f7420746865206f776e65726044820152606401610888565b60ca82106110635760405162461bcd60e51b815260206004820152601060248201527f6964206f7574206f6620626f756e6473000000000000000000000000000000006044820152606401610888565b60da8260ca81106110765761107661398f565b6002020160405180604001604052908160008201805461109590613861565b80601f01602080910402602001604051908101604052809291908181526020018280546110c190613861565b801561110e5780601f106110e35761010080835404028352916020019161110e565b820191906000526020600020905b8154815290600101906020018083116110f157829003601f168201915b5050505050815260200160018201805461112790613861565b80601f016020809104026020016040519081016040528092919081815260200182805461115390613861565b80156111a05780601f10611175576101008083540402835291602001916111a0565b820191906000526020600020905b81548152906001019060200180831161118357829003601f168201915b50505050508152505090505b919050565b600a546001600160a01b0316331461120b5760405162461bcd60e51b815260206004820181905260248201527f4f776e61626c653a2063616c6c6572206973206e6f7420746865206f776e65726044820152606401610888565b805161121e90600e906020840190612d2d565b5050565b6000818152600260205260408120546001600160a01b03168061075b5760405162461bcd60e51b815260206004820152602960248201527f4552433732313a206f776e657220717565727920666f72206e6f6e657869737460448201527f656e7420746f6b656e00000000000000000000000000000000000000000000006064820152608401610888565b600e80546112ba90613861565b80601f01602080910402602001604051908101604052809291908181526020018280546112e690613861565b80156113335780601f1061130857610100808354040283529160200191611333565b820191906000526020600020905b81548152906001019060200180831161131657829003601f168201915b505050505081565b60006001600160a01b0382166113b95760405162461bcd60e51b815260206004820152602a60248201527f4552433732313a2062616c616e636520717565727920666f7220746865207a6560448201527f726f2061646472657373000000000000000000000000000000000000000000006064820152608401610888565b506001600160a01b031660009081526003602052604090205490565b600a546001600160a01b0316331461142f5760405162461bcd60e51b815260206004820181905260248201527f4f776e61626c653a2063616c6c6572206973206e6f7420746865206f776e65726044820152606401610888565b61143960006122b3565b565b606060006114488361133b565b905060008167ffffffffffffffff811115611465576114656139be565b60405190808252806020026020018201604052801561148e578160200160208202803683370190505b50905060005b828110156114d5576114a68582610c8e565b8282815181106114b8576114b861398f565b6020908102919091010152806114cd816138b5565b915050611494565b509392505050565b600a546001600160a01b031633146115375760405162461bcd60e51b815260206004820181905260248201527f4f776e61626c653a2063616c6c6572206973206e6f7420746865206f776e65726044820152606401610888565b600b55565b60606001805461077090613861565b6001600160a01b0382163314156115a45760405162461bcd60e51b815260206004820152601960248201527f4552433732313a20617070726f766520746f2063616c6c6572000000000000006044820152606401610888565b3360008181526005602090815260408083206001600160a01b0387168085529083529281902080547fffffffffffffffffffffffffffffffffffffffffffffffffffffffffffffff001686151590811790915590519081529192917f17307eab39ab6107e8899845ad3d59bd9653f200f220920489ca2b5937696c31910160405180910390a35050565b61165260405180606001604052806060815260200160608152602001606081525090565b600a546001600160a01b031633146116ac5760405162461bcd60e51b815260206004820181905260248201527f4f776e61626c653a2063616c6c6572206973206e6f7420746865206f776e65726044820152606401610888565b60ca82106116fc5760405162461bcd60e51b815260206004820152601060248201527f6964206f7574206f6620626f756e6473000000000000000000000000000000006044820152606401610888565b61026e8260ca81106117105761171061398f565b6003020160405180606001604052908160008201805461172f90613861565b80601f016020809104026020016040519081016040528092919081815260200182805461175b90613861565b80156117a85780601f1061177d576101008083540402835291602001916117a8565b820191906000526020600020905b81548152906001019060200180831161178b57829003601f168201915b505050505081526020016001820180546117c190613861565b80601f01602080910402602001604051908101604052809291908181526020018280546117ed90613861565b801561183a5780601f1061180f5761010080835404028352916020019161183a565b820191906000526020600020905b81548152906001019060200180831161181d57829003601f168201915b5050505050815260200160028201805480602002602001604051908101604052809291908181526020016000905b8282101561194c5760008481526020908190206040805160608101825260028602909201805461ffff8082168552620100009091041693830193909352600183018054929392918401916118bb90613861565b80601f01602080910402602001604051908101604052809291908181526020018280546118e790613861565b80156119345780601f1061190957610100808354040283529160200191611934565b820191906000526020600020905b81548152906001019060200180831161191757829003601f168201915b50505050508152505081526020019060010190611868565b505050915250909392505050565b600a546001600160a01b031633146119b45760405162461bcd60e51b815260206004820181905260248201527f4f776e61626c653a2063616c6c6572206973206e6f7420746865206f776e65726044820152606401610888565b600060da8460ca81106119c9576119c961398f565b600202019050828160000190805190602001906119e7929190612d2d565b5081516119fd9060018301906020850190612d2d565b5050505050565b600a546001600160a01b03163314611a5e5760405162461bcd60e51b815260206004820181905260248201527f4f776e61626c653a2063616c6c6572206973206e6f7420746865206f776e65726044820152606401610888565b600c54821115611ad65760405162461bcd60e51b815260206004820152602360248201527f5468617420776f756c642065786365656420746865206d61782072657365727660448201527f65642e00000000000000000000000000000000000000000000000000000000006064820152608401610888565b6000611ae160085490565b905060005b83811015611b1357611b0183611afc83856137f2565b611fa1565b80611b0b816138b5565b915050611ae6565b5082600c54611b22919061381e565b600c55505050565b600a546001600160a01b03163314611b845760405162461bcd60e51b815260206004820181905260248201527f4f776e61626c653a2063616c6c6572206973206e6f7420746865206f776e65726044820152606401610888565b8060108360ca8110611b9857611b9861398f565b0190805190602001906109da929190612d2d565b611bb63383611fbb565b611c285760405162461bcd60e51b815260206004820152603160248201527f4552433732313a207472616e736665722063616c6c6572206973206e6f74206f60448201527f776e6572206e6f7220617070726f7665640000000000000000000000000000006064820152608401610888565b611c348484848461231d565b50505050565b600d54606090610100900460ff1615611d075773__$6ca4c9a272396ac50a3dff0df8f353fb3d$__63791b058761026e8460ca8110611c7b57611c7b61398f565b6003020160da8560ca8110611c9257611c9261398f565b600202016040518363ffffffff1660e01b8152600401611cb3929190613643565b60006040518083038186803b158015611ccb57600080fd5b505af4158015611cdf573d6000803e3d6000fd5b505050506040513d6000823e601f3d908101601f1916820160405261075b919081019061306e565b6000611d12836123a6565b90506000815111611d325760405180602001604052806000815250611d53565b80604051602001611d4391906134af565b6040516020818303038152906040525b9392505050565b600a546001600160a01b03163314611db45760405162461bcd60e51b815260206004820181905260248201527f4f776e61626c653a2063616c6c6572206973206e6f7420746865206f776e65726044820152606401610888565b600d80547fffffffffffffffffffffffffffffffffffffffffffffffffffffffffffffff00811660ff90911615179055565b600a546001600160a01b03163314611e405760405162461bcd60e51b815260206004820181905260248201527f4f776e61626c653a2063616c6c6572206973206e6f7420746865206f776e65726044820152606401610888565b6001600160a01b038116611ebc5760405162461bcd60e51b815260206004820152602660248201527f4f776e61626c653a206e6577206f776e657220697320746865207a65726f206160448201527f64647265737300000000000000000000000000000000000000000000000000006064820152608401610888565b610af8816122b3565b60007fffffffff0000000000000000000000000000000000000000000000000000000082167f780e9d6300000000000000000000000000000000000000000000000000000000148061075b575061075b82612478565b600081815260046020526040902080547fffffffffffffffffffffffff0000000000000000000000000000000000000000166001600160a01b0384169081179091558190611f6882611222565b6001600160a01b03167f8c5be1e5ebec7d5bd14f71427d1e84f3dd0314c0f7b2291e5b200ac8c7c3b92560405160405180910390a45050565b61121e82826040518060200160405280600081525061255b565b6000818152600260205260408120546001600160a01b03166120455760405162461bcd60e51b815260206004820152602c60248201527f4552433732313a206f70657261746f7220717565727920666f72206e6f6e657860448201527f697374656e7420746f6b656e00000000000000000000000000000000000000006064820152608401610888565b600061205083611222565b9050806001600160a01b0316846001600160a01b0316148061208b5750836001600160a01b031661208084610802565b6001600160a01b0316145b806120bb57506001600160a01b0380821660009081526005602090815260408083209388168352929052205460ff165b949350505050565b826001600160a01b03166120d682611222565b6001600160a01b0316146121525760405162461bcd60e51b815260206004820152602960248201527f4552433732313a207472616e73666572206f6620746f6b656e2074686174206960448201527f73206e6f74206f776e00000000000000000000000000000000000000000000006064820152608401610888565b6001600160a01b0382166121cd5760405162461bcd60e51b8152602060048201526024808201527f4552433732313a207472616e7366657220746f20746865207a65726f2061646460448201527f72657373000000000000000000000000000000000000000000000000000000006064820152608401610888565b6121d88383836125e4565b6121e3600082611f1b565b6001600160a01b038316600090815260036020526040812080546001929061220c90849061381e565b90915550506001600160a01b038216600090815260036020526040812080546001929061223a9084906137f2565b909155505060008181526002602052604080822080547fffffffffffffffffffffffff0000000000000000000000000000000000000000166001600160a01b0386811691821790925591518493918716917fddf252ad1be2c89b69c2b068fc378daa952ba7f163c4a11628f55a4df523b3ef91a4505050565b600a80546001600160a01b038381167fffffffffffffffffffffffff0000000000000000000000000000000000000000831681179093556040519116919082907f8be0079c531659141344cd1fd0a4f28419497f9722a3daafe3b4186f6b6457e090600090a35050565b6123288484846120c3565b612334848484846125ef565b611c345760405162461bcd60e51b815260206004820152603260248201527f4552433732313a207472616e7366657220746f206e6f6e20455243373231526560448201527f63656976657220696d706c656d656e74657200000000000000000000000000006064820152608401610888565b6000818152600260205260409020546060906001600160a01b03166124335760405162461bcd60e51b815260206004820152602f60248201527f4552433732314d657461646174613a2055524920717565727920666f72206e6f60448201527f6e6578697374656e7420746f6b656e00000000000000000000000000000000006064820152608401610888565b600061243d61279c565b9050600081511161245d5760405180602001604052806000815250611d53565b80612467846127ab565b604051602001611d43929190613480565b60007fffffffff0000000000000000000000000000000000000000000000000000000082167f80ac58cd00000000000000000000000000000000000000000000000000000000148061250b57507fffffffff0000000000000000000000000000000000000000000000000000000082167f5b5e139f00000000000000000000000000000000000000000000000000000000145b8061075b57507f01ffc9a7000000000000000000000000000000000000000000000000000000007fffffffff0000000000000000000000000000000000000000000000000000000083161461075b565b61256583836128dd565b61257260008484846125ef565b6109da5760405162461bcd60e51b815260206004820152603260248201527f4552433732313a207472616e7366657220746f206e6f6e20455243373231526560448201527f63656976657220696d706c656d656e74657200000000000000000000000000006064820152608401610888565b6109da838383612a43565b60006001600160a01b0384163b15612791576040517f150b7a020000000000000000000000000000000000000000000000000000000081526001600160a01b0385169063150b7a029061264c9033908990889088906004016134f0565b602060405180830381600087803b15801561266657600080fd5b505af1925050508015612696575060408051601f3d908101601f1916820190925261269391810190612faa565b60015b612746573d8080156126c4576040519150601f19603f3d011682016040523d82523d6000602084013e6126c9565b606091505b50805161273e5760405162461bcd60e51b815260206004820152603260248201527f4552433732313a207472616e7366657220746f206e6f6e20455243373231526560448201527f63656976657220696d706c656d656e74657200000000000000000000000000006064820152608401610888565b805181602001fd5b7fffffffff00000000000000000000000000000000000000000000000000000000167f150b7a02000000000000000000000000000000000000000000000000000000001490506120bb565b506001949350505050565b6060600e805461077090613861565b6060816127eb57505060408051808201909152600181527f3000000000000000000000000000000000000000000000000000000000000000602082015290565b8160005b811561281557806127ff816138b5565b915061280e9050600a8361380a565b91506127ef565b60008167ffffffffffffffff811115612830576128306139be565b6040519080825280601f01601f19166020018201604052801561285a576020820181803683370190505b5090505b84156120bb5761286f60018361381e565b915061287c600a866138ee565b6128879060306137f2565b60f81b81838151811061289c5761289c61398f565b60200101907effffffffffffffffffffffffffffffffffffffffffffffffffffffffffffff1916908160001a9053506128d6600a8661380a565b945061285e565b6001600160a01b0382166129335760405162461bcd60e51b815260206004820181905260248201527f4552433732313a206d696e7420746f20746865207a65726f20616464726573736044820152606401610888565b6000818152600260205260409020546001600160a01b0316156129985760405162461bcd60e51b815260206004820152601c60248201527f4552433732313a20746f6b656e20616c7265616479206d696e746564000000006044820152606401610888565b6129a4600083836125e4565b6001600160a01b03821660009081526003602052604081208054600192906129cd9084906137f2565b909155505060008181526002602052604080822080547fffffffffffffffffffffffff0000000000000000000000000000000000000000166001600160a01b03861690811790915590518392907fddf252ad1be2c89b69c2b068fc378daa952ba7f163c4a11628f55a4df523b3ef908290a45050565b6001600160a01b038316612a9e57612a9981600880546000838152600960205260408120829055600182018355919091527ff3f7a9fe364faab93b216da50a3214154f22a0a2b415b23a84c8169e8b636ee30155565b612ac1565b816001600160a01b0316836001600160a01b031614612ac157612ac18382612afb565b6001600160a01b038216612ad8576109da81612b98565b826001600160a01b0316826001600160a01b0316146109da576109da8282612c47565b60006001612b088461133b565b612b12919061381e565b600083815260076020526040902054909150808214612b65576001600160a01b03841660009081526006602090815260408083208584528252808320548484528184208190558352600790915290208190555b5060009182526007602090815260408084208490556001600160a01b039094168352600681528383209183525290812055565b600854600090612baa9060019061381e565b60008381526009602052604081205460088054939450909284908110612bd257612bd261398f565b906000526020600020015490508060088381548110612bf357612bf361398f565b6000918252602080832090910192909255828152600990915260408082208490558582528120556008805480612c2b57612c2b613960565b6001900381819060005260206000200160009055905550505050565b6000612c528361133b565b6001600160a01b039093166000908152600660209081526040808320868452825280832085905593825260079052919091209190915550565b828054612c9790613861565b90600052602060002090601f016020900481019282612cb95760008555612d1d565b82601f10612cf0578280017fffffffffffffffffffffffffffffffffffffffffffffffffffffffffffffff00823516178555612d1d565b82800160010185558215612d1d579182015b82811115612d1d578235825591602001919060010190612d02565b50612d29929150612da1565b5090565b828054612d3990613861565b90600052602060002090601f016020900481019282612d5b5760008555612d1d565b82601f10612d7457805160ff1916838001178555612d1d565b82800160010185558215612d1d579182015b82811115612d1d578251825591602001919060010190612d86565b5b80821115612d295760008155600101612da2565b80356001600160a01b03811681146111ac57600080fd5b600082601f830112612dde57600080fd5b8135612df1612dec826137ca565b613799565b818152846020838601011115612e0657600080fd5b816020850160208301376000918101602001919091529392505050565b803561ffff811681146111ac57600080fd5b600060208284031215612e4757600080fd5b611d5382612db6565b60008060408385031215612e6357600080fd5b612e6c83612db6565b9150612e7a60208401612db6565b90509250929050565b600080600060608486031215612e9857600080fd5b612ea184612db6565b9250612eaf60208501612db6565b9150604084013590509250925092565b60008060008060808587031215612ed557600080fd5b612ede85612db6565b9350612eec60208601612db6565b925060408501359150606085013567ffffffffffffffff811115612f0f57600080fd5b612f1b87828801612dcd565b91505092959194509250565b60008060408385031215612f3a57600080fd5b612f4383612db6565b915060208301358015158114612f5857600080fd5b809150509250929050565b60008060408385031215612f7657600080fd5b612f7f83612db6565b946020939093013593505050565b600060208284031215612f9f57600080fd5b8135611d53816139ed565b600060208284031215612fbc57600080fd5b8151611d53816139ed565b60008060208385031215612fda57600080fd5b823567ffffffffffffffff80821115612ff257600080fd5b818501915085601f83011261300657600080fd5b81358181111561301557600080fd5b86602082850101111561302757600080fd5b60209290920196919550909350505050565b60006020828403121561304b57600080fd5b813567ffffffffffffffff81111561306257600080fd5b6120bb84828501612dcd565b60006020828403121561308057600080fd5b815167ffffffffffffffff81111561309757600080fd5b8201601f810184136130a857600080fd5b80516130b6612dec826137ca565b8181528560208385010111156130cb57600080fd5b6130dc826020830160208601613835565b95945050505050565b6000602082840312156130f757600080fd5b5035919050565b6000806040838503121561311157600080fd5b82359150612e7a60208401612db6565b6000806040838503121561313457600080fd5b82359150602083013567ffffffffffffffff81111561315257600080fd5b61315e85828601612dcd565b9150509250929050565b60008060006060848603121561317d57600080fd5b83359250602084013567ffffffffffffffff8082111561319c57600080fd5b6131a887838801612dcd565b935060408601359150808211156131be57600080fd5b506131cb86828701612dcd565b9150509250925092565b600080600080608085870312156131eb57600080fd5b8435935067ffffffffffffffff806020870135111561320957600080fd5b6132198760208801358801612dcd565b9350806040870135111561322c57600080fd5b61323c8760408801358801612dcd565b9250806060870135111561324f57600080fd5b6060860135860187601f82011261326557600080fd5b8181351115613276576132766139be565b6132866020823560051b01613799565b8082358252602082019150602083018a6020853560051b86010111156132ab57600080fd5b60005b84358110156133435785823511156132c557600080fd5b813585016060601f19828f030112156132dd57600080fd5b6132e5613770565b6132f160208301612e23565b81526132ff60408301612e23565b6020820152876060830135111561331557600080fd5b6133288e60206060850135850101612dcd565b604082015285525060209384019391909101906001016132ae565b50508094505050505092959194509250565b6000815180845261336d816020860160208601613835565b601f01601f19169290920160200192915050565b8054600090600181811c908083168061339b57607f831692505b60208084108214156133d6577f4e487b7100000000000000000000000000000000000000000000000000000000600052602260045260246000fd5b838852602088018280156133f157600181146134205761344b565b7fffffffffffffffffffffffffffffffffffffffffffffffffffffffffffffff0087168252828201975061344b565b60008981526020902060005b878110156134455781548482015290860190840161342c565b83019850505b5050505050505092915050565b60408252600061346b6040840183613381565b83810360208501526120bb8160018501613381565b60008351613492818460208801613835565b8351908301906134a6818360208801613835565b01949350505050565b600082516134c1818460208701613835565b7f2e6a736f6e000000000000000000000000000000000000000000000000000000920191825250600501919050565b60006001600160a01b038087168352808616602084015250836040830152608060608301526135226080830184613355565b9695505050505050565b6020808252825182820181905260009190848201906040850190845b8181101561356457835183529284019291840191600101613548565b50909695505050505050565b602081526000611d536020830184613355565b600060208083528351606080838601526135a06080860183613355565b915082860151601f1960408188860301818901526135be8584613355565b898201518982038401868b015280518083529196508701935086860190600581901b8701880160005b8281101561363357888203860184528651805161ffff90811684528b820151168b84015285015185830189905261362089840182613355565b978b0197948b01949250506001016135e7565b509b9a5050505050505050505050565b600060408083526060808285015261365e60a0850187613381565b60017fffffffffffffffffffffffffffffffffffffffffffffffffffffffffffffffc080878403018488015261369683838b01613381565b878103909101608088015260028981018054808452600091825260208083209496508087019492600583901b88018201905b8381101561371357601f19898303018752845461ffff8082168452808260101c16858501525050898b8301526137028a8301898701613381565b9683019694860194915087016136c8565b508b8103828d0152613725818e613458565b9e9d5050505050505050505050505050565b6020815260008251604060208401526137536060840182613355565b90506020840151601f198483030160408501526130dc8282613355565b6040516060810167ffffffffffffffff81118282101715613793576137936139be565b60405290565b604051601f8201601f1916810167ffffffffffffffff811182821017156137c2576137c26139be565b604052919050565b600067ffffffffffffffff8211156137e4576137e46139be565b50601f01601f191660200190565b6000821982111561380557613805613902565b500190565b60008261381957613819613931565b500490565b60008282101561383057613830613902565b500390565b60005b83811015613850578181015183820152602001613838565b83811115611c345750506000910152565b600181811c9082168061387557607f821691505b602082108114156138af577f4e487b7100000000000000000000000000000000000000000000000000000000600052602260045260246000fd5b50919050565b60007fffffffffffffffffffffffffffffffffffffffffffffffffffffffffffffffff8214156138e7576138e7613902565b5060010190565b6000826138fd576138fd613931565b500690565b7f4e487b7100000000000000000000000000000000000000000000000000000000600052601160045260246000fd5b7f4e487b7100000000000000000000000000000000000000000000000000000000600052601260045260246000fd5b7f4e487b7100000000000000000000000000000000000000000000000000000000600052603160045260246000fd5b7f4e487b7100000000000000000000000000000000000000000000000000000000600052603260045260246000fd5b7f4e487b7100000000000000000000000000000000000000000000000000000000600052604160045260246000fd5b7fffffffff0000000000000000000000000000000000000000000000000000000081168114610af857600080fdfea2646970667358221220c766546cbc112335d3ba8dbb12f59c766df285835c7a1af3bc705607e8bdadff64736f6c63430008060033",
  "libraries": {
    "LeniaDescriptor": "0x4Bbbd491a058F4b0AFe3FcB597d9F68a035D433b"
  },
  "devdoc": {
    "kind": "dev",
    "methods": {
      "approve(address,uint256)": {
        "details": "See {IERC721-approve}."
      },
      "balanceOf(address)": {
        "details": "See {IERC721-balanceOf}."
      },
      "getApproved(uint256)": {
        "details": "See {IERC721-getApproved}."
      },
      "isApprovedForAll(address,address)": {
        "details": "See {IERC721-isApprovedForAll}."
      },
      "name()": {
        "details": "See {IERC721Metadata-name}."
      },
      "owner()": {
        "details": "Returns the address of the current owner."
      },
      "ownerOf(uint256)": {
        "details": "See {IERC721-ownerOf}."
      },
      "renounceOwnership()": {
        "details": "Leaves the contract without owner. It will not be possible to call `onlyOwner` functions anymore. Can only be called by the current owner. NOTE: Renouncing ownership will leave the contract without an owner, thereby removing any functionality that is only available to the owner."
      },
      "safeTransferFrom(address,address,uint256)": {
        "details": "See {IERC721-safeTransferFrom}."
      },
      "safeTransferFrom(address,address,uint256,bytes)": {
        "details": "See {IERC721-safeTransferFrom}."
      },
      "setApprovalForAll(address,bool)": {
        "details": "See {IERC721-setApprovalForAll}."
      },
      "symbol()": {
        "details": "See {IERC721Metadata-symbol}."
      },
      "tokenByIndex(uint256)": {
        "details": "See {IERC721Enumerable-tokenByIndex}."
      },
      "tokenOfOwnerByIndex(address,uint256)": {
        "details": "See {IERC721Enumerable-tokenOfOwnerByIndex}."
      },
      "tokenURI(uint256)": {
        "details": "See {IERC721Metadata-tokenURI}."
      },
      "totalSupply()": {
        "details": "See {IERC721Enumerable-totalSupply}."
      },
      "transferFrom(address,address,uint256)": {
        "details": "See {IERC721-transferFrom}."
      },
      "transferOwnership(address)": {
        "details": "Transfers ownership of the contract to a new account (`newOwner`). Can only be called by the current owner."
      }
    },
    "version": 1
  },
  "userdoc": {
    "kind": "user",
    "methods": {},
    "version": 1
  },
  "storageLayout": {
    "storage": [
      {
        "astId": 129,
        "contract": "contracts/Lenia.sol:Lenia",
        "label": "_name",
        "offset": 0,
        "slot": "0",
        "type": "t_string_storage"
      },
      {
        "astId": 131,
        "contract": "contracts/Lenia.sol:Lenia",
        "label": "_symbol",
        "offset": 0,
        "slot": "1",
        "type": "t_string_storage"
      },
      {
        "astId": 135,
        "contract": "contracts/Lenia.sol:Lenia",
        "label": "_owners",
        "offset": 0,
        "slot": "2",
        "type": "t_mapping(t_uint256,t_address)"
      },
      {
        "astId": 139,
        "contract": "contracts/Lenia.sol:Lenia",
        "label": "_balances",
        "offset": 0,
        "slot": "3",
        "type": "t_mapping(t_address,t_uint256)"
      },
      {
        "astId": 143,
        "contract": "contracts/Lenia.sol:Lenia",
        "label": "_tokenApprovals",
        "offset": 0,
        "slot": "4",
        "type": "t_mapping(t_uint256,t_address)"
      },
      {
        "astId": 149,
        "contract": "contracts/Lenia.sol:Lenia",
        "label": "_operatorApprovals",
        "offset": 0,
        "slot": "5",
        "type": "t_mapping(t_address,t_mapping(t_address,t_bool))"
      },
      {
        "astId": 1068,
        "contract": "contracts/Lenia.sol:Lenia",
        "label": "_ownedTokens",
        "offset": 0,
        "slot": "6",
        "type": "t_mapping(t_address,t_mapping(t_uint256,t_uint256))"
      },
      {
        "astId": 1072,
        "contract": "contracts/Lenia.sol:Lenia",
        "label": "_ownedTokensIndex",
        "offset": 0,
        "slot": "7",
        "type": "t_mapping(t_uint256,t_uint256)"
      },
      {
        "astId": 1075,
        "contract": "contracts/Lenia.sol:Lenia",
        "label": "_allTokens",
        "offset": 0,
        "slot": "8",
        "type": "t_array(t_uint256)dyn_storage"
      },
      {
        "astId": 1079,
        "contract": "contracts/Lenia.sol:Lenia",
        "label": "_allTokensIndex",
        "offset": 0,
        "slot": "9",
        "type": "t_mapping(t_uint256,t_uint256)"
      },
      {
        "astId": 7,
        "contract": "contracts/Lenia.sol:Lenia",
        "label": "_owner",
        "offset": 0,
        "slot": "10",
        "type": "t_address"
      },
      {
        "astId": 2339,
        "contract": "contracts/Lenia.sol:Lenia",
        "label": "_price",
        "offset": 0,
        "slot": "11",
        "type": "t_uint256"
      },
      {
        "astId": 2342,
        "contract": "contracts/Lenia.sol:Lenia",
        "label": "_reserved",
        "offset": 0,
        "slot": "12",
        "type": "t_uint256"
      },
      {
        "astId": 2344,
        "contract": "contracts/Lenia.sol:Lenia",
        "label": "_hasSaleStarted",
        "offset": 0,
        "slot": "13",
        "type": "t_bool"
      },
      {
        "astId": 2347,
        "contract": "contracts/Lenia.sol:Lenia",
        "label": "switchToOnChain",
        "offset": 1,
        "slot": "13",
        "type": "t_bool"
      },
      {
        "astId": 2349,
        "contract": "contracts/Lenia.sol:Lenia",
        "label": "baseURI",
        "offset": 0,
        "slot": "14",
        "type": "t_string_storage"
      },
      {
        "astId": 2351,
        "contract": "contracts/Lenia.sol:Lenia",
        "label": "engine",
        "offset": 0,
        "slot": "15",
        "type": "t_string_storage"
      },
      {
        "astId": 2355,
        "contract": "contracts/Lenia.sol:Lenia",
        "label": "cells",
        "offset": 0,
        "slot": "16",
        "type": "t_array(t_bytes_storage)202_storage"
      },
      {
        "astId": 2360,
        "contract": "contracts/Lenia.sol:Lenia",
        "label": "leniaParams",
        "offset": 0,
        "slot": "218",
        "type": "t_array(t_struct(LeniaParams)2926_storage)202_storage"
      },
      {
        "astId": 2365,
        "contract": "contracts/Lenia.sol:Lenia",
        "label": "metadata",
        "offset": 0,
        "slot": "622",
        "type": "t_array(t_struct(LeniaMetadata)2935_storage)202_storage"
      }
    ],
    "types": {
      "t_address": {
        "encoding": "inplace",
        "label": "address",
        "numberOfBytes": "20"
      },
      "t_array(t_bytes_storage)202_storage": {
        "base": "t_bytes_storage",
        "encoding": "inplace",
        "label": "bytes[202]",
        "numberOfBytes": "6464"
      },
      "t_array(t_struct(LeniaAttribute)2921_storage)dyn_storage": {
        "base": "t_struct(LeniaAttribute)2921_storage",
        "encoding": "dynamic_array",
        "label": "struct LeniaDescriptor.LeniaAttribute[]",
        "numberOfBytes": "32"
      },
      "t_array(t_struct(LeniaMetadata)2935_storage)202_storage": {
        "base": "t_struct(LeniaMetadata)2935_storage",
        "encoding": "inplace",
        "label": "struct LeniaDescriptor.LeniaMetadata[202]",
        "numberOfBytes": "19392"
      },
      "t_array(t_struct(LeniaParams)2926_storage)202_storage": {
        "base": "t_struct(LeniaParams)2926_storage",
        "encoding": "inplace",
        "label": "struct LeniaDescriptor.LeniaParams[202]",
        "numberOfBytes": "12928"
      },
      "t_array(t_uint256)dyn_storage": {
        "base": "t_uint256",
        "encoding": "dynamic_array",
        "label": "uint256[]",
        "numberOfBytes": "32"
      },
      "t_bool": {
        "encoding": "inplace",
        "label": "bool",
        "numberOfBytes": "1"
      },
      "t_bytes_storage": {
        "encoding": "bytes",
        "label": "bytes",
        "numberOfBytes": "32"
      },
      "t_mapping(t_address,t_bool)": {
        "encoding": "mapping",
        "key": "t_address",
        "label": "mapping(address => bool)",
        "numberOfBytes": "32",
        "value": "t_bool"
      },
      "t_mapping(t_address,t_mapping(t_address,t_bool))": {
        "encoding": "mapping",
        "key": "t_address",
        "label": "mapping(address => mapping(address => bool))",
        "numberOfBytes": "32",
        "value": "t_mapping(t_address,t_bool)"
      },
      "t_mapping(t_address,t_mapping(t_uint256,t_uint256))": {
        "encoding": "mapping",
        "key": "t_address",
        "label": "mapping(address => mapping(uint256 => uint256))",
        "numberOfBytes": "32",
        "value": "t_mapping(t_uint256,t_uint256)"
      },
      "t_mapping(t_address,t_uint256)": {
        "encoding": "mapping",
        "key": "t_address",
        "label": "mapping(address => uint256)",
        "numberOfBytes": "32",
        "value": "t_uint256"
      },
      "t_mapping(t_uint256,t_address)": {
        "encoding": "mapping",
        "key": "t_uint256",
        "label": "mapping(uint256 => address)",
        "numberOfBytes": "32",
        "value": "t_address"
      },
      "t_mapping(t_uint256,t_uint256)": {
        "encoding": "mapping",
        "key": "t_uint256",
        "label": "mapping(uint256 => uint256)",
        "numberOfBytes": "32",
        "value": "t_uint256"
      },
      "t_string_storage": {
        "encoding": "bytes",
        "label": "string",
        "numberOfBytes": "32"
      },
      "t_struct(LeniaAttribute)2921_storage": {
        "encoding": "inplace",
        "label": "struct LeniaDescriptor.LeniaAttribute",
        "members": [
          {
            "astId": 2916,
            "contract": "contracts/Lenia.sol:Lenia",
            "label": "traitType",
            "offset": 0,
            "slot": "0",
            "type": "t_uint16"
          },
          {
            "astId": 2918,
            "contract": "contracts/Lenia.sol:Lenia",
            "label": "value",
            "offset": 2,
            "slot": "0",
            "type": "t_uint16"
          },
          {
            "astId": 2920,
            "contract": "contracts/Lenia.sol:Lenia",
            "label": "numericalValue",
            "offset": 0,
            "slot": "1",
            "type": "t_string_storage"
          }
        ],
        "numberOfBytes": "64"
      },
      "t_struct(LeniaMetadata)2935_storage": {
        "encoding": "inplace",
        "label": "struct LeniaDescriptor.LeniaMetadata",
        "members": [
          {
            "astId": 2928,
            "contract": "contracts/Lenia.sol:Lenia",
            "label": "paddedID",
            "offset": 0,
            "slot": "0",
            "type": "t_string_storage"
          },
          {
            "astId": 2930,
            "contract": "contracts/Lenia.sol:Lenia",
            "label": "imageURL",
            "offset": 0,
            "slot": "1",
            "type": "t_string_storage"
          },
          {
            "astId": 2934,
            "contract": "contracts/Lenia.sol:Lenia",
            "label": "leniaAttributes",
            "offset": 0,
            "slot": "2",
            "type": "t_array(t_struct(LeniaAttribute)2921_storage)dyn_storage"
          }
        ],
        "numberOfBytes": "96"
      },
      "t_struct(LeniaParams)2926_storage": {
        "encoding": "inplace",
        "label": "struct LeniaDescriptor.LeniaParams",
        "members": [
          {
            "astId": 2923,
            "contract": "contracts/Lenia.sol:Lenia",
            "label": "m",
            "offset": 0,
            "slot": "0",
            "type": "t_string_storage"
          },
          {
            "astId": 2925,
            "contract": "contracts/Lenia.sol:Lenia",
            "label": "s",
            "offset": 0,
            "slot": "1",
            "type": "t_string_storage"
          }
        ],
        "numberOfBytes": "64"
      },
      "t_uint16": {
        "encoding": "inplace",
        "label": "uint16",
        "numberOfBytes": "2"
      },
      "t_uint256": {
        "encoding": "inplace",
        "label": "uint256",
        "numberOfBytes": "32"
      }
    }
  }
}