{
  "address": "0x2E773C0eF1B55C4A8EAF70d2409012454493A1d4",
  "abi": [
    {
      "anonymous": false,
      "inputs": [
        {
          "indexed": true,
          "internalType": "address",
          "name": "previousOwner",
          "type": "address"
        },
        {
          "indexed": true,
          "internalType": "address",
          "name": "newOwner",
          "type": "address"
        }
      ],
      "name": "OwnershipTransferred",
      "type": "event"
    },
    {
      "inputs": [],
      "name": "MAX_SUPPLY",
      "outputs": [
        {
          "internalType": "uint256",
          "name": "",
          "type": "uint256"
        }
      ],
      "stateMutability": "view",
      "type": "function"
    },
    {
      "inputs": [
        {
          "internalType": "uint256",
          "name": "id",
          "type": "uint256"
        }
      ],
      "name": "getLeniaParams",
      "outputs": [
        {
          "internalType": "bytes",
          "name": "",
          "type": "bytes"
        }
      ],
      "stateMutability": "view",
      "type": "function"
    },
    {
      "inputs": [
        {
          "internalType": "uint256",
          "name": "",
          "type": "uint256"
        }
      ],
      "name": "metadata",
      "outputs": [
        {
          "internalType": "bytes",
          "name": "",
          "type": "bytes"
        }
      ],
      "stateMutability": "view",
      "type": "function"
    },
    {
      "inputs": [],
      "name": "owner",
      "outputs": [
        {
          "internalType": "address",
          "name": "",
          "type": "address"
        }
      ],
      "stateMutability": "view",
      "type": "function"
    },
    {
      "inputs": [],
      "name": "renounceOwnership",
      "outputs": [],
      "stateMutability": "nonpayable",
      "type": "function"
    },
    {
      "inputs": [
        {
          "internalType": "uint256",
          "name": "id",
          "type": "uint256"
        },
        {
          "internalType": "bytes",
          "name": "metadataAddress",
          "type": "bytes"
        }
      ],
      "name": "setLeniaParams",
      "outputs": [],
      "stateMutability": "nonpayable",
      "type": "function"
    },
    {
      "inputs": [
        {
          "internalType": "address",
          "name": "newOwner",
          "type": "address"
        }
      ],
      "name": "transferOwnership",
      "outputs": [],
      "stateMutability": "nonpayable",
      "type": "function"
    }
  ],
  "transactionHash": "0xfdb51f233f8acb3b4a9b29b0b17ac6e14114b6c63d1a75b7a2c72d4730f7ba72",
  "args": [],
  "solcInputHash": "e2bb2823a0f5b2bbd33e325575b1d391",
  "bytecode": "0x608060405234801561001057600080fd5b5061001a3361001f565b61006f565b600080546001600160a01b038381166001600160a01b0319831681178455604051919092169283917f8be0079c531659141344cd1fd0a4f28419497f9722a3daafe3b4186f6b6457e09190a35050565b6108e08061007e6000396000f3fe608060405234801561001057600080fd5b506004361061007d5760003560e01c80638581a50d1161005b5780638581a50d146100c75780638da5cb5b146100da578063e3684e3914610102578063f2fde38b1461011557600080fd5b806332cb6b0c14610082578063512379d81461009d578063715018a6146100bd575b600080fd5b61008a60ca81565b6040519081526020015b60405180910390f35b6100b06100ab366004610693565b610128565b6040516100949190610785565b6100c561023d565b005b6100c56100d53660046106ac565b6102ca565b60005460405173ffffffffffffffffffffffffffffffffffffffff9091168152602001610094565b6100b0610110366004610693565b610378565b6100c5610123366004610656565b610418565b606060ca8210610199576040517f08c379a000000000000000000000000000000000000000000000000000000000815260206004820152601060248201527f6964206f7574206f6620626f756e64730000000000000000000000000000000060448201526064015b60405180910390fd5b60018260ca81106101ac576101ac61084c565b0180546101b8906107f8565b80601f01602080910402602001604051908101604052809291908181526020018280546101e4906107f8565b80156102315780601f1061020657610100808354040283529160200191610231565b820191906000526020600020905b81548152906001019060200180831161021457829003601f168201915b50505050509050919050565b60005473ffffffffffffffffffffffffffffffffffffffff1633146102be576040517f08c379a000000000000000000000000000000000000000000000000000000000815260206004820181905260248201527f4f776e61626c653a2063616c6c6572206973206e6f7420746865206f776e65726044820152606401610190565b6102c86000610548565b565b60005473ffffffffffffffffffffffffffffffffffffffff16331461034b576040517f08c379a000000000000000000000000000000000000000000000000000000000815260206004820181905260248201527f4f776e61626c653a2063616c6c6572206973206e6f7420746865206f776e65726044820152606401610190565b8060018360ca811061035f5761035f61084c565b0190805190602001906103739291906105bd565b505050565b60018160ca811061038857600080fd5b018054909150610397906107f8565b80601f01602080910402602001604051908101604052809291908181526020018280546103c3906107f8565b80156104105780601f106103e557610100808354040283529160200191610410565b820191906000526020600020905b8154815290600101906020018083116103f357829003601f168201915b505050505081565b60005473ffffffffffffffffffffffffffffffffffffffff163314610499576040517f08c379a000000000000000000000000000000000000000000000000000000000815260206004820181905260248201527f4f776e61626c653a2063616c6c6572206973206e6f7420746865206f776e65726044820152606401610190565b73ffffffffffffffffffffffffffffffffffffffff811661053c576040517f08c379a000000000000000000000000000000000000000000000000000000000815260206004820152602660248201527f4f776e61626c653a206e6577206f776e657220697320746865207a65726f206160448201527f64647265737300000000000000000000000000000000000000000000000000006064820152608401610190565b61054581610548565b50565b6000805473ffffffffffffffffffffffffffffffffffffffff8381167fffffffffffffffffffffffff0000000000000000000000000000000000000000831681178455604051919092169283917f8be0079c531659141344cd1fd0a4f28419497f9722a3daafe3b4186f6b6457e09190a35050565b8280546105c9906107f8565b90600052602060002090601f0160209004810192826105eb5760008555610631565b82601f1061060457805160ff1916838001178555610631565b82800160010185558215610631579182015b82811115610631578251825591602001919060010190610616565b5061063d929150610641565b5090565b5b8082111561063d5760008155600101610642565b60006020828403121561066857600080fd5b813573ffffffffffffffffffffffffffffffffffffffff8116811461068c57600080fd5b9392505050565b6000602082840312156106a557600080fd5b5035919050565b600080604083850312156106bf57600080fd5b82359150602083013567ffffffffffffffff808211156106de57600080fd5b818501915085601f8301126106f257600080fd5b8135818111156107045761070461087b565b604051601f82017fffffffffffffffffffffffffffffffffffffffffffffffffffffffffffffffe0908116603f0116810190838211818310171561074a5761074a61087b565b8160405282815288602084870101111561076357600080fd5b8260208601602083013760006020848301015280955050505050509250929050565b600060208083528351808285015260005b818110156107b257858101830151858201604001528201610796565b818111156107c4576000604083870101525b50601f017fffffffffffffffffffffffffffffffffffffffffffffffffffffffffffffffe016929092016040019392505050565b600181811c9082168061080c57607f821691505b60208210811415610846577f4e487b7100000000000000000000000000000000000000000000000000000000600052602260045260246000fd5b50919050565b7f4e487b7100000000000000000000000000000000000000000000000000000000600052603260045260246000fd5b7f4e487b7100000000000000000000000000000000000000000000000000000000600052604160045260246000fdfea2646970667358221220f12618982fb53e35d55dc1423141c15df389ed974137ac3754c49e576914c92564736f6c63430008060033",
  "devdoc": {
    "kind": "dev",
    "methods": {
      "owner()": {
        "details": "Returns the address of the current owner."
      },
      "renounceOwnership()": {
        "details": "Leaves the contract without owner. It will not be possible to call `onlyOwner` functions anymore. Can only be called by the current owner. NOTE: Renouncing ownership will leave the contract without an owner, thereby removing any functionality that is only available to the owner."
      },
      "transferOwnership(address)": {
        "details": "Transfers ownership of the contract to a new account (`newOwner`). Can only be called by the current owner."
      }
    },
    "version": 1
  },
  "userdoc": {
    "kind": "user",
    "methods": {},
    "version": 1
  },
  "storageLayout": {
    "storage": [
      {
        "astId": 7,
        "contract": "contracts/LeniaMetadata.sol:LeniaMetadata",
        "label": "_owner",
        "offset": 0,
        "slot": "0",
        "type": "t_address"
      },
      {
        "astId": 3373,
        "contract": "contracts/LeniaMetadata.sol:LeniaMetadata",
        "label": "metadata",
        "offset": 0,
        "slot": "1",
        "type": "t_array(t_bytes_storage)202_storage"
      }
    ],
    "types": {
      "t_address": {
        "encoding": "inplace",
        "label": "address",
        "numberOfBytes": "20"
      },
      "t_array(t_bytes_storage)202_storage": {
        "base": "t_bytes_storage",
        "encoding": "inplace",
        "label": "bytes[202]",
        "numberOfBytes": "6464"
      },
      "t_bytes_storage": {
        "encoding": "bytes",
        "label": "bytes",
        "numberOfBytes": "32"
      }
    }
  }
}