{
  "address": "0xb95e8487b8Df34f30e363681242b8d4a0661F785",
  "abi": [
    {
      "anonymous": false,
      "inputs": [
        {
          "indexed": true,
          "internalType": "address",
          "name": "previousOwner",
          "type": "address"
        },
        {
          "indexed": true,
          "internalType": "address",
          "name": "newOwner",
          "type": "address"
        }
      ],
      "name": "OwnershipTransferred",
      "type": "event"
    },
    {
      "inputs": [],
      "name": "MAX_SUPPLY",
      "outputs": [
        {
          "internalType": "uint256",
          "name": "",
          "type": "uint256"
        }
      ],
      "stateMutability": "view",
      "type": "function"
    },
    {
      "inputs": [],
      "name": "getEngine",
      "outputs": [
        {
          "internalType": "bytes",
          "name": "",
          "type": "bytes"
        }
      ],
      "stateMutability": "view",
      "type": "function"
    },
    {
      "inputs": [
        {
          "internalType": "uint256",
          "name": "id",
          "type": "uint256"
        }
      ],
      "name": "getMetadata",
      "outputs": [
        {
          "internalType": "bytes",
          "name": "",
          "type": "bytes"
        }
      ],
      "stateMutability": "view",
      "type": "function"
    },
    {
      "inputs": [
        {
          "internalType": "bytes",
          "name": "callEngine",
          "type": "bytes"
        }
      ],
      "name": "logEngine",
      "outputs": [],
      "stateMutability": "nonpayable",
      "type": "function"
    },
    {
      "inputs": [
        {
          "internalType": "bytes",
          "name": "callMetadata",
          "type": "bytes"
        }
      ],
      "name": "logMetadata",
      "outputs": [],
      "stateMutability": "nonpayable",
      "type": "function"
    },
    {
      "inputs": [],
      "name": "owner",
      "outputs": [
        {
          "internalType": "address",
          "name": "",
          "type": "address"
        }
      ],
      "stateMutability": "view",
      "type": "function"
    },
    {
      "inputs": [],
      "name": "renounceOwnership",
      "outputs": [],
      "stateMutability": "nonpayable",
      "type": "function"
    },
    {
      "inputs": [
        {
          "internalType": "bytes",
          "name": "callEngine",
          "type": "bytes"
        }
      ],
      "name": "setEngine",
      "outputs": [],
      "stateMutability": "nonpayable",
      "type": "function"
    },
    {
      "inputs": [
        {
          "internalType": "uint256",
          "name": "id",
          "type": "uint256"
        },
        {
          "internalType": "bytes",
          "name": "metadataAddress",
          "type": "bytes"
        }
      ],
      "name": "setMetadata",
      "outputs": [],
      "stateMutability": "nonpayable",
      "type": "function"
    },
    {
      "inputs": [
        {
          "internalType": "address",
          "name": "newOwner",
          "type": "address"
        }
      ],
      "name": "transferOwnership",
      "outputs": [],
      "stateMutability": "nonpayable",
      "type": "function"
    }
  ],
  "transactionHash": "0x5eb447357bd0aa87254250ab7edc0437259b6c83f23be1475fc9fb4364ac454a",
  "args": [],
  "solcInputHash": "18f492bc3cc494f90de881bc2db1e04b",
  "bytecode": "0x608060405234801561001057600080fd5b5061001a3361001f565b61006f565b600080546001600160a01b038381166001600160a01b0319831681178455604051919092169283917f8be0079c531659141344cd1fd0a4f28419497f9722a3daafe3b4186f6b6457e09190a35050565b610a9a8061007e6000396000f3fe608060405234801561001057600080fd5b50600436106100be5760003560e01c80638da5cb5b11610076578063a574cea41161005b578063a574cea414610162578063b972f32d1461010c578063f2fde38b1461017557600080fd5b80638da5cb5b14610127578063a19f6eb21461014f57600080fd5b806345290110116100a757806345290110146100f7578063654eebea1461010c578063715018a61461011f57600080fd5b806305957706146100c357806332cb6b0c146100e1575b600080fd5b6100cb610188565b6040516100d8919061096e565b60405180910390f35b6100e960ca81565b6040519081526020016100d8565b61010a6101053660046108c7565b61021a565b005b61010a61011a3660046108c7565b6102b1565b61010a610336565b60005460405173ffffffffffffffffffffffffffffffffffffffff90911681526020016100d8565b61010a61015d366004610922565b6103c3565b6100cb610170366004610909565b6104d5565b61010a61018336600461088a565b6105e5565b606060018054610197906109e1565b80601f01602080910402602001604051908101604052809291908181526020018280546101c3906109e1565b80156102105780601f106101e557610100808354040283529160200191610210565b820191906000526020600020905b8154815290600101906020018083116101f357829003601f168201915b5050505050905090565b60005473ffffffffffffffffffffffffffffffffffffffff1633146102a0576040517f08c379a000000000000000000000000000000000000000000000000000000000815260206004820181905260248201527f4f776e61626c653a2063616c6c6572206973206e6f7420746865206f776e657260448201526064015b60405180910390fd5b6102ac6001838361078a565b505050565b60005473ffffffffffffffffffffffffffffffffffffffff163314610332576040517f08c379a000000000000000000000000000000000000000000000000000000000815260206004820181905260248201527f4f776e61626c653a2063616c6c6572206973206e6f7420746865206f776e65726044820152606401610297565b5050565b60005473ffffffffffffffffffffffffffffffffffffffff1633146103b7576040517f08c379a000000000000000000000000000000000000000000000000000000000815260206004820181905260248201527f4f776e61626c653a2063616c6c6572206973206e6f7420746865206f776e65726044820152606401610297565b6103c16000610715565b565b60005473ffffffffffffffffffffffffffffffffffffffff163314610444576040517f08c379a000000000000000000000000000000000000000000000000000000000815260206004820181905260248201527f4f776e61626c653a2063616c6c6572206973206e6f7420746865206f776e65726044820152606401610297565b60ca83106104ae576040517f08c379a000000000000000000000000000000000000000000000000000000000815260206004820152601060248201527f6964206f7574206f6620626f756e6473000000000000000000000000000000006044820152606401610297565b818160028560ca81106104c3576104c3610a35565b6104cf9391019161078a565b50505050565b606060ca8210610541576040517f08c379a000000000000000000000000000000000000000000000000000000000815260206004820152601060248201527f6964206f7574206f6620626f756e6473000000000000000000000000000000006044820152606401610297565b60028260ca811061055457610554610a35565b018054610560906109e1565b80601f016020809104026020016040519081016040528092919081815260200182805461058c906109e1565b80156105d95780601f106105ae576101008083540402835291602001916105d9565b820191906000526020600020905b8154815290600101906020018083116105bc57829003601f168201915b50505050509050919050565b60005473ffffffffffffffffffffffffffffffffffffffff163314610666576040517f08c379a000000000000000000000000000000000000000000000000000000000815260206004820181905260248201527f4f776e61626c653a2063616c6c6572206973206e6f7420746865206f776e65726044820152606401610297565b73ffffffffffffffffffffffffffffffffffffffff8116610709576040517f08c379a000000000000000000000000000000000000000000000000000000000815260206004820152602660248201527f4f776e61626c653a206e6577206f776e657220697320746865207a65726f206160448201527f64647265737300000000000000000000000000000000000000000000000000006064820152608401610297565b61071281610715565b50565b6000805473ffffffffffffffffffffffffffffffffffffffff8381167fffffffffffffffffffffffff0000000000000000000000000000000000000000831681178455604051919092169283917f8be0079c531659141344cd1fd0a4f28419497f9722a3daafe3b4186f6b6457e09190a35050565b828054610796906109e1565b90600052602060002090601f0160209004810192826107b8576000855561081c565b82601f106107ef578280017fffffffffffffffffffffffffffffffffffffffffffffffffffffffffffffff0082351617855561081c565b8280016001018555821561081c579182015b8281111561081c578235825591602001919060010190610801565b5061082892915061082c565b5090565b5b80821115610828576000815560010161082d565b60008083601f84011261085357600080fd5b50813567ffffffffffffffff81111561086b57600080fd5b60208301915083602082850101111561088357600080fd5b9250929050565b60006020828403121561089c57600080fd5b813573ffffffffffffffffffffffffffffffffffffffff811681146108c057600080fd5b9392505050565b600080602083850312156108da57600080fd5b823567ffffffffffffffff8111156108f157600080fd5b6108fd85828601610841565b90969095509350505050565b60006020828403121561091b57600080fd5b5035919050565b60008060006040848603121561093757600080fd5b83359250602084013567ffffffffffffffff81111561095557600080fd5b61096186828701610841565b9497909650939450505050565b600060208083528351808285015260005b8181101561099b5785810183015185820160400152820161097f565b818111156109ad576000604083870101525b50601f017fffffffffffffffffffffffffffffffffffffffffffffffffffffffffffffffe016929092016040019392505050565b600181811c908216806109f557607f821691505b60208210811415610a2f577f4e487b7100000000000000000000000000000000000000000000000000000000600052602260045260246000fd5b50919050565b7f4e487b7100000000000000000000000000000000000000000000000000000000600052603260045260246000fdfea2646970667358221220d890fe104711bc8f76ca9d9a88c3c7b773c7c8eb7e1835cd4a46fede2ade83f164736f6c63430008060033",
  "devdoc": {
    "kind": "dev",
    "methods": {
      "owner()": {
        "details": "Returns the address of the current owner."
      },
      "renounceOwnership()": {
        "details": "Leaves the contract without owner. It will not be possible to call `onlyOwner` functions anymore. Can only be called by the current owner. NOTE: Renouncing ownership will leave the contract without an owner, thereby removing any functionality that is only available to the owner."
      },
      "transferOwnership(address)": {
        "details": "Transfers ownership of the contract to a new account (`newOwner`). Can only be called by the current owner."
      }
    },
    "version": 1
  },
  "userdoc": {
    "kind": "user",
    "methods": {},
    "version": 1
  },
  "storageLayout": {
    "storage": [
      {
        "astId": 7,
        "contract": "contracts/LeniaMetadata.sol:LeniaMetadata",
        "label": "_owner",
        "offset": 0,
        "slot": "0",
        "type": "t_address"
      },
      {
        "astId": 3371,
        "contract": "contracts/LeniaMetadata.sol:LeniaMetadata",
        "label": "engine",
        "offset": 0,
        "slot": "1",
        "type": "t_bytes_storage"
      },
      {
        "astId": 3375,
        "contract": "contracts/LeniaMetadata.sol:LeniaMetadata",
        "label": "metadata",
        "offset": 0,
        "slot": "2",
        "type": "t_array(t_bytes_storage)202_storage"
      }
    ],
    "types": {
      "t_address": {
        "encoding": "inplace",
        "label": "address",
        "numberOfBytes": "20"
      },
      "t_array(t_bytes_storage)202_storage": {
        "base": "t_bytes_storage",
        "encoding": "inplace",
        "label": "bytes[202]",
        "numberOfBytes": "6464"
      },
      "t_bytes_storage": {
        "encoding": "bytes",
        "label": "bytes",
        "numberOfBytes": "32"
      }
    }
  }
}